:020000040000FA
:04000000803119280A
:100008007E1480310B1F09280A2817282100121D89
:100018000E280F2817282000121D13281428172827
:100028008431512480317E10090080311B28210041
:10003800C501C601C701C801C901CA01B0308400A1
:10004800013085003C30FE000030FF009A31E1228B
:10005800803162308400023085000E30FE000030AE
:10006800FF009A31E1228031A030840002308500FF
:100078001C30FE000030FF009A31E1228031203030
:100088008400033085004030FE000030FF009A31C4
:10009800E1228031A0308400033085004030FE002A
:1000A8000030FF009A31E122803120308400043092
:1000B80085004030FE000030FF009A31E122803197
:1000C8007E1020008C31972C20005203031D6D28D0
:1000D8006E28872850081F39003A031D7428752890
:1000E80087282300C517033020005106031D7D28EB
:1000F8007E28852801302100B90039082300E50051
:1001080087282300E50120005208031D8C288D282C
:10011800D42950081F39023A031D93289428D4295A
:1001280054080F39003A03199A289B28D4295408EF
:100138000F392100B900033039020318A428A52873
:10014800D42920304906031DAA28AB28D429230026
:10015800C5172000D41BB128B228CB2854080F3962
:100168000907BD3E860001308700403F2100BE00E0
:10017800413FBF00200054080F39CC3E86000130B3
:10018800870001082100B9003908BD00E328540898
:100198000F390907B73E860001308700403F21002C
:1001A800BE00413FBF00200054080F39CF3E8600F3
:1001B8000130870001082100B9003908BD003D1849
:1001C800E628E728F228FB30B900FF30BA003E08DD
:1001D8003905BE003F083A05BF00F82804303E0440
:1001E800BE0000303F04BF002000D41BFC28FD28BF
:1001F8000A2954080F390907BD3E860001308700D7
:1002080021003E08C03F3F08C13F162954080F3956
:100218000907B73E86000130870021003E08C03F2D
:100228003F08C13F033020005106031D1C291D292A
:10023800462921003E0886003F088700811F25299E
:1002480026293A292000D41B2A292B293329540886
:100258000F39CC3E86000130870081143A295408B2
:100268000F39CF3E860001308700811421003E08F7
:1002780086003F08870001153E0886003F08870072
:100288008117D429043021003E06BE0000303F0605
:10029800BF003E0886003F088700811F5429552962
:1002A80072297F30B9003E0886003F088700390868
:1002B80081053E0886003F08870001170530B30016
:1002C8000030B4003F08B6003E08B5000230B70061
:1002D8000030B8009D31CD25803177293E08860051
:1002E8003F0887000117043021003E06BE00003099
:1002F8003F06BF00BD18812982298A293E08860049
:100308003F088700811F89298A29B7292000D41B23
:100318008E298F29972954080F39CC3E8600013041
:10032800870081109E2954080F39CF3E860001307E
:10033800870081103B302100B9003E0886003F0845
:100348008700390881050530B3000030B4003F0844
:10035800B6003E08B5000230B7000030B8009D3145
:10036800CD258031BF293B30B9003E0886003F08C3
:10037800870039088105200054080F39983E21006C
:10038800B900BA010E30BA3D3908BB003A08BC00C2
:10039800FE30B9003B0886003C0887003908810513
:1003A800080020005203031DDA29DB29F32950082D
:1003B8001F39003A031DE129E229F3292300C51753
:1003C800033020005106031DEA29EB29F1290130E9
:1003D800E60066082300E500F3292300E501200074
:1003E8005208031DF829F9292F2B50081F39023A02
:1003F800031DFF29002A2F2B54080F39003A03192F
:10040800062A072A2F2B54080F39E6000330660204
:1004180003180F2A102A2F2B203021004906031D0C
:10042800162A172A2F2B2300C5172000D41B1D2A94
:100438001E2A342A54080F390907BD3E86000130A8
:100448008700403FEB00413FEC0054080F39CC3E99
:100458008600013087000108E6006608EA00492A9C
:1004680054080F390907B73E860001308700403F1E
:10047800EB00413FEC0054080F39CF3E86000130B5
:1004880087000108E6006608EA006A184C2A4D2A27
:10049800582AFB30E600FF30E7006B086605EB00E2
:1004A8006C086705EC005E2A04306B04EB00003032
:1004B8006C04EC00D41B612A622A6E2A54080F3996
:1004C8000907BD3E8600013087006B08C03F6C08F5
:1004D800C13F792A54080F390907B73E8600013011
:1004E80087006B08C03F6C08C13F03305106031DED
:1004F8007E2A7F2AA52A6B0886006C088700811F40
:10050800862A872A9A2AD41B8A2A8B2A932A54084D
:100518000F39CC3E86000130870081149A2A54088E
:100528000F39CF3E86000130870081146B088600A2
:100538006C08870001156B0886006C088700811716
:100548002F2B04306B06EB0000306C06EC006B08B8
:1005580086006C088700811FB22AB32AD02A7F3010
:10056800E6006B0886006C088700660881056B0842
:1005780086006C08870001170530E0000030E100B4
:100588006C08E3006B08E2000230E4000030E5008C
:100598009D319B258131D52A6B0886006C08870020
:1005A8000117043020006B06EB0000306C06EC00ED
:1005B800EA18DF2AE02AE82A6B0886006C08870018
:1005C800811FE72AE82A132BD41BEB2AEC2AF42AEA
:1005D80054080F39CC3E8600013087008110FB2A71
:1005E80054080F39CF3E86000130870081103B3018
:1005F800E6006B0886006C088700660881050530F0
:10060800E0000030E1006C08E3006B08E200023013
:10061800E4000030E5009D319B2581311B2B3B30E8
:10062800E6006B0886006C088700660881052000D4
:1006380054080F39983EE600E7010E30E73D66089A
:10064800E8006708E900FE30E600680886006908E7
:10065800870066088105080021004903031D352B22
:10066800362B442B3D008E1A3A2B3B2B442B900102
:100678001214121602302300EC006C082100C90085
:100688003D00101D482B492B562B121D4C2B4D2B72
:10069800562BFB302300EC006C083D0090059C3184
:1006A800202483313D008E1C5A2B5B2B5E2B2000AF
:1006B8001211502C101C612B622B772B121C652BEE
:1006C800662B772B8E319426833121001215043046
:1006D8002300EC006C082100C900FE302300EC0068
:1006E8006C083D009005101E7A2B7B2B822B121E66
:1006F8007E2B7F2B822B9B31DE2383313D00101F05
:10070800862B872BB42B121F8A2B8B2B9B2B73309A
:100718002100B3000030B4000030B5000030B6004E
:100728000130B7000030B8009D31CD258331BF308E
:100738002300EC006C083D0090059B31BE238331FB
:10074800230061080319A92BAA2BAC2B0130E10265
:100758006108031DB02BB12BB42B9431D8248331FD
:100768003D00901EB82BB92BC02B921EBC2BBD2B65
:10077800C02B9D316C2583313D00901CC42BC52BAB
:10078800DB2B921CC82BC92BDB2BFF302100B300BD
:100798007F30B4000030B5000030B6000130B7003B
:1007A8000030B8009D31CD2583313D0093010430E0
:1007B800210049020318E12BE22BE52B200012113E
:1007C800502C3D00921DE92BEA2B4E2C2300EE0104
:1007D8003D00901DF02BF12B4E2C0F082300EC0050
:1007E8006C082100CA004A0C2300EC00EC0C6C0CCD
:1007F8000F39ED006D08E300F730EC006C083D00A0
:10080800900521004A19092C0A2C1B2C2300630887
:10081800CC3E86000130870001080139EC00013028
:10082800EC0601086C06FE396C0681002B2C2300AF
:100838006308CF3E86000130870001080139EC00CB
:100848000130EC0601086C06FE396C06810063086D
:10085800031D2F2C302C342C9031AB208331432CAA
:1008680072302100B3000030B400CA30B500003047
:10087800B6000030B700B8009D31CD258331013076
:100888002300EC006C08EE0704306E02031C4D2CAC
:100898004E2CEC2B20001211080021004903031DE7
:1008A800562C572C642C3D008E1A5B2C5C2C642C27
:1008B80090011214121602302100A2002208C90069
:1008C8003D00101D682C692C762C121D6C2C6D2C8B
:1008D800762CFB302100A20022083D0090059B31B8
:1008E800FE2384313D008E1C7A2C7B2C7E2C20002C
:1008F8001211702D101C812C822C942C121C852C0A
:10090800862C942C8D313F2584312100121504301A
:10091800A2002208C900FE30A20022083D0090056E
:10092800101E972C982C9F2C121E9B2C9C2C9F2CB5
:100938009B319E2384313D00101FA32CA42CD12C65
:10094800121FA72CA82CB82C73302000E000003010
:10095800E1000030E2000030E3000130E400003044
:10096800E5009D319B258431BF302100A20022087B
:100978003D0090059B31472384312300610803190A
:10098800C62CC72CC92C0130E1026108031DCD2CEF
:10099800CE2CD12C94315E2484313D00901ED52C70
:1009A800D62CDD2C921ED92CDA2CDD2C9C31B524CA
:1009B80084313D00901CE12CE22CF82C921CE52C93
:1009C800E62CF82CFF302000E0007F30E1000030FA
:1009D800E2000030E3000130E4000030E5009D3122
:1009E8009B2584313D0093010430210049020318FE
:1009F800FE2CFF2C022D20001211702D3D00921D9F
:100A0800062D072D6E2D2100A4013D00901D0D2DF2
:100A18000E2D6E2D0F082100A2002208CA004A0CD4
:100A2800A200A20C220C0F39A30023082300E30024
:100A3800F7302100A20022083D00900521004A1944
:100A4800262D272D392D23006308CC3E8600013042
:100A58008700010801392100A2000130A20601081F
:100A68002206FE39220681004A2D23006308CF3E64
:100A7800860001308700010801392100A2000130F9
:100A8800A20601082206FE39220681002300630817
:100A9800031D4F2D502D542D903155208431632D39
:100AA80072302000E0000030E100CA30E20000307F
:100AB800E3000030E400E5009D319B2584310130DE
:100AC8002100A2002208A40704302402031C6D2D73
:100AD8006E2D092D2000121108002100121123008B
:100AE800520853040319792D7A2D852D5208860052
:100AF80053088700811F812D822D852D2100121515
:100B08005A2E03306806031D8A2D8B2D8C2DE80183
:100B18006808031D902D912D942D210012155A2E31
:100B280002306806031D992D9A2DB52D2100A501C7
:100B3800A50A0030A6000030A700A80102309731AE
:100B480075278531210026082300D30021002508B8
:100B58002300D20003302100B00030082300E80051
:100B6800582E6803031DB92DBA2D582E413059024D
:100B7800031CBF2DC02DC62D40302100B000300809
:100B8800B200CB2D59082100B0003008B20032085D
:100B9800230059022100B00030082300D90020307A
:100BA8002400E3008030E20021003208B000300861
:100BB800B10023005808031DE22DE32D232E002E3B
:100BC8002400640886006508870001082100B00039
:100BD800240062088600630887002100300881002D
:100BE80001302400E2070030E33D0130E407003023
:100BF800E53D01302100B10221003108031D052E19
:100C0800062EE42D292E2400640886006508870036
:100C180001082100B00024006208860063088700EC
:100C280021003008810001302400E2070030E33D54
:100C38000130E4070030E53D01302100B102210018
:100C48003108031D282E292E072E23005908031DBD
:100C58002E2E2F2E412E403021003206031D352E18
:100C6800362E3C2E0230B00030082300E800412E1A
:100C78000330B00030082300E8002100A501A50AD0
:100C88008030A6002030A7003208B0003008A80045
:100C98000230973175278531210026082300D300BB
:100CA800210025082300D200210012150800210088
:100CB8002608B2002508B10029082A04031D652E5C
:100CC800662E672E252F31088600320887002708F0
:100CD800810029083107AB002A08323DAC002B08F7
:100CE800FF3EAD00FF302C3DAE002D0886002E08DB
:100CF80087002708810000302A02033003192902DF
:100D08000318872E882E892E252F3108013EAB0027
:100D18000030323DAC002B0886002C0887002708DD
:100D280081003108023EAB000030323DAC002B0898
:100D380086002C0887002708810029083107AB00A6
:100D48002A08323DAC002B08FE3EAD00FF302C3D9A
:100D5800AE002D0886002E08870027088100290884
:100D68003107AB002A08323DAC002B08FD3EAD0030
:100D7800FF302C3DAE002D0886002E08870027087E
:100D8800810000302A020730031929020318CD2EEA
:100D9800CE2ECF2E252F3108033EAB000030323D3A
:100DA800AC002B0886002C0887002708810029083A
:100DB8003107AB002A08323DAC002B08FC3EAD00E1
:100DC800FF302C3DAE002D0886002E08870027082E
:100DD800810000302A020930031929020318F52E70
:100DE800F62EF72E252F3109AB003209AC00AB0ADD
:100DF8000319AC0A03302B05AF0000302C05B000F6
:100E08002F08B1073008B23D2F08A9023008AA3BC5
:100E1800FC30A905FF30AA051F2F310886003208CB
:100E28008700270881000130A9020030AA3B013061
:100E3800B1070030B23D29082A04031D242F252FAD
:100E4800112F08007108FD007008FC007408750473
:100E5800031D2F2F302F312FEF2F7C0886007D08A0
:100E680087007208810074087C07F60075087D3DCC
:100E7800F7007608FF3EF800FF30773DF900780864
:100E880086007908870072088100003075020330F7
:100E9800031974020318512F522F532FEF2F7C0878
:100EA800013EF60000307D3DF700760886007708A1
:100EB8008700720881007C08023EF60000307D3D04
:100EC800F7007608860077088700720881007408A2
:100ED8007C07F60075087D3DF7007608FE3EF800B1
:100EE800FF30773DF9007808860079088700720896
:100EF800810074087C07F60075087D3DF7007608C8
:100F0800FD3EF800FF30773DF90078088600790843
:100F180087007208810000307502073003197402D7
:100F28000318972F982F992FEF2F7C08033EF60070
:100F380000307D3DF7007608860077088700720844
:100F4800810074087C07F60075087D3DF700760877
:100F5800FC3EF800FF30773DF900780886007908F4
:100F68008700720881000030750209300319740285
:100F78000318BF2FC02FC12FEF2F7C09F6007D0962
:100F8800F700F60A0319F70A03307605FA0000306D
:100F98007705FB007A08FC077B08FD3D7A08F40218
:100FA8007B08F53BFC30F405FF30F505E92F7C089C
:100FB80086007D088700720881000130F402003045
:100FC800F53B0130FC070030FD3D74087504031D36
:100FD800EE2FEF2FDB2F08002000911EF42FF52FA6
:100FE800F02F2300D6019D1CFA2FFB2FFD2F1D1279
:060FF8001D161908080097
:10100000230037088600380887000030011B0130B4
:10101000F50004303706B70000303806B800083055
:1010200021004906031D152816282B2820005208E8
:101030007F393D009600160803191F28202826280E
:101040001030F30073082100C9002B280430F3008E
:1010500073082100C9004703031D2F283028712879
:101060005830F3000030F4002300370886003808B9
:10107000870042317308C03F7408C13F9331E723B2
:101080008831023023006706031D4728482854286A
:10109000370886003808870004308100370886004A
:1010A0003808870081177B287508031D58285928A0
:1010B00065283708860038088700483081003708DF
:1010C00086003808870081177B2837088600380893
:1010D00087000830810037088600380887008117AC
:1010E0007B282300B21F7528762879283508360812
:1010F000B2132100C70108002300C5170E302100DC
:10110000BB009930BA00BC013A0886003B08870052
:1011100081010130BA070030BB3D0130B900390808
:10112000BC0702303C02031C9628972884282030F4
:10113000A5000030A6000030A700A8003030A900AC
:101140000030AA0086315B2688313D000E17210051
:10115000BD013D08CF3E86000130870081013D087A
:10116000CC3E86000130870081010130B90039088A
:10117000BD0703303D02031CBE28BF28A928E93063
:10118000A5000130A6000030A700A8000230A90089
:101190000030AA0086315B2688313D000E132830CE
:1011A0002300B7000030B80020302100B900390812
:1011B000C8004808C500FF39031D0030C6002000E4
:1011C00052082100B90039082300EB006B08031D09
:1011D000EA28EB28F12810302100B9003908C900AD
:1011E000062901302100B3000030B400EB30B50017
:1011F0000130B6000130B7000030B8009D31CD2578
:10120000883120302100B9003908C90008002000C9
:10121000500E890C0339003A03190F291029662949
:1012200092292300C51708302100C0004008C900DA
:1012300092298A31B8228931922988317C208931DA
:101240009229EB302300C3000130C4004514013063
:101250002100C00040082300C600C5179229923122
:101260009622893192298031682089319229200083
:101270005408E93E2300C3000130C4004514013086
:101280002100C00040082300C600C5179229230092
:10129000C517200052082100C00020005408E93E74
:1012A0008600013087002100400881009229023029
:1012B000B3000030B4000030B5000030B60000309C
:1012C000B700B8009D31CD25893192295108210000
:1012D000C000C1014108003A03196F299229400852
:1012E000003A03192F29013A03193329023A031945
:1012F0003329063A03191129033A03191929013A26
:10130000031957290F3A03192129013A03191D29F5
:10131000033A03193729013A03194729073A0319F0
:101320009229922908002300C5170E302000E800FA
:101330009930E700E90167088600680887008101A5
:101340000130E7070030E83D0130E6006608E907B4
:1013500002306902031CAD29AE299B292030F00020
:101360000030F1000030F200F3003030F4000030C3
:10137000F5008731262789313D000E172000EA014C
:101380006A08CF3E86000130870081016A08CC3EA2
:1013900086000130870081010130E6006608EA0717
:1013A00003306A02031CD529D629C029E930F00090
:1013B0000130F1000030F200F3000230F4000030A0
:1013C000F5008731262789313D000E132830230090
:1013D000B7000030B80020302000E6006608210089
:1013E000C8004808C500FF39031D0030C6002000B2
:1013F0005208E60066082300EB006B08031D012A73
:10140000022A092A10302000E60066082100C900DF
:101410001F2A01302000E0000030E100EB30E20044
:101420000130E3000130E4000030E5009D319B25F0
:10143000893120302000E60066082100C90008003C
:1014400008302100A5002508A7000030230047022E
:1014500008300319460203182E2A2F2A4C2A460860
:101460002100A5002508A70023006708031D392ACD
:101470003A2A412A01302100A50025082300E7006F
:101480004C2A6703031D452A462A4C2A02302100B4
:10149000A50025082300E70021002708A500A601D4
:1014A00025082300C602210026082300C73B370871
:1014B000013E2100A50000302300383D2100A60098
:1014C0002508860026088700270881005830A500D7
:1014D00025082300E60045186E2A6F2AB12A8D2AB6
:1014E0002300430884004408850000082100A5006B
:1014F000230066088600870121002508810001304D
:101500002300C3070030C43D01302100A500250899
:101510002300E60701302100A70221002708031D50
:10152000922A932A702AB72A230043088400440889
:10153000850000082100A5002300660886008701B9
:1015400021002508810001302300C3070030C43D7D
:1015500001302100A50025082300E6070130210005
:10156000A70221002708031DB62AB72A942A0800DB
:10157000803020005006031DBE2ABF2A542BC030E5
:101580002100A50025082300C5003F2B9130230032
:10159000C3009830C4000030C7001230C600542B7E
:1015A00020005208031DD52AD62A0E2B52082100EE
:1015B000A500A601A535A60DAD30250784009830FD
:1015C000263D8500003F2300C300013FC4004408BE
:1015D0002100A600230043082100A50002302507B2
:1015E000840026080318260A85000008A70027089B
:1015F0002300C60044082100A60023004308210060
:10160000A50003302507840026080318260A850054
:101610000008A70027082300C700542B2300C5019A
:10162000542B0330200052020318172B182B392B90
:1016300052082100A500A601A535A60DA330250757
:1016400084009830263D8500003F2300C300013F01
:10165000C400430884004408850000082100A50058
:10166000A60125082300C600210026082300C70084
:10167000542B2300C501542B2300C501542B2000FB
:1016800053082100A500A6012608003A0319492B9A
:101690003C2B2508013A0319C62A033A0319D02A1C
:1016A000013A0319112B3C2B08003D000E122300B8
:1016B000C51B5B2B5C2BA42BB21F5F2B602B722BEB
:1016C0000230F50075082100C70023005C08031DE7
:1016D0006A2B6B2B6E2B913101218B312300DE01A4
:1016E000DF01F52B21004508013EF5000030463DA5
:1016F000F6007508860076088700083081005030B3
:10170000F5000030F60045088600460887004231A3
:101710007508C03F7608C13F450886004608870027
:101720000C30810045088600460887008117230099
:1017300037088600380887000430810037088600A3
:10174000380887008117F52B2000D01FA82BA92B64
:10175000C32B0130F50075082100C70023005D0888
:10176000031DB32BB42BB72B913101218B312300F7
:10177000DE01DF016008031DBE2BBF2BF52B94316A
:101780005E248B31F52B0230F50075082100C7006F
:101790004508013EF5000030463DF600750886001C
:1017A00076088700083081005030F5000030F600E0
:1017B000450886004608870042317508C03F760814
:1017C000C13F45088600460887000430810045086F
:1017D00086004608870081172300DE01DF016008CC
:1017E000031DF32BF42BF52BBF2B08003D000E122D
:1017F0002300C51BFC2BFD2B452CB21F002C012CFC
:10180000132C02302100AA002A08C70023005C081C
:10181000031D0B2C0C2C0F2C913162218B312300DA
:10182000DE01DF01962C21004508013EAA000030B0
:10183000463DAB002A0886002B088700083081004F
:101840005030AA000030AB004508860046088700EB
:1018500042312A08C03F2B08C13F45088600460890
:1018600087000C30810045088600460887008117F4
:1018700023003708860038088700043081003708C5
:101880008600380887008117962C2000D01F492C2D
:101890004A2C642C01302100AA002A08C70023002A
:1018A0005D08031D542C552C582C913162218B312D
:1018B0002300DE01DF016008031D5F2C602C962CE5
:1018C0009431D8248B31962C02302100AA002A08AA
:1018D000C7004508013EAA000030463DAB002A087B
:1018E00086002B088700083081005030AA000030A5
:1018F000AB00450886004608870042312A08C03FF1
:101900002B08C13F45088600460887000430810047
:10191000450886004608870081172300DE01DF01A5
:101920006008031D942C952C962C602C08009B318C
:1019300020238C319E31E7268C312500BF01BE016A
:10194000833130238C3123006808031DA82CA92C77
:10195000362D25003F08031DAE2CAF2C082D24008A
:1019600066080319B42CB52C082D9C31E2248C3167
:101970002500BC003C08C0003E080319C02CC12C47
:10198000002DBE01ED2CBF01BF0A082D9B310D2398
:101990008C312400EE01EE0A6E302100A5000230E9
:1019A000A600A701A70A9B3163238C31082D99302B
:1019B000BC003C082400EE006E302100A50002307F
:1019C000A600A701A70A9B3163238C31082DFF30A5
:1019D000BC003C082400EE00DC2C4008BC00BD012B
:1019E0003D08003A0319F52CE72C3C08053A031989
:1019F000C32CAF3A0319D72C113A0319C62CE72C84
:101A000005304006031D052D062DC32CBE01BE0A60
:101A10009A31FB228C31003A03190F2D102D1C2D09
:101A200025003F080319152D162D1C2D40089A314D
:101A3000D5228C312500BF019A31B5228C31003A74
:101A40000319232D242D362D8731F0278C312500C5
:101A5000BC003C082400EE006E302100A5000230DE
:101A6000A600A701A70A9B3163238C319E31AA26C9
:101A70008C31853171258C31A02C803119282100C1
:101A800012113D009301900198010E30F20099303F
:101A9000F100F301710886007208870081010130AE
:101AA000F1070030F23D0130F0007008F30702301A
:101AB0007302031C5C2D5D2D4A2D16303D009100F4
:101AC0009F3097007B309200F4017408F0000130E1
:101AD000F035FF3E031D682D7035203E86008701DE
:101AE0000030C03F0030C13FC23FC33F0130F00073
:101AF0007008F4070C307402031C7F2D802D652DB7
:101B00003D000E1796010E120E13F730F00070080C
:101B100090052300C501B201B301B4013D00901945
:101B2000922D932D852D0130F00070082300DF00E9
:101B30000130F0007008DE00DD01DC01E401F40199
:101B40007435B73E8600013087000030C03FC13F8A
:101B50007435BD3E8600013087000030C03FC13F74
:101B60007408CF3E86000130870081017408CC3EA6
:101B700086000130870081010130F0007008F40711
:101B800003307402031CC52DC62DA02D2830230060
:101B9000B7000030B80016303D009800003020003B
:101BA000A3005030A2000830A1000430F0007008FB
:101BB000A000A0172300EB010030CB000030CA00CA
:101BC0000030C9000030C800DB012100C901080055
:101BD0002100480886008701413FF5007508F200A2
:101BE000F301730823003402031DF82D7208330239
:101BF0000318FB2DFC2D002E3308F2007208F500AF
:101C00007508F200F3017208B3027308B43BF401E3
:101C10001D2E7408583E860087010108F200300826
:101C2000860002308700720881000130F2007208DD
:101C3000B0070130F2007208F40775087402031C43
:101C4000222E232E092E330834040319282E292E80
:101C5000622E21004508013EF2000030463DF300AF
:101C60007208860073088700083081005830F2003F
:101C70000030F300450886004608870042317208AC
:101C8000C03F7308C13F480886008701011B492EE9
:101C90004A2E562E450886004608870048308100A7
:101CA00045088600460887008117932E4508860060
:101CB00046088700083081004508860046088700EE
:101CC0008117932E21004508013EF2000030463D69
:101CD000F3007208860073088700083081005030D6
:101CE000F2000030F30045088600460887004231C4
:101CF0007208C03F7308C13F450886004608870048
:101D000004308100450886004608870081172300BB
:101D100035083608B2136008031D8F2E902E932EBF
:101D200094315E248D310800210012113D00930191
:101D3000900198010E302100A7009930A600A8015B
:101D4000260886002708870081010130A607003099
:101D5000A73D0130A5002508A80702302802031C72
:101D6000B22EB32EA02E16303D0091009F3097006A
:101D70007B3092002100A9012908A5000130A5357A
:101D8000FF3E031DBF2E2535203E86008701003013
:101D9000C03F0030C13FC23FC33F0130A50025080E
:101DA000A9070C302902031CD62ED72EBC2E3D00CD
:101DB0000E1796010E120E13F7302100A50025080C
:101DC0003D0090052300C501B201B301B4013D00FF
:101DD0009019EB2EEC2EDC2E01302100A5002508F9
:101DE0002300DF0001302100A50025082300DE00CC
:101DF000DD01DC01E4012100A9012935B73E86009F
:101E0000013087000030C03FC13F2935BD3E86000C
:101E1000013087000030C03FC13F2908CF3E860017
:101E20000130870081012908CC3E860001308700FF
:101E300081010130A5002508A90703302902031CF0
:101E4000222F232FFD2E28302300B7000030B800AA
:101E500016303D00980000302000A3005030A20052
:101E60000830A10004302100A50025082000A000B2
:101E7000A0172300EB010030CB000030CA00003077
:101E8000C9000030C800DB012100C90108002100A1
:101E9000480886008701413FAA002A08A700A80138
:101EA000280823003402031D592F2100270823008E
:101EB000330203185C2F5D2F622F33082100A70027
:101EC0002708AA0021002A08A700A8012708230044
:101ED000B302210028082300B43B2100A901882F68
:101EE0002908583E860087010108A7002300300812
:101EF0008600023087002100270881000130A700FA
:101F000027082300B00701302100A7002708A907F0
:101F10002A082902031C8D2F8E2F702F23003308CF
:101F200034040319942F952FCE2F21004508013E2C
:101F3000A7000030463DA800270886002808870033
:101F4000083081005830A7000030A80045088600FE
:101F50004608870042312708C03F2808C13F48088B
:101F600086008701011BB52FB62FC22F45088600BA
:101F700046088700483081004508860046088700EB
:101F80008117FF2F4508860046088700083081002A
:101F900045088600460887008117FF2F2100450865
:101FA000013EA7000030463DA8002708860028080B
:101FB0008700083081005030A7000030A800450895
:101FC00086004608870042312708C03F2808C13FE5
:101FD00045088600460887000430810045088600D1
:101FE000460887008117230035083608B2136008B9
:101FF000031DFB2FFC2FFF2F9431D8248F310800B5
:102002002300E701E001DD01DC01E2012100C7015B
:102012007F302000EF002300370886003808870051
:1020220020006F088105043023003706B700003016
:102032003806B8007F302000EF0023003708860002
:102042003808870020006F08810504302300370616
:10205200B70000303806B8007F302000EF002100C2
:10206200450886004608870020006F088105230086
:10207200C501C601C701B201B301B4019531D8252A
:10208200903103302000E0000030E1000030E20037
:102092000030E3000030E400E5009D319B259031E3
:1020A2008B315523903108002D302100A0002008EB
:1020B2002300E10021004A08FD39031D612862283E
:1020C2009E284A363F39A0000130A035FF3E031D4D
:1020D20066282035203EA1002108C8004808C50016
:1020E200FF39031D0030C60004304506C50000302C
:1020F2004606C600480886008701010C890C0F3984
:102102000D3A031D852886289A284808023E860033
:102112008701403FF000413FF1000830F2000030FB
:10212200F30050309D310F259031903101209031D4
:10213200AA289E3136269031AA28FD304A05A000F1
:1021420004302006031DA628A728AA2888310020CB
:10215200903108002D302100C30043082300E10024
:1021620021004A08FD39031DB728B828F4284A3649
:102172003F39C3000130C335FF3E031DBC28433540
:10218200203EC4004408C8004808C500FF39031DAA
:102192000030C60004304506C50000304606C600C1
:1021A200480886008701010C890C0F390D3A031D7E
:1021B200DB28DC28F0284808023E86008701403FE1
:1021C200A500413FA6000830A7000030A80050300B
:1021D2009D313D2590319F31AF27903100299E31AD
:1021E200702690310029FD304A05C30004304306B1
:1021F200031DFC28FD280029953156259031080041
:102202002300DD01DC01023021004706031D0A29FB
:102212000B2930294508013EF3000030463DF40009
:102222007308860074088700083081005830F30074
:102232000030F400450886004608870042317308E2
:10224200C03F7408C13F45088600460887004830F1
:10225200810045088600460887008117612923000E
:10226200470820005702031D3A2923004608200090
:10227200560203183D293E29452957082300C70065
:10228200200056082300C6009331E72391315830CD
:10229200F3000030F4002300370886003808870076
:1022A20042317308C03F7408C13F370886003808BE
:1022B2008700483081003708860038088700811778
:1022C20008002300DD01DC01023021004706031D66
:1022D2006B296C2991294508013EA8000030463D32
:1022E200A900280886002908870008308100583094
:1022F200A8000030A9004508860046088700423140
:102302002808C03F2908C13F4508860046088700C3
:102312004830810045088600460887008117C52994
:102322002300470820005702031D9B29230046086B
:102332002000560203189E299F29A6295708230028
:10234200C700200056082300C6008A31202291319E
:1023520058302100A8000030A90023003708860069
:1023620038088700423121002808C03F2908C13FB0
:102372002300370886003808870048308100370874
:10238200860038088700811708002000D801D9018B
:102392000A2A2300C5176503031DD029D1291E2A45
:1023A2002000D8141E2A2300C5171E2A2300C51791
:1023B2002000D41BDD29DE29EA2954080F39090738
:1023C200BD3E860001308700403FF200413FF300EE
:1023D200F52954080F390907B73E860001308700F6
:1023E200403FF200413FF300720886007308870005
:1023F200811FFC29FD291E2A7208860073088700A6
:10240200011D042A052A1E2A0130F0007008D80096
:102412001E2A50081F39F000F1017108003A031911
:10242200132A1E2A7008003A0319CA29013A03190D
:10243200D429033A0319D7291E2A2300C51F222AA9
:10244200232A2C2A5830C3000030C400451402301D
:10245200F0007008C60008002300DA015408550491
:102462000319342A352A3D2A540886005508870064
:10247200811B3C2A3D2A942A54088600550887006D
:1024820041312100320801020318482A492A542AFC
:1024920023005408860055088700413101082100B5
:1024A200B3003308B2002300DA01762A5A08C03E8C
:1024B200860087012030873D01082100B3002300F8
:1024C2005A082100B400B50134083007B6003508B7
:1024D200313DB7003608860037088700330881008F
:1024E2000130B30033082300DA0721003208230049
:1024F2005A02031C7D2A7E2A572A2100A501C030D8
:10250200A6002030A7004030B3003308A8000230F4
:10251200973175279231210026082300D50021002A
:1025220025082300D4005A0808002000D801D90148
:10253200DD2A2300C5176503031DA02AA12AF22A5A
:102542002000D814F22A2300C517F22A2300C51747
:102552002000D41BAD2AAE2ABB2A54080F39090722
:10256200BD3E860001308700403F2100A700413F69
:10257200A800C72A54080F390907B73E8600013060
:102582008700403F2100A700413FA800270886009E
:1025920028088700811FCE2ACF2AF22A2708860020
:1025A20028088700011DD62AD72AF22A0130A50061
:1025B20025082000D800F22A50081F392100A50062
:1025C200A6012608003A0319E72AF22A2508003A4A
:1025D20003199A2A013A0319A42A033A0319A72ACA
:1025E200F22A2300C51FF62AF72A022B5830C3000D
:1025F2000030C400451402302100A5002508230044
:10260200C6000800200050081F39013A03190A2B9E
:102612000B2B0C2B702B500E890C0339013A03192A
:10262200132B142B152B702B54080319192B1A2B4F
:10263200572B540303191E2B1F2B572B702BB4300F
:102642002300C3000230C4000030C7000830C600B7
:102652004514C517702BB4302300C3000230C400E8
:10266200C517702B57082300B4002000560823001A
:10267200B3006730F0007008B000B501B601B217C0
:10268200702B67302300C3000230C4000030C70043
:102692000730C600C130F0007008C500702B520828
:1026A200F00070082300D700C517702B5108F00006
:1026B200F1017108003A03195F2B702B7008003A80
:1026C2000319202B013A03192C2B213A0319332B1E
:1026D200013A0319422B033A0319502B702B0800BD
:1026E200200050081F39013A0319782B792B7A2BD5
:1026F200E62B500E890C0339013A0319812B822BE8
:10270200832BE62B54080319872B882BCC2B5403DD
:1027120003198C2B8D2BCC2BE62BB4302300C3005A
:102722000230C4000030C7000830C6004514C51787
:10273200E62BB4302300C3000230C400C517E62BD9
:10274200200057082300B400200056082300B300DD
:1027520067302100A50025082300B000B501B601AD
:10276200B217E62B67302300C3000230C4000030EA
:10277200C7000730C600C1302100A500250823008C
:10278200C500E62B200052082100A50025082300E1
:10279200D700C517E62B51082100A500A60126087F
:1027A200003A0319D52BE62B2508003A03198E2B84
:1027B200013A03199A2B213A0319A12B013A031961
:1027C200B32B033A0319C32BE62B08000830F000A1
:1027D2007008F20000302300470208300319460255
:1027E2000318F42BF52B0C2C4608F0007008F200AD
:1027F2006708031DFD2BFE2B032C0130F00070082F
:10280200E7000C2C6703031D072C082C0C2C02304C
:10281200F0007008E7007208F000F1017008C602CB
:102822007108C73B3708013EF0000030383DF10027
:102832007008860071088700720881005830F00025
:102842007008E6004518262C272C582C3D2C4308EE
:102852008400440885000008F000660886008701AD
:10286200700881000130C3070030C43D0130F00020
:102872007008E6070130F2027208031D412C422C57
:10288200282C5D2C43088400440885000008F000D1
:10289200660886008701700881000130C307003096
:1028A200C43D0130F0007008E6070130F202720800
:1028B200031D5C2C5D2C432C080023005F08031DC4
:1028C200632C642CD72C0130F0007008DF005E0806
:1028D200031D6C2C6D2CD72C0130F0007008DE002B
:1028E200023021004706031D772C782C8B2C230005
:1028F2003708860038088700413181013708860091
:102902003808870048308100370886003808870079
:102912008117D72C4703031D8F2C902CD72C230013
:10292200E2010830F0002100480A860087017008A1
:1029320081005030F0000030F1004808023E86006D
:1029420087017008C03F7108C13F0430F000480899
:102952008600870170088100480886008701811778
:102962000130F00070082300E20021004508013E1A
:10297200F0000030463DF1007008860071088700C3
:10298200083081005030F0000030F1004508860028
:102992004608870042317008C03F7108C13F4508B0
:1029A20086004608870080308100D72C080023006B
:1029B2005F08031DDD2CDE2C552D01302100A50002
:1029C20025082300DF005E08031DE82CE92C552DA5
:1029D20001302100A50025082300DE00023021007D
:1029E2004706031DF52CF62C092D23003708860017
:1029F200380887004131810137088600380887008E
:102A02004830810037088600380887008117552D25
:102A12004703031D0D2D0E2D552D2300E201083015
:102A22002100A500480A8600870125088100503050
:102A3200A5000030A6004808023E8600870125084E
:102A4200C03F2608C13F0430A50048088600870120
:102A52002508810048088600870181170130A500FA
:102A620025082300E20021004508013EA5000030B0
:102A7200463DA6002508860026088700083081000A
:102A82005030A5000030A6004508860046088700A1
:102A920042312508C03F2608C13F45088600460846
:102AA200870080308100552D0800230037088600FA
:102AB200380887000030011B01302100AA000430D1
:102AC20023003706B70000303806B800083021006E
:102AD2004906031D6D2D6E2D832D200052087F396E
:102AE2003D00960016080319772D782D7E2D1030A3
:102AF2002100A8002808C900832D04302100A80065
:102B02002808C9004703031D872D882DCD2D583075
:102B1200A8000030A9002300370886003808870083
:102B2200423121002808C03F2908C13F8A312022B2
:102B32009531023023006706031DA02DA12DAD2D76
:102B4200370886003808870004308100370886007D
:102B5200380887008117D72D21002A08031DB22DBE
:102B6200B32DC02D2300370886003808870048306F
:102B7200810037088600380887008117D72D230087
:102B82003708860038088700083081003708860039
:102B9200380887008117D72D2300B21FD12DD22DDF
:102BA200D52D35083608B2132100C70108002000D0
:102BB200500E890C0339003A0319E02DE12D342E11
:102BC2005F2E2300C51708302000ED006D0821009C
:102BD200C9005F2E9631EA2695315F2E8931932105
:102BE20095315F2EEB302300C3000130C400451441
:102BF20001302000ED006D082300C600C5175F2ECE
:102C02009131C62195315F2E8131D52195315F2ECB
:102C12005408E93E2300C3000130C40045140130CA
:102C22002000ED006D082300C600C5175F2E2300AB
:102C3200C51720005208ED005408E93E8600013015
:102C420087006D0881005F2E0230E0000030E10055
:102C52000030E2000030E3000030E400E5009D3186
:102C62009B2595315F2E5108ED00EE016E08003A6A
:102C720003193C2E5F2E6D08003A0319012E013A0A
:102C82000319052E023A0319052E063A0319E22DFD
:102C9200033A0319EB2D013A0319252E0F3A0319B2
:102CA200F32D013A0319EF2D033A0319092E013AC4
:102CB2000319182E073A03195F2E5F2E0800F80039
:102CC20070080319652E662E702E7835B73E860081
:102CD20001308700403FF900413FFA00792E7835F4
:102CE200BD3E860001308700403FF900413FFA00B7
:102CF20079087A04031D7E2E7F2E822EF001F101C7
:102D0200E92EFF307105F4007F307205F500790875
:102D120086007A08870042317408C03F7508C13FB7
:102D22007908013EF40000307A3DF500740886000F
:102D320075088700730881004030F4007908860026
:102D42007A08870074088105790886007A08870066
:102D52008115790886007A0887008117700803199F
:102D6200B32EB42ECD2E7835B73E860001308700C3
:102D7200403FF400413FF50004307406F600003095
:102D82007506F7007835B73E860001308700760871
:102D9200C03F7708C13FE52E7835BD3E8600013041
:102DA2008700403FF400413FF50004307406F6000E
:102DB20000307506F7007835BD3E86000130870089
:102DC2007608C03F7708C13F7A08F1007908F00021
:102DD2000800803020005006031DF02EF12E742FC3
:102DE200C030F00070082300C500602F913023002E
:102DF200C3009830C4000030C7001230C600742FE0
:102E02005208031D052F062F352F5208F000F1013D
:102E1200F035F10DAD30700784009830713D8500BA
:102E2200003F2300C300013FC4004408F1004308EF
:102E3200F00002307007840071080318710A8500DF
:102E42000008F2007208C6004408F1004308F000CE
:102E520003307007840071080318710A85000008A6
:102E6200F2007208C700742F2300C501742F0330CB
:102E7200520203183D2F3E2F5A2F5208F000F10143
:102E8200F035F10DA330700784009830713D850054
:102E9200003F2300C300013FC400430884004408EC
:102EA20085000008F000F1017008C6007108C70033
:102EB200742F2300C501742F2300C501742F200035
:102EC2005308F000F1017108003A0319692F5D2FD0
:102ED2007008013A0319F72E033A0319012F013A38
:102EE2000319382F5D2F08002100AD0025080319B2
:102EF2007B2F7C2F862F2D35B73E86000130870031
:102F0200403FAE00413FAF008F2F2D35BD3E8600C2
:102F120001308700403FAE00413FAF002E082F0432
:102F2200031D942F952F982FA501A601FF2FFF3087
:102F32002605A9007F302705AA002E0886002F0843
:102F4200870042312908C03F2A08C13F2E08013EAE
:102F5200A90000302F3DAA00290886002A08870010
:102F6200280881004030A9002E0886002F0887001B
:102F7200290881052E0886002F08870081152E0852
:102F820086002F088700811725080319C92FCA2F29
:102F9200E32F2D35B73E860001308700403FA90060
:102FA200413FAA0004302906AB0000302A06AC00DB
:102FB2002D35B73E8600013087002B08C03F2C0814
:102FC200C13FFB2F2D35BD3E860001308700403FBB
:102FD200A900413FAA0004302906AB0000302A06AE
:102FE200AC002D35BD3E8600013087002B08C03F66
:102FF2002C08C13F2F08A6002E08A500080009349E
:10300200023443340034023401340034C0343234E4
:1030120009340434003400340134023402340134FB
:10302200003405342434003410340134043424349C
:1030320002340234053424340634003401340534B5
:103042002434013400340134073405348134033428
:103052000A340034023409340434013400340234B2
:103062000A340034003400340734053402340234A4
:10307200403400340034073405348234023440349E
:1030820000340034343403344D34003469340034B1
:1030920063340034723400346F34003463340034E7
:1030A200683400346934003470340034203400341D
:1030B20054340034653400346334003468340034EA
:1030C2006E3400346F3400346C3400346F340034A6
:1030D2006734003479340034203400344934003405
:1030E2006E340034633400342E3400341A34033422
:1030F20050340034723400346F3400346434003499
:1031020075340034633400347434003420340034B1
:103112004E340034613400346D340034653400348C
:1031220012340134003402340234003400340834DE
:10313200D83404340A340034003401340134023403
:1031420000340134A93498344334983477349834B1
:0C3152000434033409340434003498348D
:1035620016302100970008002000110E890C013945
:103572000800210026082500AF00210025082500AB
:10358200AE000800210026082500B300210025080E
:103592002500B2000800210026082500B100210004
:1035A20025082500B00008002100A5002000111EFA
:1035B200DB2ADC2AD72A2100250823009A000800EA
:1035C2006400800101310130FE020030FF3B7F08C0
:1035D2007E04031DE22A00347C3021009900980108
:1035E20027009B012200960121001A1FF92AFA2ABC
:1035F200F52A08002100A5012000111E012B022B33
:103602000A2B23009E1E062B072B0A2B2100A50145
:10361200A50A21002508080021008E1122008E1122
:1036220002302100A6003830A500AD30890B172BDF
:10363200A50B172BA60B172B21008E1508009B310B
:1036420033239B319A31ED229B319A31B1229B3146
:103652008E3194269B319B3180239B319C31672490
:103662009B31080022008C018E01303021008C0039
:103672002F308E00073023008E0010308C00240083
:103682008C012100951722009D01080001302300C2
:10369200C8070030C93D0030CA3D0030CB3D640848
:1036A200031D542B552B622B0130F0007008DB07F1
:1036B2005B08031D5D2B5E2B622BFF30F000700850
:1036C200DB0008002100121123006808031D6A2B89
:1036D2006B2B7D2B210026082400E5002100250804
:1036E2002400E40021002708A80028082300D900AC
:1036F200D801D80AE801E80A2100121508002100C1
:103702004908031D852B862B9D2B3D008E019201BE
:10371200163091009F3097007B30920021001215E5
:10372200932B8E153D008E1D972B982B922B0130DB
:103732002100A5002508C90008003D001215EF3040
:103742002000E60066083D0090058E14013020003E
:10375200E60066082300E400DB0175302000E0008B
:103762000030E1000030E2000030E3000030E4000D
:10377200E5009D319B259B31080001302300C807DD
:103782000030C93D0030CA3D0030CB3D6408031D06
:10379200CB2BCC2BDD2B01302100A50025082300EB
:1037A200DB075B08031DD62BD72BDD2BFF30210057
:1037B200A50025082300DB0008003D001215EF30AC
:1037C2002100B90039083D0090058E140130210016
:1037D200B90039082300E400DB0175302100B30091
:1037E2000030B4000030B5000030B6000030B70041
:1037F200B8009D31CD259B3108002300E4017430CF
:103802002000E0000030E1000030E2000030E30080
:103812000030E400E5009D319B259B313D008E1078
:103822001211192CFB302000E60066083D009005BD
:1038320010191C2C1D2C132C2300DB010800230063
:10384200E40174302100B3000030B4000030B50050
:103852000030B6000030B700B8009D31CD259C3154
:103862003D008E1012113B2CFB302100B9003908AB
:103872003D00900510193E2C3F2C352C2300DB0116
:103882000800FC00771D462C472C4C2CF0017C08CC
:103892009F3126279C31F71C4F2C502C562CF001BF
:1038A200F00A7C089F3126279C317C08983EF8005C
:1038B200F9010E30F93D7808FA007908FB007A0820
:1038C20086007B0887007708810008000830230003
:1038D2009F0090309D0024309E00E1309B00043018
:1038E2009C0000302100A5000030A6009A31C322BE
:1038F2009C3100302100A5000030A6009A31CC2274
:103902009C3100302100A5000030A6009A31BA2275
:103912009C312300D60108002100B1002C1D922CFD
:10392200932C982CA50131089F316A279C312100E4
:10393200AC1C9C2C9D2CA32CA501A50A31089F31FF
:103942006A279C3121003108983EAD00AE010E304D
:10395200AE3D2D08AF002E08B0002F0886003008BB
:1039620087002C08810008003D00181CB92CBA2CD5
:10397200DD2C210048088600870180300106031DE6
:10398200C32CC42CDB2C23003708860038088700A0
:1039920084300106031DCE2CCF2CDB2C0C30F00022
:1039A20021004808860087017008810048088600C7
:1039B200870181173D001810DF30F0007008900574
:1039C2000800270020082100A5002508A600A7015D
:1039D200FC2C2708A13E8600033087000108A500C1
:1039E2002708A03E860003308700250881000130A9
:1039F200A5002508A7072400660821002702031C4A
:103A0200032D042DEA2C240066080319092D0A2D22
:103A12000C2D0130E602210026080800F50071088D
:103A2200F7007008F6007508F4007408F900302DEC
:103A320076088600770887000108F4007408F80009
:103A42000130F6070030F73D7808F4007908860067
:103A52008701740881000130F4007408F90701300D
:103A6200F2020030F33B720A031D3B2D730A031D61
:103A72003B2D3C2D192D08002100AD002608AC007D
:103A82002508AB002D08A9002908AE005F2D2B08E0
:103A920086002C0887000108A9002908AA00013025
:103AA200AB070030AC3D2A08A9002E08860087012A
:103AB200290881000130A9002908AE070130A702B8
:103AC2000030A83B270A031D6A2D280A031D6A2D10
:103AD2006B2D482D08003D00181C702D712D942D62
:103AE200210048088600870180300106031D7A2DD7
:103AF2007B2D922D230037088600380887008430FA
:103B02000106031D852D862D922D0C302100A50066
:103B12004808860087012508810048088600870139
:103B220081173D001810DF302100A50025083D0057
:103B320090050800A42D9D31FF259D31CC2D933198
:103B420003239D31CC2D20006108003A0319AD2DCD
:103B52007F3A0319C72DCC2D6008013A03199C2D19
:103B6200033A0319CC2D013A0319A02D063A031981
:103B7200CC2D773A0319CC2D013A0319CC2D073AF3
:103B82000319CC2D013A0319CC2DCC2D6008FF3A34
:103B92000319CC2DCC2D0800D62D9E31E7269D3160
:103BA200FE2D933171239D31FE2D21003408003A00
:103BB2000319DF2D7F3A0319F92DFE2D3308013A3F
:103BC2000319CE2D033A0319FE2D013A0319D22D02
:103BD200063A0319FE2D773A0319FE2D013A03190D
:103BE200FE2D073A0319FE2D013A0319FE2DFE2D73
:103BF2003308FF3A0319FE2DFE2D08000030240081
:103C0200EA000030E9004B30E8000030E700EB0149
:103C1200EC010830FD007D08ED002300DA011A30C6
:103C2200FD007D08F70001309C3142249D311E3099
:103C3200FD007D08F70002309C3142249D31F001E5
:103C4200C030F1002030F2004030FD007D08F3006A
:103C52000230963160269D3171082300D50070082C
:103C6200D400D201D301E801080002302100470646
:103C7200031D3C2E3D2E412E8D31E8259E316F2EA7
:103C8200C70123006208031D472E482E6E2E210015
:103C92004508013EF6000030463DF70076088600F2
:103CA20077088700083081005030F6000030F700B6
:103CB200450886004608870042317608C03F7708EB
:103CC200C13F45088600460887000C308100450840
:103CD20086004608870081176F2EE2010800023035
:103CE20021004706031D762E772E7B2E8F31472724
:103CF2009E31A92EC70123006208031D812E822E48
:103D0200A82E21004508013EAB000030463DAC0024
:103D12002B0886002C088700083081005030AB0049
:103D22000030AC00450886004608870042312B0867
:103D3200C03F2C08C13F45088600460887000C306A
:103D4200810045088600460887008117A92EE201F6
:103D5200080020302100B0000230B1004030B8002D
:103D62003808B20092312D229E312100B900390863
:103D72002400E000E101DA2E6108203E86000230D4
:103D8200870001082100B800A03024006607210046
:103D9200B9002400610821003907BA003A088600F8
:103DA20003308700380881000130B8003808240049
:103DB200E10760086102031CDF2EE02EBD2E6008C1
:103DC2002100B80038082400E6070800003024006B
:103DD200EA000030E9004B30E8000030E700EB0178
:103DE200EC0108302100B20032082400ED0023006B
:103DF200DA011A302100B2003208AC0001309C31E5
:103E02008D249E311E302100B2003208AC000230F7
:103E12009C318D249E312100A501C030A6002030A6
:103E2200A7004030B2003208A8000230973175274F
:103E32009E31210026082300D500210025082300F9
:103E4200D400D201D301E8010800F5002030F100CE
:103E52007108F6007008F1000130F135890B2E2F40
:103E62007508F2000130F235FF3E031D342F723522
:103E72007107F3000130F335FF3E031D3C2F73350C
:103E8200F4007408F607760886008701811370082B
:103E9200031D4C2F4D2F572F7535BD3E8600013027
:103EA20087007608C03F0030C13F602F7535B73EAE
:103EB2008600013087007608C03F0030C13F760897
:103EC2008600870101137608043E860087010117E8
:103ED20008002100AA002030A6002608AB00250811
:103EE200A6000130A635890B732F2A08A7000130DE
:103EF200A735FF3E031D792F27352607A80001307D
:103F0200A835FF3E031D812F2835A9002908AB07DC
:103F12002B088600870181132508031D912F922FFC
:103F22009C2F2A35BD3E8600013087002B08C03FFA
:103F32000030C13FA52F2A35B73E860001308700E9
:103F42002B08C03F0030C13F2B08860087010113B8
:103F52002B08043E86008701011708002300E701B1
:103F6200E001DD01DC01E2012100C7017F30C20076
:103F7200230037088600380887002100420881059F
:103F8200043023003706B70000303806B8007F300F
:103F92002100C2002300370886003808870021006C
:103FA20042088105043023003706B7000030380686
:103FB200B8007F302100C20045088600460887000D
:103FC200420881052300C501C601C701B201B30140
:103FD200B401893107219F3103302100B300003041
:103FE200B4000030B5000030B6000030B700B800B1
:0E3FF2009D31CD259F318B31F6239F31080084
:020000040001F9
:04000E00E43FCF3FBD
:00000001FF
