:020000040000FA
:04000000803119280A
:100008007E1480310B1F09280A2817282100121D89
:100018000E280F2817282000121D13281428172827
:1000280084317A2480317E10090080311B288A307F
:1000380084009A30850059308600023087000030ED
:10004800FF000B309A31AD2280312100C501C60175
:10005800C701C801C901CA01B03084000130850058
:100068004030FE000030FF009A31A122803120305C
:100078008400023085003930FE000030FF009A31DC
:10008800A1228031A0308400023085004030FE007B
:100098000030FF009A31A1228031203084000330E3
:1000A80085004030FE000030FF009A31A1228031E7
:1000B800A0308400033085004030FE000030FF008F
:1000C8009A31A122803120308400043085004030EC
:1000D800FE000030FF009A31A1228031A030840058
:1000E800043085004030FE000030FF009A31A12224
:1000F800803120308400053085004030FE0000301B
:10010800FF009A31A12280317E1020008C317B2C97
:1001180020005203031D91289228AB2850081F394C
:10012800003A031D98289928AB282300C5170330E7
:1001380020005106031DA128A228A928013021006A
:10014800B90039082300E900AB282300E9012000A1
:100158005208031DB028B128F82950081F39023A5F
:10016800031DB728B828F82954080F39003A03198D
:10017800BE28BF28F82954080F392100B9000330D8
:1001880039020318C828C928F82920304906031D50
:10019800CE28CF28F8292300C5172000D41BD5283E
:1001A800D628EF2854080F390907BD3E86000130CC
:1001B8008700403F2100BE00413FBF002000540897
:1001C8000F39CC3E86000130870001082100B900B4
:1001D8003908BD00072954080F390907B73E8600BA
:1001E80001308700403F2100BE00413FBF00200092
:1001F80054080F39CF3E86000130870001082100DE
:10020800B9003908BD003D180A290B291629FB3009
:10021800B900FF30BA003E083905BE003F083A056C
:10022800BF001C2904303E04BE0000303F04BF005C
:100238002000D41B202921292E2954080F39090709
:10024800BD3E86000130870021003E08C03F3F08C0
:10025800C13F3A2954080F390907B73E86000130D3
:10026800870021003E08C03F3F08C13F03302000FF
:100278005106031D402941296A2921003E088600AC
:100288003F088700811F49294A295E292000D41B7D
:100298004E294F29572954080F39CC3E8600013082
:1002A800870081145E2954080F39CF3E860001303B
:1002B8008700811421003E0886003F088700011549
:1002C8003E0886003F0887008117F829043021007E
:1002D8003E06BE0000303F06BF003E0886003F08CD
:1002E8008700811F7829792996297F30B9003E082F
:1002F80086003F088700390881053E0886003F08C8
:10030800870001170530B3000030B4003F08B6007D
:100318003E08B5000230B7000030B8009D3179259D
:1003280080319B293E0886003F088700011704306A
:1003380021003E06BE0000303F06BF00BD18A529BB
:10034800A629AE293E0886003F088700811FAD29EF
:10035800AE29DB292000D41BB229B329BB295408B4
:100368000F39CC3E8600013087008110C22954081D
:100378000F39CF3E86000130870081103B302100C5
:10038800B9003E0886003F08870039088105053016
:10039800B3000030B4003F08B6003E08B500023094
:1003A800B7000030B8009D3179258031E3293B3012
:1003B800B9003E0886003F088700390881052000FB
:1003C80054080F39983E2100B900BA010E30BA3DE1
:1003D8003908BB003A08BC00FE30B9003B0886006B
:1003E8003C08870039088105080020005203031DD6
:1003F800FE29FF29172A50081F39003A031D052A2C
:10040800062A172A2300C517033020005106031DAA
:100418000E2A0F2A152A0130E60066082300E90093
:10042800172A2300E90120005208031D1C2A1D2A4F
:10043800532B50081F39023A031D232A242A532B11
:1004480054080F39003A03192A2A2B2A532B540827
:100458000F39E600033066020318332A342A532B77
:10046800203021004906031D3A2A3B2A532B23003A
:10047800C5172000D41B412A422A582A54080F398C
:100488000907BD3E860001308700403FEB00413F31
:10049800EC0054080F39CC3E860001308700010873
:1004A800E6006608EA006D2A54080F390907B73EC6
:1004B800860001308700403FEB00413FEC005408C4
:1004C8000F39CF3E8600013087000108E600660834
:1004D800EA006A18702A712A7C2AFB30E600FF308D
:1004E800E7006B086605EB006C086705EC00822ADC
:1004F80004306B04EB0000306C04EC00D41B852A3C
:10050800862A922A54080F390907BD3E8600013011
:1005180087006B08C03F6C08C13F9D2A54080F39FB
:100528000907B73E8600013087006B08C03F6C089A
:10053800C13F03305106031DA22AA32AC92A6B080A
:1005480086006C088700811FAA2AAB2ABE2AD41B02
:10055800AE2AAF2AB72A54080F39CC3E860001309C
:1005680087008114BE2A54080F39CF3E8600013017
:10057800870081146B0886006C08870001156B08DA
:1005880086006C0887008117532B04306B06EB003C
:1005980000306C06EC006B0886006C088700811F31
:1005A800D62AD72AF42A7F30E6006B0886006C0822
:1005B8008700660881056B0886006C0887000117AC
:1005C8000530E0000030E1006C08E3006B08E20051
:1005D8000230E4000030E5009D3147258131F92AD9
:1005E8006B0886006C0887000117043020006B0632
:1005F800EB0000306C06EC00EA18032B042B0C2BE4
:100608006B0886006C088700811F0B2B0C2B372B7F
:10061800D41B0F2B102B182B54080F39CC3E8600F7
:100628000130870081101F2B54080F39CF3E8600F8
:100638000130870081103B30E6006B0886006C08AB
:100648008700660881050530E0000030E1006C088D
:10065800E3006B08E2000230E4000030E5009D3161
:10066800472581313F2B3B30E6006B0886006C083C
:10067800870066088105200054080F39983EE60077
:10068800E7010E30E73D6608E8006708E900FE303C
:10069800E600680886006908870066088105080082
:1006A80021004903031D592B5A2B682B3D008E1A34
:1006B8005E2B5F2B682B9001121412160230240057
:1006C800E40064082100C9003D00101D6C2B6D2B4F
:1006D8007A2B121D702B712B7A2BFB302400E4002F
:1006E80064083D0090059B31FB2383313D008E1C3F
:1006F8007E2B7F2B822B20001211792C101C852B2E
:10070800862B9B2B121C892B8A2B9B2B8D31CA2560
:1007180083312100121504302400E400640821000C
:10072800C900FE302400E40064083D009005101E56
:100738009E2B9F2BA62B121EA22BA32BA62B9B31E5
:10074800B92383313D00101FAA2BAB2BD82B121FC6
:10075800AE2BAF2BBF2B73302100B3000030B40099
:100768000030B5000030B6000130B7000030B800E6
:100778009D3179258331BF302400E40064083D00B1
:1007880090059B3199238331230065080319CD2BEC
:10079800CE2BD02B0130E5026508031DD42BD52BB9
:1007A800D82B9431D82483313D00901EDC2BDD2BCF
:1007B800E42B921EE02BE12BE42B903100208331B7
:1007C8003D00901CE82BE92BFF2B921CEC2BED2B0A
:1007D800FF2BFF302100B3007F30B4000030B5009C
:1007E8000030B6000130B7000030B8009D317925DF
:1007F80083313D0093010430210049020318052C80
:10080800062C092C20001211792C3D00921D0D2C6C
:100818000E2C772C2400E6013D00901D142C152C7D
:10082800772C0F082400E40064082100CA004A0C51
:100838002400E400E40C640C0F39E500650823008B
:10084800E700F7302400E40064083D00900521002B
:100858004A192F2C302C422C23006708CC3E8600E6
:1008680001308700010801392400E4000130E40662
:1008780001086406FE3964068100532C23006708CA
:10088800CF3E860001308700010801392400E400CA
:100898000130E40601086406FE396406810023007D
:1008A8006708031D582C592C5D2C88310A20833188
:1008B8006C2C72302100B3000030B400CA30B5008F
:1008C8000030B6000030B700B8009D31792583317B
:1008D80001302400E4006408E60704306602031CC3
:1008E800762C772C102C20001211080021004903C7
:1008F800031D7F2C802C8D2C3D008E1A842C852C7A
:100908008D2C90011214121602302100A200220828
:10091800C9003D00101D912C922C9F2C121D952C66
:10092800962C9F2CFB302100A20022083D00900548
:100938009B31D92384313D008E1CA32CA42CA72CD9
:1009480020001211992D101CAA2CAB2CBD2C121CA6
:10095800AE2CAF2CBD2C8D312125843121001215F0
:100968000430A2002208C900FE30A20022083D007F
:100978009005101EC02CC12CC82C121EC42CC52CCE
:10098800C82C9B31792384313D00101FCC2CCD2CF1
:10099800FA2C121FD02CD12CE12C73302000E0004F
:1009A8000030E1000030E2000030E3000130E400F4
:1009B8000030E5009D3147258431BF302100A20079
:1009C80022083D0090059B312223843123006508CD
:1009D8000319EF2CF02CF22C0130E5026508031DF9
:1009E800F62CF72CFA2C9331E22384313D00901E2B
:1009F800FE2CFF2C062D921E022D032D062D9C3158
:100A0800902484313D00901C0A2D0B2D212D921C21
:100A18000E2D0F2D212DFF302000E0007F30E1004A
:100A28000030E2000030E3000130E4000030E5006F
:100A38009D31472584313D0093010430210049024E
:100A48000318272D282D2B2D20001211992D3D003C
:100A5800921D2F2D302D972D2100A4013D00901DB2
:100A6800362D372D972D0F082100A2002208CA0025
:100A78004A0CA200A20C220C0F39A3002308230061
:100A8800E700F7302100A20022083D009005210070
:100A98004A194F2D502D622D23006708CC3E860041
:100AA80001308700010801392100A2000130A206A7
:100AB80001082206FE3922068100732D23006708EB
:100AC800CF3E860001308700010801392100A200CD
:100AD8000130A20601082206FE3922068100230001
:100AE8006708031D782D792D7D2D90312F208431B5
:100AF8008C2D72302000E0000030E100CA30E200A6
:100B08000030E3000030E400E5009D3147258431E2
:100B180001302100A2002208A40704302402031C8B
:100B2800962D972D322D2000121108002100121148
:100B38002300520853040319A22DA32DAE2D5208E9
:100B4800860053088700811FAA2DAB2DAE2D2100EA
:100B58001215832E03306C06031DB32DB42DB52D4D
:100B6800EC016C08031DB92DBA2DBD2D21001215FD
:100B7800832E02306C06031DC22DC32DDE2D2100ED
:100B8800A501A50A0030A6000030A700A801023080
:100B9800973175278531210026082300D3002100CD
:100BA80025082300D20003302100B00030082300BC
:100BB800EC00812E6C03031DE22DE32D812E4130C4
:100BC8005D02031CE82DE92DEF2D40302100B00017
:100BD8003008B200F42D5D082100B0003008B200E2
:100BE800320823005D022100B00030082300DD0038
:100BF80020302400B9008030B80021003208B0004D
:100C08003008B10023005C08031D0B2E0C2E4C2E5F
:100C1800292E24003A0886003B0887000108210095
:100C2800B000240038088600390887002100300801
:100C3800810001302400B8070030B93D0130BA07FF
:100C48000030BB3D01302100B10221003108031DF5
:100C58002E2E2F2E0D2E522E24003A0886003B08E9
:100C6800870001082100B0002400380886003908F0
:100C7800870021003008810001302400B8070030C7
:100C8800B93D0130BA070030BB3D01302100B10247
:100C980021003108031D512E522E302E23005D08ED
:100CA800031D572E582E6A2E403021003206031D90
:100CB8005E2E5F2E652E0230B00030082300EC0057
:100CC8006A2E0330B00030082300EC002100A50193
:100CD800A50A8030A6002030A7003208B0003008EE
:100CE800A800023097317527853121002608230096
:100CF800D300210025082300D20021001215080086
:100D080021002608B2002508B10029082A04031D7D
:100D18008E2E8F2E902E4E2F310886003208870097
:100D28002708810029083107AB002A08323DAC00AA
:100D38002B08FF3EAD00FF302C3DAE002D0886008D
:100D48002E0887002708810000302A020330031983
:100D580029020318B02EB12EB22E4E2F3108013EB3
:100D6800AB000030323DAC002B0886002C08870011
:100D7800270881003108023EAB000030323DAC004C
:100D88002B0886002C0887002708810029083107CE
:100D9800AB002A08323DAC002B08FE3EAD00FF3008
:100DA8002C3DAE002D0886002E08870027088100FC
:100DB80029083107AB002A08323DAC002B08FD3E5C
:100DC800AD00FF302C3DAE002D0886002E088700B0
:100DD8002708810000302A02073003192902031866
:100DE800F62EF72EF82E4E2F3108033EAB000030BA
:100DF800323DAC002B0886002C08870027088100AC
:100E080029083107AB002A08323DAC002B08FC3E0C
:100E1800AD00FF302C3DAE002D0886002E0887005F
:100E28002708810000302A02093003192902031813
:100E38001E2F1F2F202F4E2F3109AB003209AC0077
:100E4800AB0A0319AC0A03302B05AF0000302C05A0
:100E5800B0002F08B1073008B23D2F08A9023008AA
:100E6800AA3BFC30A905FF30AA05482F31088600A7
:100E780032088700270881000130A9020030AA3B08
:100E88000130B1070030B23D29082A04031D4D2F57
:100E98004E2F3A2F08002100480886008701413F5D
:100EA800F5007508F200F301730823003402031DEE
:100EB8005F2F720833020318622F632F672F3308DE
:100EC800F2007208F5007508F200F3017208B30227
:100ED8007308B43BF401842F7408583E86008701D8
:100EE8000108F2003008860002308700720881008D
:100EF8000130F2007208B0070130F2007208F407FE
:100F080075087402031C892F8A2F702F3308340444
:100F180003198F2F902FC92F21004508013EF20099
:100F28000030463DF30072088600730887000830D9
:100F380081005830F2000030F3004508860046086A
:100F4800870042317208C03F7308C13F48088600D5
:100F58008701011BB02FB12FBD2F45088600460819
:100F680087004830810045088600460887008117B9
:100F7800FA2F450886004608870008308100450892
:100F88008600460887008117FA2F21004508013E90
:100F9800F2000030463DF3007208860073088700AF
:100FA800083081005030F2000030F3004508860018
:100FB8004608870042317208C03F7308C13F4508A0
:100FC80086004608870004308100450886004608E8
:100FD80087008117230035083608B2136408031DFB
:100FE800F62FF72FFA2F9331E223873108002000DC
:080FF800110E890C01390800FB
:10100200210026082400B500210025082400B40090
:1010120008002D302100C30043082300E500210011
:101022004A08FD39031D1628172853284A363F3926
:10103200C3000130C335FF3E031D1B284335203E4C
:10104200C4004408C8004808C500FF39031D003029
:10105200C60004304506C50000304606C6004808F2
:1010620086008701010C890C0F390D3A031D3A28BD
:101072003B284F284808023E86008701403FA500D2
:10108200413FA6000830A7000030A80050309D3133
:10109200182588319F315B2788315F289E311C26B5
:1010A20088315F28FD304A05C30004304306031D22
:1010B2005B285C285F28953156258831080023007B
:1010C200C5170E302100BB009930BA00BC013A08A6
:1010D20086003B08870081010130BA070030BB3D22
:1010E2000130B9003908BC0702303C02031C7A28DF
:1010F2007B2868282030A5000030A6000030A70019
:10110200A8003030A9000030AA0086318426883138
:101112003D000E172100BD013D08CF3E8600013083
:10112200870081013D08CC3E8600013087008101A5
:101132000130B9003908BD0703303D02031CA22863
:10114200A3288D28ED30A5000130A6000030A700AD
:10115200A8000230A9000030AA0086318426883116
:101162003D000E1328302300B7000030B8002030B5
:101172002100B9003908C8004808C500FF39031D1D
:101182000030C600200052082100B90039082300AF
:10119200EF006F08031DCE28CF28D528103021007C
:1011A200B9003908C900EA2801302100B300003033
:1011B200B400EF30B5000130B6000130B7000030A6
:1011C200B8009D317925883120302100B9003908D5
:1011D200C90008002000500E890C0339003A031997
:1011E200F328F4284A2976292300C517083021005C
:1011F200C0004008C90076298A319C2288317629AC
:101202008831602088317629EF302300C300013015
:10121200C400451401302100C00040082300C6006C
:10122200C517762992311A228831762980318C208D
:101232008831762920005408ED3E2300C300013096
:10124200C400451401302100C00040082300C6003C
:10125200C51776292300C517200052082100C000B7
:1012620020005408ED3E860001308700210040082E
:10127200810076290230B3000030B4000030B5009E
:101282000030B6000030B700B8009D3179258831B2
:10129200762951082100C000C1014108003A031912
:1012A200532976294008003A03191329013A0319F0
:1012B2001729023A03191729063A0319F528033A9E
:1012C2000319FD28013A03193B290F3A031905298D
:1012D200013A03190129033A03191B29013A031997
:1012E2002B29073A03197629762908002300C51706
:1012F2000E302000E8009930E700E9016708860017
:101302006808870081010130E7070030E83D0130BD
:10131200E6006608E90702306902031C9129922956
:101322007F292030F0000030F1000030F200F3009D
:101332003030F4000030F5008F31362789313D001E
:101342000E172000EA016A08CF3E860001308700AE
:1013520081016A08CC3E860001308700810101309C
:10136200E6006608EA0703306A02031CB929BA29B3
:10137200A429ED30F0000130F1000030F200F3005A
:101382000230F4000030F5008F31362789313D00FC
:101392000E1328302300B7000030B80020302000A0
:1013A200E60066082100C8004808C500FF39031D91
:1013B2000030C60020005208E60066082300EF0055
:1013C2006F08031DE529E629ED2910302000E6000B
:1013D20066082100C900032A01302000E000003025
:1013E200E100EF30E2000130E3000130E4000030C0
:1013F200E5009D314725893120302000E60066084E
:101402002100C900080008302100A5002508A70016
:101412000030230047020830031946020318122A3B
:10142200132A302A46082100A5002508A700230018
:101432006B08031D1D2A1E2A252A01302100A50042
:1014420025082300EB00302A6B03031D292A2A2AD0
:10145200302A02302100A50025082300EB002100DC
:101462002708A500A60125082300C6022100260898
:101472002300C73B3708013E2100A50000302300AE
:10148200383D2100A6002508860026088700270887
:1014920081005830A50025082300EA004518522A89
:1014A200532A952A712A23004308840044088500A0
:1014B20000082100A50023006A0886008701210098
:1014C2002508810001302300C3070030C43D0130EC
:1014D2002100A50025082300EA0701302100A70208
:1014E20021002708031D762A772A542A9B2A2300E3
:1014F200430884004408850000082100A500230059
:101502006A08860087012100250881000130230036
:10151200C3070030C43D01302100A5002508230087
:10152200EA0701302100A70221002708031D9A2A99
:101532009B2A782A0800803020005006031DA22A28
:10154200A32A382BC0302100A50025082300C5009E
:10155200232B91302300C3009830C4000030C70011
:101562001230C600382B20005208031DB92ABA2AAD
:10157200F22A52082100A500A601A535A60DAD301C
:10158200250784009830263D8500003F2300C300D4
:10159200013FC40044082100A600230043082100A3
:1015A200A50002302507840026080318260A8500B4
:1015B2000008A70027082300C60044082100A6004F
:1015C200230043082100A5000330250784002608D4
:1015D2000318260A85000008A70027082300C70071
:1015E200382B2300C501382B033020005202031888
:1015F200FB2AFC2A1D2B52082100A500A601A535B5
:10160200A60DA330250784009830263D8500003FB3
:101612002300C300013FC40043088400440885003E
:1016220000082100A500A60125082300C60021000C
:1016320026082300C700382B2300C501382B2300BE
:10164200C501382B200053082100A500A601260859
:10165200003A03192D2B202B2508013A0319AA2A37
:10166200033A0319B42A013A0319F52A202B080078
:101672003D000E122300C51B3F2B402B882BB21FAF
:10168200432B442B562B0230F50075082100C7006E
:1016920023006008031D4E2B4F2B522B90318520C7
:1016A2008B312300E201E301D92B21004508013EE1
:1016B200F5000030463DF600750886007608870082
:1016C200083081005030F5000030F60045088600F1
:1016D2004608870042317508C03F7608C13F450879
:1016E2008600460887000C308100450886004608BF
:1016F20087008117230037088600380887000430E6
:10170200810037088600380887008117D92B20000E
:10171200D01F8C2B8D2BA72B0130F50075082100D3
:10172200C70023006108031D972B982B9B2B903138
:1017320085208B312300E201E3016408031DA22B03
:10174200A32BD92B9331E2238B31D92B0230F50015
:1017520075082100C7004508013EF5000030463DEE
:10176200F600750886007608870008308100503040
:10177200F5000030F6004508860046088700423131
:101782007508C03F7608C13F4508860046088700B5
:10179200043081004508860046088700811723002F
:1017A200E201E3016408031DD72BD82BD92BA32B0D
:1017B20008003D000E122300C51BE02BE12B292C53
:1017C200B21FE42BE52BF72B02302100AA002A08D6
:1017D200C70023006008031DEF2BF02BF32B903181
:1017E200E6208B312300E201E3017A2C2100450837
:1017F200013EAA000030463DAB002A0886002B08B5
:101802008700083081005030AA000030AB00450844
:1018120086004608870042312A08C03F2B08C13F94
:1018220045088600460887000C308100450886007E
:10183200460887008117230037088600380887008A
:1018420004308100370886003808870081177A2C17
:101852002000D01F2D2C2E2C482C01302100AA0054
:101862002A08C70023006108031D382C392C3C2CA0
:101872009031E6208B312300E201E3016408031D6D
:10188200432C442C7A2C9431D8248B317A2C02307C
:101892002100AA002A08C7004508013EAA0000301C
:1018A200463DAB002A0886002B08870008308100DD
:1018B2005030AA000030AB00450886004608870079
:1018C20042312A08C03F2B08C13F4508860046081E
:1018D200870004308100450886004608870081178A
:1018E2002300E201E3016408031D782C792C7A2C91
:1018F200442C08009A31FA228C319E3193268C3185
:10190200833154238C3123006C08031D892C8A2CCB
:10191200182D5808031D8E2C8F2CEA2C59080319F8
:10192200932C942CEA2C9C31BD248C312400E700AA
:1019320067082300DA0057080319A02CA12CE22C17
:10194200D701CE2C2300D801D80AEA2C9A31D7220B
:101952008C312700A001A00AA0302100A50003308D
:10196200A600A701A70A9B313E238C31EA2C9930AD
:10197200E70067082700A000A0302100A50003307F
:10198200A600A701A70A9B313E238C31EA2CFF3027
:10199200E70067082700A000BD2C5A082400E700D2
:1019A200E8016808003A0319D72CC82C6708053AE1
:1019B2000319A32CAF3A0319B82C113A0319A72C17
:1019C200C82C05305A06031DE72CE82CA32CD7019E
:1019D200D70A9A31E8228C31003A0319F12CF22C01
:1019E200FE2C230058080319F72CF82CFE2C5A0859
:1019F2009A3195228C312300D8018731FB278C3113
:101A0200003A0319052D062D182D9A31C7228C3163
:101A12002400E70067082700A000A0302100A500ED
:101A22000330A600A701A70A9B313E238C319E31C9
:101A320056268C3185319A258C31812C803119289A
:101A4200210012113D009301900198010E30F20025
:101A52009930F100F3017108860072088700810154
:101A62000130F1070030F23D0130F0007008F30759
:101A720002307302031C3E2D3F2D2C2D16303D00EB
:101A820091009F3097007B309200F4017408F000BF
:101A92000130F035FF3E031D4A2D7035203E860091
:101AA20087010030C03F0030C13FC23FC33F013019
:101AB200F0007008F4070C307402031C612D622DD3
:101AC200472D3D000E1796010E120E13F730F0004F
:101AD200700890052300C501B201B301B4013D00B5
:101AE2009019742D752D672D0130F00070082300B8
:101AF200E3000130F0007008E200E101E001E801DA
:101B0200F4017435B73E8600013087000030C03FD3
:101B1200C13F7435BD3E8600013087000030C03FB2
:101B2200C13F7408CF3E86000130870081017408EE
:101B3200CC3E86000130870081010130F000700840
:101B4200F40703307402031CA72DA82D822D283020
:101B52002300B7000030B80016303D009800003076
:101B62002000A3005030A2000830A1000430F00091
:101B72007008A000A0172300EF010030CB00003056
:101B8200CA000030C9000030C800DF012100C901CD
:101B92000800210012113D009301900198010E30BE
:101BA2002100A7009930A600A80126088600270870
:101BB200870081010130A6070030A73D0130A50052
:101BC2002508A80702302802031CE82DE92DD62D8E
:101BD20016303D0091009F3097007B30920021002B
:101BE200A9012908A5000130A535FF3E031DF52DE9
:101BF2002535203E860087010030C03F0030C13FBE
:101C0200C23FC33F0130A5002508A9070C302902B5
:101C1200031C0C2E0D2EF22D3D000E1796010E12F6
:101C22000E13F7302100A50025083D009005230082
:101C3200C501B201B301B4013D009019212E222E3B
:101C4200122E01302100A50025082300E3000130F7
:101C52002100A50025082300E200E101E001E801DE
:101C62002100A9012935B73E8600013087000030E6
:101C7200C03FC13F2935BD3E86000130870000309C
:101C8200C03FC13F2908CF3E860001308700810155
:101C92002908CC3E86000130870081010130A50071
:101CA2002508A90703302902031C582E592E332E6A
:101CB20028302300B7000030B80016303D009800ED
:101CC20000302000A3005030A2000830A1000430F0
:101CD2002100A50025082000A000A0172300EF0185
:101CE2000030CB000030CA000030C9000030C8000C
:101CF200DF012100C9010800210048088600870190
:101D0200413FAA002A08A700A8012808230034029C
:101D1200031D8F2E21002708230033020318922E61
:101D2200932E982E33082100A7002708AA0021002D
:101D32002A08A700A80127082300B30221002808C7
:101D42002300B43B2100A901BE2E2908583E86007B
:101D520087010108A70023003008860002308700AF
:101D62002100270881000130A70027082300B007BF
:101D720001302100A7002708A9072A082902031C0D
:101D8200C32EC42EA62E2300330834040319CA2EF0
:101D9200CB2E042F21004508013EA7000030463D0E
:101DA200A8002708860028088700083081005830DC
:101DB200A7000030A8004508860046088700423187
:101DC2002708C03F2808C13F480886008701011B39
:101DD200EB2EEC2EF82E4508860046088700483088
:101DE200810045088600460887008117352F45087F
:101DF20086004608870008308100450886004608AC
:101E020087008117352F21004508013EA7000030C9
:101E1200463DA80027088600280887000830810070
:101E22005030A7000030A800450886004608870009
:101E320042312708C03F2808C13F450886004608AE
:101E42008700043081004508860046088700811714
:101E5200230035083608B2136408031D312F322FD0
:101E6200352F9431D8248E3108007108FD00700896
:101E7200FC0074087504031D3F2F402F412FFF2FD4
:101E82007C0886007D0887007208810074087C0740
:101E9200F60075087D3DF7007608FF3EF800FF303A
:101EA200773DF9007808860079088700720881007A
:101EB200003075020330031974020318612F622F78
:101EC200632FFF2F7C08013EF60000307D3DF700B6
:101ED2007608860077088700720881007C08023E37
:101EE200F60000307D3DF70076088600770887000F
:101EF2007208810074087C07F60075087D3DF700C2
:101F02007608FE3EF800FF30773DF900780886003B
:101F1200790887007208810074087C07F60075084A
:101F22007D3DF7007608FD3EF800FF30773DF90071
:101F320078088600790887007208810000307502EF
:101F42000730031974020318A72FA82FA92FFF2FF8
:101F52007C08033EF60000307D3DF70076088600DF
:101F6200770887007208810074087C07F6007508FC
:101F72007D3DF7007608FC3EF800FF30773DF90022
:101F8200780886007908870072088100003075029F
:101F92000930031974020318CF2FD02FD12FFF2F2E
:101FA2007C09F6007D09F700F60A0319F70A0330E7
:101FB2007605FA0000307705FB007A08FC077B08FB
:101FC200FD3D7A08F4027B08F53BFC30F405FF3056
:101FD200F505F92F7C0886007D08870072088100CC
:101FE2000130F4020030F53B0130FC070030FD3DCA
:101FF20074087504031DFE2FFF2FEB2F08003D0010
:10200200181C042805282828210048088600870172
:1020120080300106031D0E280F28262823003708CA
:1020220086003808870084300106031D19281A2803
:1020320026280C302100A5004808860087012508C3
:10204200810048088600870181173D001810DF30A3
:102052002100A50025083D00900508002D30210033
:10206200A00020082300E50021004A08FD39031DD5
:102072003B283C2878284A363F39A0000130A03559
:10208200FF3E031D40282035203EA1002108C80044
:102092004808C500FF39031D0030C600043045065C
:1020A200C50000304606C600480886008701010CBC
:1020B200890C0F390D3A031D5F28602874284808DF
:1020C200023E86008701403FF000413FF1000830A8
:1020D200F2000030F30050309C31EA2490319F31FD
:1020E200AC27903184289D31E22590318428FD303F
:1020F2004A05A00004302006031D80288128842878
:1021020094315C24903108002300E101E0010230A7
:1021120021004706031D8E288F28B4284508013E5A
:10212200F3000030463DF40073088600740887000F
:10213200083081005830F3000030F4004508860072
:102142004608870042317308C03F7408C13F450802
:102152008600460887004830810045088600460808
:1021620087008117E5282300470820005702031D36
:10217200BE2823004608200056020318C128C228A0
:10218200C92857082300C700200056082300C600AC
:1021920093316B2390315830F3000030F400230068
:1021A200370886003808870042317308C03F740838
:1021B200C13F370886003808870048308100370859
:1021C200860038088700811708002300E101E0013A
:1021D200023021004706031DEF28F0281529450883
:1021E200013EA8000030463DA900280886002908C3
:1021F2008700083081005830A8000030A900450847
:1022020086004608870042312808C03F2908C13F9E
:102212004508860046088700483081004508860048
:1022220046088700811749292300470820005702E2
:10223200031D1F29230046082000560203182229E5
:1022420023292A2957082300C70020005608230003
:10225200C6008A310422903158302100A800003093
:10226200A900230037088600380887004231210080
:102272002808C03F2908C13F2300370886003808D4
:1022820087004830810037088600380887008117A8
:1022920008002000D801D9018E292300C51769033F
:1022A200031D54295529A2292000D814A22923004C
:1022B200C517A2292300C5172000D41B6129622952
:1022C2006E2954080F390907BD3E86000130870088
:1022D200403FF200413FF300792954080F390907C2
:1022E200B73E860001308700403FF200413FF300D5
:1022F2007208860073088700811F80298129A2291C
:102302007208860073088700011D88298929A2297D
:102312000130F0007008D800A22950081F39F000DF
:10232200F1017108003A03199729A2297008003AAD
:1023320003194E29013A03195829033A03195B2953
:10234200A2292300C51FA629A729B0295830C300F6
:102352000030C40045140230F0007008C6000800C6
:102362002300DE01540855040319B829B929C129EB
:102372005408860055088700811BC029C129182AE4
:1023820054088600550887004131210032080102B5
:102392000318CC29CD29D8292300540886005508D2
:1023A2008700413101082100B3003308B200230045
:1023B200DE01FA295E08C03E860087012030873D93
:1023C20001082100B30023005E082100B400B5011A
:1023D20034083007B6003508313DB70036088600AC
:1023E20037088700330881000130B3003308230027
:1023F200DE072100320823005E02031C012A022AA2
:10240200DB292100A501C030A6002030A700403002
:10241200B3003308A80002309731752791312100AB
:1024220026082300D500210025082300D4005E08D9
:1024320008002000D801D901612A2300C5176903C9
:10244200031D242A252A762A2000D814762A23005E
:10245200C517762A2300C5172000D41B312A322A39
:102462003F2A54080F390907BD3E86000130870014
:10247200403F2100A700413FA8004B2A54080F39D2
:102482000907B73E860001308700403F2100A700C0
:10249200413FA8002708860028088700811F522A8A
:1024A200532A762A2708860028088700011D5A2AFF
:1024B2005B2A762A0130A50025082000D800762A5A
:1024C20050081F392100A500A6012608003A031969
:1024D2006B2A762A2508003A03191E2A013A0319A3
:1024E200282A033A03192B2A762A2300C51F7A2A9F
:1024F2007B2A862A5830C3000030C40045140230BB
:102502002100A50025082300C6000800200050086D
:102512001F39013A03198E2A8F2A902AF42A500E63
:10252200890C0339013A0319972A982A992AF42A1D
:10253200540803199D2A9E2ADB2A54030319A22A4E
:10254200A32ADB2AF42A4A302300C3000230C40043
:102552000030C7000830C6004514C517F42A4A30B7
:102562002300C3000230C400C517F42A5708230011
:10257200B400200056082300B3005230F000700867
:10258200B000B501B601B217F42A52302300C300DD
:102592000230C4000030C7000730C600C130F0006E
:1025A2007008C500F42A5208F00070082300DB000E
:1025B200C517F42A5108F000F1017108003A031915
:1025C200E32AF42A7008003A0319A42A013A0319EB
:1025D200B02A213A0319B72A013A0319C62A033A43
:1025E2000319D42AF42A0800200050081F39013A9E
:1025F2000319FC2AFD2AFE2A6A2B500E890C033984
:10260200013A0319052B062B072B6A2B54080319D1
:102612000B2B0C2B502B54030319102B112B502B6B
:102622006A2B4A302300C3000230C4000030C700C6
:102632000830C6004514C5176A2B4A302300C30070
:102642000230C400C5176A2B200057082300B400CB
:10265200200056082300B30052302100A5002508AF
:102662002300B000B501B601B2176A2B5230230025
:10267200C3000230C4000030C7000730C600C130BA
:102682002100A50025082300C5006A2B200052085E
:102692002100A50025082300DB00C5176A2B51087D
:1026A2002100A500A6012608003A0319592B6A2B1E
:1026B2002508003A0319122B013A03191E2B213A5D
:1026C2000319252B013A0319372B033A0319472B18
:1026D2006A2B08000830F0007008F2000030230076
:1026E20047020830031946020318782B792B902BE6
:1026F2004608F0007008F2006B08031D812B822B44
:10270200872B0130F0007008EB00902B6B03031D48
:102712008B2B8C2B902B0230F0007008EB00720890
:10272200F000F1017008C6027108C73B3708013E8C
:10273200F0000030383DF100700886007108870013
:10274200720881005830F0007008EA004518AA2B80
:10275200AB2BDC2BC12B4308840044088500000806
:10276200F0006A0886008701700881000130C30703
:102772000030C43D0130F0007008EA070130F20277
:102782007208031DC52BC62BAC2BE12B430884001A
:10279200440885000008F0006A0886008701700876
:1027A20081000130C3070030C43D0130F0007008E1
:1027B200EA070130F2027208031DE02BE12BC72B5E
:1027C200080023006308031DE72BE82B5B2C013074
:1027D200F0007008E3006208031DF02BF12B5B2C64
:1027E2000130F0007008E200023021004706031DAC
:1027F200FB2BFC2B0F2C23003708860038088700A0
:10280200413181013708860038088700483081004D
:10281200370886003808870081175B2C4703031DA1
:10282200132C142C5B2C2300E6010830F00021004D
:10283200480A86008701700881005030F00000309D
:10284200F1004808023E860087017008C03F710807
:10285200C13F0430F00048088600870170088100FB
:1028620048088600870181170130F00070082300B4
:10287200E60021004508013EF0000030463DF1002F
:102882007008860071088700083081005030F0001F
:102892000030F10045088600460887004231700882
:1028A200C03F7108C13F4508860046088700803056
:1028B20081005B2C08002300370886003808870057
:1028C2000030011B0130F50004303706B70000303C
:1028D2003806B800083021004906031D712C722CFD
:1028E200872C200052087F393D00960016080319F4
:1028F2007B2C7C2C822C1030F30073082100C90041
:10290200872C0430F30073082100C9004703031D1C
:102912008B2C8C2CCD2C5830F3000030F40023008B
:10292200370886003808870042317308C03F7408B0
:10293200C13F93316B239431023023006B06031D98
:10294200A32CA42CB02C370886003808870004304A
:10295200810037088600380887008117D72C750850
:10296200031DB42CB52CC12C37088600380887000B
:102972004830810037088600380887008117D72C35
:10298200370886003808870008308100370886003B
:10299200380887008117D72C2300B21FD12CD22CE4
:1029A200D52C35083608B2132100C70108002300D0
:1029B2006308031DDD2CDE2C552D01302100A500FE
:1029C20025082300E3006208031DE82CE92C552D9D
:1029D20001302100A50025082300E2000230210079
:1029E2004706031DF52CF62C092D23003708860017
:1029F200380887004131810137088600380887008E
:102A02004830810037088600380887008117552D25
:102A12004703031D0D2D0E2D552D2300E601083011
:102A22002100A500480A8600870125088100503050
:102A3200A5000030A6004808023E8600870125084E
:102A4200C03F2608C13F0430A50048088600870120
:102A52002508810048088600870181170130A500FA
:102A620025082300E60021004508013EA5000030AC
:102A7200463DA6002508860026088700083081000A
:102A82005030A5000030A6004508860046088700A1
:102A920042312508C03F2608C13F45088600460846
:102AA200870080308100552D0800230037088600FA
:102AB200380887000030011B01302100AA000430D1
:102AC20023003706B70000303806B800083021006E
:102AD2004906031D6D2D6E2D832D200052087F396E
:102AE2003D00960016080319772D782D7E2D1030A3
:102AF2002100A8002808C900832D04302100A80065
:102B02002808C9004703031D872D882DCD2D583075
:102B1200A8000030A9002300370886003808870083
:102B2200423121002808C03F2908C13F8A310422CE
:102B32009531023023006B06031DA02DA12DAD2D72
:102B4200370886003808870004308100370886007D
:102B5200380887008117D72D21002A08031DB22DBE
:102B6200B32DC02D2300370886003808870048306F
:102B7200810037088600380887008117D72D230087
:102B82003708860038088700083081003708860039
:102B9200380887008117D72D2300B21FD12DD22DDF
:102BA200D52D35083608B2132100C70108002000D0
:102BB200500E890C0339003A0319E02DE12D342E11
:102BC2005F2E2300C51708302000ED006D0821009C
:102BD200C9005F2E9631EA2695315F2E8931772121
:102BE20095315F2EEF302300C3000130C40045143D
:102BF20001302000ED006D082300C600C5175F2ECE
:102C020091314A2195315F2E8131F92195315F2E23
:102C12005408ED3E2300C3000130C40045140130C6
:102C22002000ED006D082300C600C5175F2E2300AB
:102C3200C51720005208ED005408ED3E8600013011
:102C420087006D0881005F2E0230E0000030E10055
:102C52000030E2000030E3000030E400E5009D3186
:102C6200472595315F2E5108ED00EE016E08003ABE
:102C720003193C2E5F2E6D08003A0319012E013A0A
:102C82000319052E023A0319052E063A0319E22DFD
:102C9200033A0319EB2D013A0319252E0F3A0319B2
:102CA200F32D013A0319EF2D033A0319092E013AC4
:102CB2000319182E073A03195F2E5F2E0800F80039
:102CC20070080319652E662E702E7835B73E860081
:102CD20001308700403FF900413FFA00792E7835F4
:102CE200BD3E860001308700403FF900413FFA00B7
:102CF20079087A04031D7E2E7F2E822EF001F101C7
:102D0200E92EFF307105F4007F307205F500790875
:102D120086007A08870042317408C03F7508C13FB7
:102D22007908013EF40000307A3DF500740886000F
:102D320075088700730881004030F4007908860026
:102D42007A08870074088105790886007A08870066
:102D52008115790886007A0887008117700803199F
:102D6200B32EB42ECD2E7835B73E860001308700C3
:102D7200403FF400413FF50004307406F600003095
:102D82007506F7007835B73E860001308700760871
:102D9200C03F7708C13FE52E7835BD3E8600013041
:102DA2008700403FF400413FF50004307406F6000E
:102DB20000307506F7007835BD3E86000130870089
:102DC2007608C03F7708C13F7A08F1007908F00021
:102DD2000800803020005006031DF02EF12E742FC3
:102DE200C030F00070082300C500602F913023002E
:102DF200C3009830C4000030C7001230C600742FE0
:102E02005208031D052F062F352F5208F000F1013D
:102E1200F035F10DAD30700784009830713D8500BA
:102E2200003F2300C300013FC4004408F1004308EF
:102E3200F00002307007840071080318710A8500DF
:102E42000008F2007208C6004408F1004308F000CE
:102E520003307007840071080318710A85000008A6
:102E6200F2007208C700742F2300C501742F0330CB
:102E7200520203183D2F3E2F5A2F5208F000F10143
:102E8200F035F10DA330700784009830713D850054
:102E9200003F2300C300013FC400430884004408EC
:102EA20085000008F000F1017008C6007108C70033
:102EB200742F2300C501742F2300C501742F200035
:102EC2005308F000F1017108003A0319692F5D2FD0
:102ED2007008013A0319F72E033A0319012F013A38
:102EE2000319382F5D2F08002100AD0025080319B2
:102EF2007B2F7C2F862F2D35B73E86000130870031
:102F0200403FAE00413FAF008F2F2D35BD3E8600C2
:102F120001308700403FAE00413FAF002E082F0432
:102F2200031D942F952F982FA501A601FF2FFF3087
:102F32002605A9007F302705AA002E0886002F0843
:102F4200870042312908C03F2A08C13F2E08013EAE
:102F5200A90000302F3DAA00290886002A08870010
:102F6200280881004030A9002E0886002F0887001B
:102F7200290881052E0886002F08870081152E0852
:102F820086002F088700811725080319C92FCA2F29
:102F9200E32F2D35B73E860001308700403FA90060
:102FA200413FAA0004302906AB0000302A06AC00DB
:102FB2002D35B73E8600013087002B08C03F2C0814
:102FC200C13FFB2F2D35BD3E860001308700403FBB
:102FD200A900413FAA0004302906AB0000302A06AE
:102FE200AC002D35BD3E8600013087002B08C03F66
:102FF2002C08C13F2F08A6002E08A500080009349E
:10300200023443340034023401340034C0343234E4
:1030120009340434003400340134023402340134FB
:10302200003405342434003410340134043424349C
:1030320002340234053424340634003401340534B5
:103042002434013400340134073405348134033428
:103052000A340034023409340434013400340234B2
:103062000A340034003400340734053402340234A4
:10307200403400340034073405348234023440349E
:1030820000340034343403344D34003469340034B1
:1030920063340034723400346F34003463340034E7
:1030A200683400346934003470340034203400341D
:1030B20054340034653400346334003468340034EA
:1030C2006E3400346F3400346C3400346F340034A6
:1030D2006734003479340034203400344934003405
:1030E2006E340034633400342E3400341A34033422
:1030F20050340034723400346F3400346434003499
:1031020075340034633400347434003420340034B1
:103112004E340034613400346D340034653400348C
:1031220012340134003402340234003400340834DE
:10313200D83404340A340034003401340134023403
:1031420000340134A93498344334983477349834B1
:0C3152000434033409340434003498348D
:1034E8001630210097000800210026082400B300A8
:1034F800210025082400B200080021002608240025
:10350800B700210025082400B60008003034313403
:103518003234333434343534363437343834393457
:1035280000342100A5002000111E9B2A9C2A972AFE
:103538002100250823009A00080064008001013159
:103548000130FE020030FF3B7F087E04031DA22AE3
:103558000034FE0012001E000130FE020030FF3B66
:103568007F087E04031DAE2A00347C3021009900B8
:10357800980127009B012200960121001A1FC52AE5
:10358800C62AC12A08002000911ECB2ACC2AC72AA5
:103598002400BD0123009D1CD22AD32AD52A1D123E
:1035A8001D161908080022008E1102302100A600FD
:1035B8003830A500AD30890BDF2AA50BDF2AA60B12
:1035C800DF2A22008E1508002100A5012000111E07
:1035D800EE2AEF2AF72A23009E1EF32AF42AF72A56
:1035E8002100A501A50A2100250808009B310D230B
:1035F8009A319A31B9229A319A3174229A318D319D
:10360800CA259A319B315B239A319C3142249A31E5
:10361800080022008C0108308E00103021008C0038
:1036280027308E00073023008E0010308C002400D5
:103638008C012100951722009D010800013023000C
:10364800C8070030C93D0030CA3D0030CB3D68088E
:10365800031D2F2B302B3D2B0130F0007008DF07A6
:103668005F08031D382B392B3D2BFF30F000700805
:10367800DF0008002100121123006C08031D452BF0
:10368800462B582B210026082400BB0021002508C2
:103698002400BA0021002708A80028082300DD001C
:1036A800DC01DC0AEC01EC0A2100121508002100FB
:1036B8004908031D602B612B782B3D008E01920178
:1036C800163091009F3097007B3092002100121530
:1036D8006E2B8E153D008E1D722B732B6D2B0130BA
:1036E8002100A5002508C90008003D001215EF308B
:1036F8002000E60066083D0090058E140130200089
:10370800E60066082300E800DF0175302000E000CD
:103718000030E1000030E2000030E3000030E40057
:10372800E5009D3147259B31080001302300C8077B
:103738000030C93D0030CA3D0030CB3D6808031D4C
:10374800A62BA72BB82B01302100A50025082300A4
:10375800DF075F08031DB12BB22BB82BFF30210008
:10376800A50025082300DF0008003D001215EF30F2
:103778002100B90039083D0090058E140130210060
:10378800B90039082300E800DF0175302100B300D3
:103798000030B4000030B5000030B6000030B7008B
:1037A800B8009D3179259B3108002300E801743069
:1037B8002000E0000030E1000030E2000030E300CB
:1037C8000030E400E5009D3147259B313D008E1017
:1037D8001211F42BFB302000E60066083D0090052E
:1037E8001019F72BF82BEE2B2300DF01080023001C
:1037F800E80174302100B3000030B4000030B50097
:103808000030B6000030B700B8009D3179259B31F3
:103818003D008E101211162CFB302100B90039081A
:103828003D0090051019192C1A2C102C2300DF01CB
:103838000800FC00771D212C222C272CF0017C0885
:103848009E31D2269C31F71C2A2C2B2C312CF001CE
:10385800F00A7C089E31D2269C317C08983EF800FC
:10386800F9010E30F93D7808FA007908FB007A086A
:1038780086007B088700770881000800083023004D
:103888009F0090309D0024309E00E1309B00043062
:103898009C0000302100A5000030A6009A3181224A
:1038A8009C3100302100A5000030A600883101209D
:1038B8009C3100302100A5000030A6009A31782202
:1038C8009C312400BD0108002100B1002C1D6D2C85
:1038D8006E2C732CA50131089F3116279C312100CD
:1038E800AC1C772C782C7E2CA501A50A31089F31B9
:1038F80016279C3121003108983EAD00AE010E30EC
:10390800AE3D2D08AF002E08B0002F088600300805
:1039180087002C08810008003D00181C942C952C69
:10392800B82C210048088600870180300106031D55
:103938009E2C9F2CB62C2300370886003808870059
:1039480084300106031DA92CAA2CB62C0C30F000DB
:103958002100480886008701700881004808860011
:10396800870181173D001810DF30F00070089005BE
:103978000800250020082100A50025082300D600FE
:103988002100A6012608A13E860002308700010812
:10399800A5002608A03E8600023087002508810081
:1039A8000130A5002508A6073F302602031CDD2CA0
:1039B800DE2CC62C2500DF01230059080319E52C4D
:1039C800E62CE82C0130D90256080800F5007108E9
:1039D800F7007008F6007508F4007408F9000B2D5C
:1039E80076088600770887000108F4007408F80054
:1039F8000130F6070030F73D7808F40079088600B2
:103A08008701740881000130F4007408F907013057
:103A1800F2020030F33B720A031D162D730A031DD0
:103A2800162D172DF42C08002100AD002608AC0037
:103A38002508AB002D08A9002908AE003A2D2B084F
:103A480086002C0887000108A9002908AA0001306F
:103A5800AB070030AC3D2A08A9002E088600870174
:103A6800290881000130A9002908AE070130A70202
:103A78000030A83B270A031D452D280A031D452DA4
:103A8800462D232D0800502D9D31AB259D31782DD5
:103A9800923187229D31782D20006108003A031960
:103AA800592D7F3A0319732D782D6008013A0319AF
:103AB800482D033A0319782D013A03194C2D063A7B
:103AC8000319782D773A0319782D013A0319782DBF
:103AD800073A0319782D013A0319782D782D6008D3
:103AE800FF3A0319782D782D0800822D9E319326F0
:103AF8009D31AA2D9231F5229D31AA2D210034083D
:103B0800003A03198B2D7F3A0319A52DAA2D3308E6
:103B1800013A03197A2D033A0319AA2D013A031918
:103B28007E2D063A0319AA2D773A0319AA2D013AD0
:103B38000319AA2D073A0319AA2D013A0319AA2D28
:103B4800AA2D3308FF3A0319AA2DAA2D0800003020
:103B58002400D5000030D4004B30D3000030D20010
:103B6800D601D7010830FD007D08D8002300DE010A
:103B78001A30FD007D08F70001309C311D249D316D
:103B88001E30FD007D08F70002309C311D249D3158
:103B9800F001C030F1002030F2004030FD007D0817
:103BA800F3000230963160269D3171082300D5005C
:103BB8007008D400D201D301EC01080002302100C2
:103BC8004706031DE82DE92DED2D87314F279D313F
:103BD8001B2EC70123006608031DF32DF42D1A2E92
:103BE80021004508013EF6000030463DF700760802
:103BF800860077088700083081005030F6000030D2
:103C0800F700450886004608870042317608C03F1D
:103C18007708C13F45088600460887000C308100B8
:103C2800450886004608870081171B2EE601080014
:103C3800023021004706031D222E232E272E8E3107
:103C48007D269E31552EC70123006608031D2D2EA3
:103C58002E2E542E21004508013EAB000030463D73
:103C6800AC002B0886002C088700083081005030F3
:103C7800AB000030AC00450886004608870042319A
:103C88002B08C03F2C08C13F45088600460887001E
:103C98000C30810045088600460887008117552E9C
:103CA800E6010800A0302100B0000430B100403027
:103CB800B8003808B2009131B1219E312100B90015
:103CC80039082300D6002100BB01832E3B08A03E03
:103CD8008600043087000108B800A0302300590787
:103CE8002100B9003B083907BA003A0886000230BB
:103CF8008700380881000130B8003808BB07230066
:103D0800560821003B02031C8A2E8B2E6A2E2300A4
:103D180056082100B80038082300D90708000030E9
:103D28002400D5000030D4004B30D3000030D2003E
:103D3800D601D70108302100B20032082400D8008B
:103D48002300DE011A302100B2003208AC00013035
:103D58009C3168249E311E302100B2003208AC002C
:103D680002309C3168249E312100A501C030A60094
:103D78002030A7004030B2003208A8000230973146
:103D880075279E31210026082300D500210025082B
:103D98002300D400D201D301EC010800F500203043
:103DA800F1007108F6007008F1000130F135890B57
:103DB800DA2E7508F2000130F235FF3E031DE02EC1
:103DC80072357107F3000130F335FF3E031DE82E0D
:103DD8007335F4007408F6077608860087018113A6
:103DE8007008031DF82EF92E032F7535BD3E860089
:103DF800013087007608C03F0030C13F0C2F753571
:103E0800B73E8600013087007608C03F0030C13FCA
:103E180076088600870101137608043E860087012C
:103E2800011708002100AA002030A6002608AB00D0
:103E38002508A6000130A635890B1F2F2A08A700E0
:103E48000130A735FF3E031D252F27352607A8007B
:103E58000130A835FF3E031D2D2F2835A90029085C
:103E6800AB072B088600870181132508031D3D2F0A
:103E78003E2F482F2A35BD3E8600013087002B088B
:103E8800C03F0030C13F512F2A35B73E8600013070
:103E980087002B08C03F0030C13F2B0886008701F0
:103EA80001132B08043E8600870101170800230030
:103EB800EB01E401E101E001E6012100C7017F30E7
:103EC800C20023003708860038088700210042080E
:103ED8008105043023003706B70000303806B800E3
:103EE8007F302100C2002300370886003808870089
:103EF800210042088105043023003706B70000304E
:103F08003806B8007F302100C20045088600460800
:103F18008700420881052300C501C601C701B20117
:103F2800B301B4018831EB209F3103302100B30085
:103F38000030B4000030B5000030B6000030B700E3
:103F4800B8009D3179259F318B31DA239F310800E4
:103F58002300EB01E401E101E001E6012100C701D2
:103F68007F302000EF0023003708860038088700DC
:103F780020006F088105043023003706B7000030A1
:103F88003806B8007F302000EF002300370886008D
:103F98003808870020006F088105043023003706A1
:103FA800B70000303806B8007F302000EF0021004D
:103FB800450886004608870020006F088105230011
:103FC800C501C601C701B201B301B4019531D825B5
:103FD8009F3103302000E0000030E1000030E200B3
:103FE8000030E3000030E400E5009D3147259F31B3
:083FF8008B3139239F310800D1
:020000040001F9
:04000E00E43FCF3FBD
:00000001FF
