:04000000803119280A
:100008007E1480310B1F09280A2817282100121D89
:100018000E280F2817282000121D13281428172827
:1000280084313B2480317E10090080311B28210057
:10003800C501C601C701C801C901CA01B0308400A1
:10004800013085003C30FE000030FF009A31DA2292
:10005800803162308400023085000E30FE000030AE
:10006800FF009A31DA228031A03084000230850006
:100078001C30FE000030FF009A31DA228031203037
:100088008400033085004030FE000030FF009A31C4
:10009800DA2280317E1020008731102F2000520391
:1000A800031D57285828712850081F39003A031D86
:1000B8005E285F2871282300C517033020005106E9
:1000C800031D672868286F2801302100B900390806
:1000D8002300E60071282300E60120005208031DD2
:1000E80076287728BE2950081F39023A031D7D2833
:1000F8007E28BE2954080F39003A03198428852818
:10010800BE2954080F392100B900033039020318F9
:100118008E288F28BE2920304906031D942895284B
:10012800BE292300C5172000D41B9B289C28B5286E
:1001380054080F390907BD3E860001308700403F4B
:100148002100BE00413FBF00200054080F39CC3EBB
:1001580086000130870001082100B9003908BD0078
:10016800CD2854080F390907B73E860001308700AB
:10017800403F2100BE00413FBF00200054080F3916
:10018800CF3E86000130870001082100B9003908F8
:10019800BD003D18D028D128DC28FB30B900FF303D
:1001A800BA003E083905BE003F083A05BF00E228FC
:1001B80004303E04BE0000303F04BF002000D41BC2
:1001C800E628E728F42854080F390907BD3E8600B9
:1001D8000130870021003E08C03F3F08C13F002989
:1001E80054080F390907B73E8600013087002100FF
:1001F8003E08C03F3F08C13F033020005106031DA1
:1002080006290729302921003E0886003F08870073
:10021800811F0F29102924292000D41B14291529EE
:100228001D2954080F39CC3E8600013087008114FF
:10023800242954080F39CF3E8600013087008114E5
:1002480021003E0886003F08870001153E08860009
:100258003F0887008117BE29043021003E06BE00F2
:1002680000303F06BF003E0886003F088700811F18
:100278003E293F295C297F30B9003E0886003F08A7
:100288008700390881053E0886003F088700011766
:100298000530B3000030B4003F08B6003E08B50092
:1002A8000230B7000030B800903101208031612958
:1002B8003E0886003F0887000117043021003E06EB
:1002C800BE0000303F06BF00BD186B296C29742999
:1002D8003E0886003F088700811F73297429A129D9
:1002E8002000D41B78297929812954080F39CC3E5C
:1002F8008600013087008110882954080F39CF3EC5
:1003080086000130870081103B302100B9003E088B
:1003180086003F088700390881050530B3000030A2
:10032800B4003F08B6003E08B5000230B700003000
:10033800B800903101208031A9293B30B9003E082E
:1003480086003F08870039088105200054080F39C6
:10035800983E2100B900BA010E30BA3D3908BB00F9
:100368003A08BC00FE30B9003B0886003C0887000C
:1003780039088105080020005203031DC429C52936
:10038800DD2950081F39003A031DCB29CC29DD2966
:100398002300C517033020005106031DD429D52991
:1003A800DB290130E60066082300E600DD2923008A
:1003B800E60120005208031DE229E329192B500801
:1003C8001F39023A031DE929EA29192B54080F3964
:1003D800003A0319F029F129192B54080F39E600BE
:1003E800033066020318F929FA29192B2030210055
:1003F8004906031D002A012A192B2300C5172000CE
:10040800D41B072A082A1E2A54080F390907BD3E9B
:10041800860001308700403FEB00413FEC00540864
:100428000F39CC3E8600013087000108E6006608D7
:10043800EA00332A54080F390907B73E860001300D
:100448008700403FEB00413FEC0054080F39CF3E96
:100458008600013087000108E6006608EA006A188D
:10046800362A372A422AFB30E600FF30E7006B08BD
:100478006605EB006C086705EC00482A04306B043D
:10048800EB0000306C04EC00D41B4B2A4C2A582A91
:1004980054080F390907BD3E8600013087006B08F4
:1004A800C03F6C08C13F632A54080F390907B73E9B
:1004B8008600013087006B08C03F6C08C13F0330DD
:1004C8005106031D682A692A8F2A6B0886006C0862
:1004D8008700811F702A712A842AD41B742A752ADE
:1004E8007D2A54080F39CC3E8600013087008114DC
:1004F800842A54080F39CF3E8600013087008114C2
:100508006B0886006C08870001156B0886006C086C
:1005180087008117192B04306B06EB0000306C063E
:10052800EC006B0886006C088700811F9C2A9D2AB6
:10053800BA2A7F30E6006B0886006C0887006608D8
:1005480081056B0886006C08870001170530E000FC
:100558000030E1006C08E3006B08E2000230E400C0
:100568000030E5009D317C258131BF2A6B0886006B
:100578006C0887000117043020006B06EB00003080
:100588006C06EC00EA18C92ACA2AD22A6B08860027
:100598006C088700811FD12AD22AFD2AD41BD52AAC
:1005A800D62ADE2A54080F39CC3E8600013087004F
:1005B8008110E52A54080F39CF3E860001308700A4
:1005C80081103B30E6006B0886006C0887006608DF
:1005D80081050530E0000030E1006C08E3006B089D
:1005E800E2000230E4000030E5009D317C258131D5
:1005F800052B3B30E6006B0886006C088700660810
:100608008105200054080F39983EE600E7010E30B6
:10061800E73D6608E8006708E900FE30E60068087C
:1006280086006908870066088105080021004903DB
:10063800031D1F2B202B2E2B3D008E1A242B252B20
:100648002E2B90011214121602302300EC006C08B5
:100658002100C9003D00101D322B332B402B121DE9
:10066800362B372B402BFB302300EC006C083D0069
:1006780090059C31272483313D008E1C442B452B4B
:10068800482B200012113A2C101C4B2B4C2B612BA1
:10069800121C4F2B502B612B8D31CA258331210021
:1006A800121504302300EC006C082100C900FE304C
:1006B8002300EC006C083D009005101E642B652B90
:1006C8006C2B121E682B692B6C2B9B31E523833115
:1006D8003D00101F702B712B9E2B121F742B752B36
:1006E800852B73302100B3000030B4000030B50012
:1006F8000030B6000130B7000030B800903101205A
:100708008331BF302300EC006C083D0090059B311D
:10071800C5238331230062080319932B942B962B4E
:100728000130E2026208031D9A2B9B2B9E2B943109
:10073800D82483313D00901EA22BA32BAA2B921EF6
:10074800A62BA72BAA2B9D314D2583313D00901C4C
:10075800AE2BAF2BC52B921CB22BB32BC52BFF3066
:100768002100B3007F30B4000030B5000030B6007F
:100778000130B7000030B8009031012083313D00CE
:1007880093010430210049020318CB2BCC2BCF2B2B
:10079800200012113A2C3D00921DD32BD42B382C5B
:1007A8002300EE013D00901DDA2BDB2B382C0F08BF
:1007B8002300EC006C082100CA004A0C2300EC005E
:1007C800EC0C6C0C0F39ED006D08E400F730EC0010
:1007D8006C083D00900521004A19F32BF42B052CD9
:1007E80023006408CC3E86000130870001080139E7
:1007F800EC000130EC0601086C06FE396C0681003D
:10080800152C23006408CF3E8600013087000108BC
:100818000139EC000130EC0601086C06FE396C0663
:1008280081006408031D192C1A2C1E2C8831042001
:1008380083312D2C72302100B3000030B400CA304F
:10084800B5000030B6000030B700B8009031012084
:10085800833101302300EC006C08EE0704306E028F
:10086800031C372C382CD62B20001211080021002D
:100878004903031D402C412C4E2C3D008E1A452C5B
:10088800462C4E2C90011214121602302100A200A0
:100898002208C9003D00101D522C532C602C121D3B
:1008A800562C572C602CFB302100A20022083D005A
:1008B80090059C31052484313D008E1C642C652CE8
:1008C800682C200012115A2D101C6B2C6C2C7E2CBD
:1008D800121C6F2C702C7E2C8C31752484312100D5
:1008E80012150430A2002208C900FE30A200220816
:1008F8003D009005101E812C822C892C121E852CFF
:10090800862C892C9B31A52384313D00101F8D2C0A
:100918008E2CBB2C121F912C922CA22C73302000F1
:10092800E0000030E1000030E2000030E300013078
:10093800E4000030E5009D317C258431BF30210082
:10094800A20022083D0090059B314F2384312300EB
:1009580062080319B02CB12CB32C0130E2026208F2
:10096800031DB72CB82CBB2C9331E22384313D00F6
:10097800901EBF2CC02CC72C921EC32CC42CC72C75
:100988009C31962484313D00901CCB2CCC2CE22C3D
:10099800921CCF2CD02CE22CFF302000E0007F30BE
:1009A800E1000030E2000030E3000130E4000030F4
:1009B800E5009D317C2584313D0093010430210000
:1009C80049020318E82CE92CEC2C200012115A2DAE
:1009D8003D00921DF02CF12C582D2100A4013D0062
:1009E800901DF72CF82C582D0F082100A200220882
:1009F800CA004A0CA200A20C220C0F39A30023083B
:100A08002300E400F7302100A20022083D009005F1
:100A180021004A19102D112D232D23006408CC3EE6
:100A2800860001308700010801392100A200013049
:100A3800A20601082206FE3922068100342D230071
:100A48006408CF3E86000130870001080139210083
:100A5800A2000130A20601082206FE392206810002
:100A680023006408031D392D3A2D3E2D9031332083
:100A780084314D2D72302000E0000030E100CA3092
:100A8800E2000030E3000030E400E5009D317C2501
:100A9800843101302100A2002208A4070430240276
:100AA800031C572D582DF32C20001211080021008B
:100AB80012112300520853040319632D642D6F2D5E
:100AC8005208860053088700811F6B2D6C2D6F2DEF
:100AD80021001215442E03305A06031D742D752D5E
:100AE800762DDA015A08031D7A2D7B2D7E2D2100E3
:100AF8001215442E02305A06031D832D842D9F2D76
:100B08002100A501A50A0030A6000030A700A80111
:100B18000230973175278531210026082300D3003C
:100B2800210025082300D20003302100B00030083E
:100B38002300DA00422E5A03031DA32DA42D422EB2
:100B480041305902031CA92DAA2DB02D4030210097
:100B5800B0003008B200B52D59082100B0003008A7
:100B6800B2003208230059022100B00030082300E7
:100B7800D90020302400E3008030E2002100320850
:100B8800B0003008B10023005808031DCC2DCD2D2E
:100B98000D2EEA2D240064088600650887000108E8
:100BA8002100B00024006208860063088700210045
:100BB8003008810001302400E2070030E33D0130B5
:100BC800E4070030E53D01302100B1022100310881
:100BD800031DEF2DF02DCE2D132E24006408860062
:100BE8006508870001082100B0002400620886001B
:100BF8006308870021003008810001302400E207E3
:100C08000030E33D0130E4070030E53D01302100CC
:100C1800B10221003108031D122E132EF12D2300DD
:100C28005908031D182E192E2B2E4030210032068C
:100C3800031D1F2E202E262E0230B0003008230060
:100C4800DA002B2E0330B00030082300DA00210030
:100C5800A501A50A8030A6002030A7003208B00000
:100C68003008A80002309731752785312100260801
:100C78002300D300210025082300D20021001215EB
:100C8800080021002608B2002508B10029082A0416
:100C9800031D4F2E502E512E0F2F3108860032087B
:100CA80087002708810029083107AB002A08323D50
:100CB800AC002B08FF3EAD00FF302C3DAE002D08E8
:100CC80086002E0887002708810000302A0203309A
:100CD800031929020318712E722E732E0F2F310853
:100CE800013EAB000030323DAC002B0886002C08DA
:100CF8008700270881003108023EAB000030323DF2
:100D0800AC002B0886002C088700270881002908DA
:100D18003107AB002A08323DAC002B08FE3EAD007F
:100D2800FF302C3DAE002D0886002E0887002708CE
:100D3800810029083107AB002A08323DAC002B0896
:100D4800FD3EAD00FF302C3DAE002D0886002E087C
:100D580087002708810000302A020730031929027A
:100D68000318B72EB82EB92E0F2F3108033EAB004B
:100D78000030323DAC002B0886002C08870027087D
:100D8800810029083107AB002A08323DAC002B0846
:100D9800FC3EAD00FF302C3DAE002D0886002E082D
:100DA80087002708810000302A0209300319290228
:100DB8000318DF2EE02EE12E0F2F3109AB00320988
:100DC800AC00AB0A0319AC0A03302B05AF000030A6
:100DD8002C05B0002F08B1073008B23D2F08A90232
:100DE8003008AA3BFC30A905FF30AA05092F3108B5
:100DF800860032088700270881000130A9020030E8
:100E0800AA3B0130B1070030B23D29082A04031D6E
:100E18000E2F0F2FFB2E08009B31282387319E3180
:100E2800932687312500C001BF01BE01BE0A833168
:100E38001A23873123005A08031D232F242FD12F6B
:100E480025004008031D292F2A2F9B2F2400660800
:100E580003192F2F302F9B2F9C31C3248731250056
:100E6800BC003C08C1003F0803193B2F3C2F932FBF
:100E7800BF017A2FC001C00A9B2FBE019B2FBE0164
:100E8800BE0A9B2F9B31152387312400EE01EE0A01
:100E98002100A501A50A6E309B316B238731572F9E
:100EA8009A31F42287319A31AE228731003A031DF4
:100EB8005E2F5F2F542F9B2F9930BC003C082400D5
:100EC800EE002100A501A50A6E309B316B23873106
:100ED8009B2FEE30BC003C082400EE002100A50149
:100EE800A50A6E309B316B2387319B2F4108BC00CC
:100EF800BD013D08003A0319822F6D2F3C08053AC1
:100F080003193E2FAF3A0319602F113A0319462FE0
:100F1800773A0319412F013A0319432F6D2F0530F2
:100F28004106031D982F992F3E2FBF01BF0A9B3101
:100F380003238731003A0319A22FA32FAF2F2500CF
:100F480040080319A82FA92FAF2F41089A31CE22A4
:100F580087312500C0019A31AE228731003A031942
:100F6800B62FB72FD12F25003F08031DBC2FBD2F4B
:100F7800D12F3E080319C12FC22FD12F9A31F42245
:100F880087312500BC003C082400EE002100A501A3
:100F9800A50A6E309B316B2387319E311F2687311E
:100FA80085315B2587311B2F8031192808302300B4
:100FB8009F0090309D0024309E0070309B000230CE
:100FC8009C0000302100A5000030A6009A31BC2208
:100FD800873100302100A5000030A6009A31C522D3
:100FE800873100302100A5000030A6009A31B322D5
:100FF80087312300D6010800163021009700080029
:101008002D302100C30043082300E20021004A08D4
:10101800FD39031D102811284D284A363F39C300D1
:101028000130C335FF3E031D15284335203EC4005B
:101038004408C8004808C500FF39031D0030C60031
:1010480004304506C50000304606C600480886003C
:101058008701010C890C0F390D3A031D34283528F6
:1010680049284808023E86008701403FA500413FC5
:10107800A6000830A7000030A80050309D311E257A
:1010880088319F315B27883159289E31592688310C
:101098005928FD304A05C30004304306031D55286E
:1010A8005628592895315625883108002300C51738
:1010B8000E302100BB009930BA00BC013A08860006
:1010C8003B08870081010130BA070030BB3D013081
:1010D800B9003908BC0702303C02031C7428752883
:1010E80062282030A5000030A6000030A700A80024
:1010F8003030A9000030AA008631452688313D00ED
:101108000E172100BD013D08CF3E86000130870043
:1011180081013D08CC3E8600013087008101013005
:10112800B9003908BD0703303D02031C9C289D28DF
:101138008728E930A5000130A6000030A700A800E4
:101148000230A9000030AA008631452688313D00CA
:101158000E1328302300B7000030B80020302100DB
:10116800B9003908C8004808C500FF39031D003018
:10117800C600200052082100B90039082300EB00FE
:101188006B08031DC828C928CF2810302100B900D2
:101198003908C900E42801302100B3000030B40048
:1011A800EB30B5000130B6000130B7000030B800B0
:1011B80090310120883120302100B9003908C90058
:1011C80008002000500E890C0339003A0319ED2855
:1011D800EE28442970292300C51708302100C000D3
:1011E8004008C90070298A319622883170298831CF
:1011F8005A2088317029EB302300C3000130C40025
:10120800451401302100C00040082300C600C5175E
:10121800702992311A228831702980315220883100
:10122800702920005408E93E2300C3000130C4009F
:10123800451401302100C00040082300C600C5172E
:1012480070292300C517200052082100C000200083
:101258005408E93E860001308700210040088100DB
:1012680070290230B3000030B4000030B5000030FF
:10127800B6000030B700B8009031012088317029DD
:1012880051082100C000C1014108003A03194D2945
:1012980070294008003A03190D29013A0319112948
:1012A800023A03191129063A0319EF28033A0319D8
:1012B800F728013A031935290F3A0319FF28013A8B
:1012C8000319FB28033A03191529013A031925299B
:1012D800073A03197029702908002300C5170E3032
:1012E8002000E8009930E700E901670886006808EF
:1012F800870081010130E7070030E83D0130E60052
:101308006608E90702306902031C8B298C297929B0
:101318002030F0000030F1000030F200F3003030EF
:10132800F4000030F5008F31362789313D000E1763
:101338002000EA016A08CF3E86000130870081015B
:101348006A08CC3E86000130870081010130E60042
:101358006608EA0703306A02031CB329B4299E29E8
:10136800E930F0000130F1000030F200F300023003
:10137800F4000030F5008F31362789313D000E1317
:1013880028302300B7000030B80020302000E600E5
:1013980066082100C8004808C500FF39031D003051
:1013A800C60020005208E60066082300EB006B0820
:1013B800031DDF29E029E72910302000E600660830
:1013C8002100C900FD2901302000E0000030E100C3
:1013D800EB30E2000130E3000130E4000030E500CA
:1013E8009D317C25893120302000E60066082100E7
:1013F800C900080008302100A5002508A700003012
:101408002300470208300319460203180C2A0D2A44
:101418002A2A46082100A5002508A70023006808F5
:10142800031D172A182A1F2A01302100A5002508A4
:101438002300E8002A2A6803031D232A242A2A2ACB
:1014480002302100A50025082300E8002100270814
:10145800A500A60125082300C602210026082300AE
:10146800C73B3708013E2100A50000302300383D66
:101478002100A60025088600260887002708810085
:101488005830A50025082300E70045184C2A4D2AA6
:101498008F2A6B2A2300430884004408850000082B
:1014A8002100A50023006708860087012100250880
:1014B800810001302300C3070030C43D0130210002
:1014C800A50025082300E70701302100A702210015
:1014D8002708031D702A712A4E2A952A23004308DB
:1014E80084004408850000082100A500230067083F
:1014F8008600870121002508810001302300C307E9
:101508000030C43D01302100A50025082300E7076D
:1015180001302100A70221002708031D942A952ADB
:10152800722A0800803020005006031D9C2A9D2A3C
:10153800322BC0302100A50025082300C5001D2B33
:101548005D302300C3009830C4000030C70012305B
:10155800C600322B20005208031DB32AB42AEC2AF5
:1015680052082100A500A601A535A60D853025073E
:1015780084009830263D8500003F2300C300013FCA
:10158800C40044082100A600230043082100A50048
:1015980002302507840026080318260A850000085B
:1015A800A70027082300C60044082100A60023003E
:1015B80043082100A50003302507840026080318E6
:1015C800260A85000008A70027082300C700322B39
:1015D8002300C501322B0330200052020318F52ADC
:1015E800F62A172B52082100A500A601A535A60D3D
:1015F8007B30250784009830263D8500003F230076
:10160800C300013FC4004308840044088500000863
:101618002100A500A60125082300C60021002608F0
:101628002300C700322B2300C501322B2300C5013C
:10163800322B200053082100A500A6012608003AF5
:101648000319272B1A2B2508013A0319A42A033A50
:101658000319AE2A013A0319EF2A1A2B08003D0094
:101668000E122300C51B392B3A2B822BB21F3D2BA0
:101678003E2B502B0230F50075082100C7002300CF
:101688005D08031D482B492B4C2B903189208B3149
:101698002300DF01E001D32B21004508013EF500BE
:1016A8000030463DF6007508860076088700083049
:1016B80081005030F5000030F600450886004608E5
:1016C800870042317508C03F7608C13F450886004B
:1016D800460887000C3081004508860046088700C8
:1016E80081172300370886003808870004308100F6
:1016F80037088600380887008117D32B2000D01FB1
:10170800862B872BA12B0130F50075082100C70017
:1017180023005E08031D912B922B952B9031892075
:101728008B312300DF01E0016108031D9C2B9D2BF9
:10173800D32B9331E2238B31D32B0230F50075087C
:101748002100C7004508013EF5000030463DF6007F
:101758007508860076088700083081005030F5004B
:101768000030F600450886004608870042317508B3
:10177800C03F7608C13F4508860046088700043008
:101788008100450886004608870081172300DF018D
:10179800E0016108031DD12BD22BD32B9D2B080010
:1017A8003D000E122300C51BDA2BDB2B232CB21FA6
:1017B800DE2BDF2BF12B02302100AA002A08C700FC
:1017C80023005D08031DE92BEA2BED2B9031EA205D
:1017D8008B312300DF01E001742C21004508013E14
:1017E800AA000030463DAB002A0886002B08870077
:1017F800083081005030AA000030AB004508860050
:101808004608870042312A08C03F2B08C13F4508D7
:101818008600460887000C30810045088600460887
:1018280087008117230037088600380887000430AE
:10183800810037088600380887008117742C20003B
:10184800D01F272C282C422C01302100AA002A085E
:10185800C70023005E08031D322C332C362C903130
:10186800EA208B312300DF01E0016108031D3D2CD4
:101878003E2C742C9431D8248B31742C02302100E6
:10188800AA002A08C7004508013EAA000030463DC4
:10189800AB002A0886002B088700083081005030EA
:1018A800AA000030AB004508860046088700423190
:1018B8002A08C03F2B08C13F450886004608870014
:1018C80004308100450886004608870081172300F8
:1018D800DF01E0016108031D722C732C742C3E2C6F
:1018E8000800210012113D009301900198010E306B
:1018F800F2009930F100F301710886007208870040
:1019080081010130F1070030F23D0130F00070082C
:10191800F30702307302031C922C932C802C163090
:101928003D0091009F3097007B309200F4017408CD
:10193800F0000130F035FF3E031D9E2C7035203E2F
:10194800860087010030C03F0030C13FC23FC33F1F
:101958000130F0007008F4070C307402031CB52C39
:10196800B62C9B2C3D000E1796010E120E13F73065
:10197800F000700890052300C501B201B301B4015D
:101988003D009019C82CC92CBB2C0130F000700800
:101998002300E0000130F0007008DF00DE01DD0107
:1019A800E501F4017435B73E860001308700003048
:1019B800C03FC13F7435BD3E86000130870000300E
:1019C800C03FC13F7408CF3E8600013087008101C7
:1019D8007408CC3E86000130870081010130F00098
:1019E8007008F40703307402031CFB2CFC2CD62C63
:1019F80028302300B7000030B80016303D009800AA
:101A080000302000A3005030A2000830A1000430AC
:101A1800F0007008A000A0172300EB010030CB00F5
:101A28000030CA000030C9000030C800DC012100C5
:101A3800C90108002100480886008701413FF500D8
:101A48007508F200F301730823003402031D2E2DDC
:101A5800720833020318312D322D362D3308F20067
:101A68007208F5007508F200F3017208B3027308F2
:101A7800B43BF401532D7408583E860087010108D1
:101A8800F2003008860002308700720881000130B9
:101A9800F2007208B0070130F2007208F407750806
:101AA8007402031C582D592D3F2D33083404031993
:101AB8005E2D5F2D982D21004508013EF200003073
:101AC800463DF300720886007308870008308100DD
:101AD8005830F2000030F3004508860046088700B9
:101AE80042317208C03F7308C13F48088600870129
:101AF800011B7F2D802D8C2D450886004608870008
:101B08004830810045088600460887008117C92D9E
:101B18004508860046088700083081004508860089
:101B2800460887008117C92D21004508013EF200AB
:101B38000030463DF30072088600730887000830BD
:101B480081005030F2000030F30045088600460856
:101B5800870042317208C03F7308C13F45088600BC
:101B6800460887000430810045088600460887003B
:101B78008117230035083608B2136108031DC52DE7
:101B8800C62DC92D9331E2238D3108002100121191
:101B98003D009301900198010E302100A700993073
:101BA800A600A801260886002708870081010130C1
:101BB800A6070030A73D0130A5002508A807023078
:101BC8002802031CE82DE92DD62D16303D00910082
:101BD8009F3097007B3092002100A9012908A500B9
:101BE8000130A535FF3E031DF52D2535203E860025
:101BF80087010030C03F0030C13FC23FC33F0130C2
:101C0800A5002508A9070C302902031C0C2E0D2E4F
:101C1800F22D3D000E1796010E120E13F73021001B
:101C2800A50025083D0090052300C501B201B301B8
:101C3800B4013D009019212E222E122E01302100D0
:101C4800A50025082300E00001302100A500250893
:101C58002300DF00DE01DD01E5012100A9012935AE
:101C6800B73E8600013087000030C03FC13F2935AC
:101C7800BD3E8600013087000030C03FC13F2908C3
:101C8800CF3E86000130870081012908CC3E8600BE
:101C98000130870081010130A5002508A90703301C
:101CA8002902031C582E592E332E28302300B70042
:101CB8000030B80016303D00980000302000A30026
:101CC8005030A2000830A10004302100A5002508EA
:101CD8002000A000A0172300EB010030CB0000304B
:101CE800CA000030C9000030C800DC012100C90169
:101CF80008002100480886008701413FAA002A08F9
:101D0800A700A801280823003402031D8F2E2100F4
:101D18002708230033020318922E932E982E330897
:101D28002100A7002708AA0021002A08A700A80167
:101D380027082300B302210028082300B43B210010
:101D4800A901BE2E2908583E860087010108A70070
:101D58002300300886000230870021002708810010
:101D68000130A70027082300B00701302100A70091
:101D78002708A9072A082902031CC32EC42EA62E49
:101D88002300330834040319CA2ECB2E042F210054
:101D98004508013EA7000030463DA80027088600F8
:101DA80028088700083081005830A7000030A800B4
:101DB800450886004608870042312708C03F2808A2
:101DC800C13F480886008701011BEB2EEC2EF82E38
:101DD8004508860046088700483081004508860087
:101DE800460887008117352F450886004608870072
:101DF8000830810045088600460887008117352F7E
:101E080021004508013EA7000030463DA8002708EC
:101E1800860028088700083081005030A70000306D
:101E2800A800450886004608870042312708C03FB9
:101E38002808C13F4508860046088700043081000D
:101E480045088600460887008117230035083608AC
:101E5800B2136108031D312F322F352F9431D82446
:101E68008E3108007108FD007008FC0074087504C4
:101E7800031D3F2F402F412FFF2F7C0886007D0830
:101E880087007208810074087C07F60075087D3D9C
:101E9800F7007608FF3EF800FF30773DF900780834
:101EA80086007908870072088100003075020330C7
:101EB800031974020318612F622F632FFF2F7C0808
:101EC800013EF60000307D3DF70076088600770871
:101ED8008700720881007C08023EF60000307D3DD4
:101EE800F700760886007708870072088100740872
:101EF8007C07F60075087D3DF7007608FE3EF80081
:101F0800FF30773DF9007808860079088700720865
:101F1800810074087C07F60075087D3DF700760897
:101F2800FD3EF800FF30773DF90078088600790813
:101F380087007208810000307502073003197402A7
:101F48000318A72FA82FA92FFF2F7C08033EF60000
:101F580000307D3DF7007608860077088700720814
:101F6800810074087C07F60075087D3DF700760847
:101F7800FC3EF800FF30773DF900780886007908C4
:101F88008700720881000030750209300319740255
:101F98000318CF2FD02FD12FFF2F7C09F6007D09F2
:101FA800F700F60A0319F70A03307605FA0000303D
:101FB8007705FB007A08FC077B08FD3D7A08F402E8
:101FC8007B08F53BFC30F405FF30F505F92F7C085C
:101FD80086007D088700720881000130F402003015
:101FE800F53B0130FC070030FD3D74087504031D06
:081FF800FE2FFF2FEB2F080064
:102002000A289E319326903132289231F52290315E
:10201200322821003408003A031913287F3A0319A1
:102022002D2832283308013A03190228033A0319EA
:102032003228013A03190628063A03193228773A58
:1020420003193228013A03193228073A03193228B0
:10205200013A0319322832283308FF3A0319322889
:10206200322808002D302100A00020082300E200C1
:1020720021004A08FD39031D3F2840287C284A36A2
:102082003F39A0000130A035FF3E031D4428203512
:10209200203EA1002108C8004808C500FF39031DE1
:1020A2000030C60004304506C50000304606C600B2
:1020B200480886008701010C890C0F390D3A031D6F
:1020C2006328642878284808023E86008701403F3A
:1020D200F000413FF1000830F2000030F3005030D0
:1020E2009C31F02490319F31AC27903188289D316A
:1020F200E52590318828FD304A05A00004302006ED
:10210200031D84288528882894315C249031080096
:102112002300DE01DD01023021004706031D922863
:102122009328B8284508013EF3000030463DF400EC
:102132007308860074088700083081005830F30065
:102142000030F400450886004608870042317308D3
:10215200C03F7408C13F45088600460887004830E2
:10216200810045088600460887008117E928230078
:10217200470820005702031DC228230046082000FA
:1021820056020318C528C628CD2857082300C700C1
:10219200200056082300C60093316B23903158303B
:1021A200F3000030F4002300370886003808870067
:1021B20042317308C03F7408C13F370886003808AF
:1021C2008700483081003708860038088700811769
:1021D20008002300DE01DD01023021004706031D55
:1021E200F328F42819294508013EA8000030463D8D
:1021F200A900280886002908870008308100583085
:10220200A8000030A9004508860046088700423130
:102212002808C03F2908C13F4508860046088700B4
:1022220048308100450886004608870081174D29FD
:102232002300470820005702031D232923004608D4
:10224200200056020318262927292E295708230081
:10225200C700200056082300C6008931FE219031B4
:1022620058302100A8000030A9002300370886005A
:1022720038088700423121002808C03F2908C13FA1
:102282002300370886003808870048308100370865
:10229200860038088700811708002100B300230058
:1022A200DB01540855040319572958296029540899
:1022B200860055088700811B5F296029B1295408CF
:1022C20086005508870041312100300801020318B9
:1022D2006B296C297729230054088600550887004A
:1022E200413101082100B1003108B0002300DB01B7
:1022F20093295B08C03E860087012030873D010894
:102302002100B10023005B0821003307B20032082C
:10231200860002308700310881000130B1003108A7
:102322002300DB072100300823005B02031C9A29EB
:102332009B297A292100A501C030A6002030A700E0
:102342004030B1003108A800023097317527913131
:10235200210026082300D500210025082300D400EF
:102362005B0808002000D801D901F7292300C5170E
:102372006603031DBD29BE290B2A2000D8140B2A8F
:102382002300C5170B2A2300C5172000D41BCA2916
:10239200CB29D72954080F390907BD3E86000130E1
:1023A2008700403FF200413FF300E22954080F3911
:1023B2000907B73E860001308700403FF200413FE7
:1023C200F3007208860073088700811FE929EA2951
:1023D2000B2A7208860073088700011DF129F22971
:1023E2000B2A0130F0007008D8000B2A50081F3960
:1023F200F000F1017108003A0319002A0B2A700853
:10240200003A0319B729013A0319C129033A0319FA
:10241200C4290B2A2300C51F0F2A102A192A583053
:10242200C3000030C40045140230F0007008C6003A
:1024320008002000D801D901612A2300C5176603CC
:10244200031D242A252A762A2000D814762A23005E
:10245200C517762A2300C5172000D41B312A322A39
:102462003F2A54080F390907BD3E86000130870014
:10247200403F2100A700413FA8004B2A54080F39D2
:102482000907B73E860001308700403F2100A700C0
:10249200413FA8002708860028088700811F522A8A
:1024A200532A762A2708860028088700011D5A2AFF
:1024B2005B2A762A0130A50025082000D800762A5A
:1024C20050081F392100A500A6012608003A031969
:1024D2006B2A762A2508003A03191E2A013A0319A3
:1024E200282A033A03192B2A762A2300C51F7A2A9F
:1024F2007B2A862A5830C3000030C40045140230BB
:102502002100A50025082300C6000800200050086D
:102512001F39013A03198E2A8F2A902AF42A500E63
:10252200890C0339013A0319972A982A992AF42A1D
:10253200540803199D2A9E2ADB2A54030319A22A4E
:10254200A32ADB2AF42AB4302300C3000230C400D9
:102552000030C7000830C6004514C517F42AB4304D
:102562002300C3000230C400C517F42A5708230011
:10257200B400200056082300B3006730F000700852
:10258200B000B501B601B217F42A67302300C300C8
:102592000230C4000030C7000730C600C130F0006E
:1025A2007008C500F42A5208F00070082300D70012
:1025B200C517F42A5108F000F1017108003A031915
:1025C200E32AF42A7008003A0319A42A013A0319EB
:1025D200B02A213A0319B72A013A0319C62A033A43
:1025E2000319D42AF42A0800200050081F39013A9E
:1025F2000319FC2AFD2AFE2A6A2B500E890C033984
:10260200013A0319052B062B072B6A2B54080319D1
:102612000B2B0C2B502B54030319102B112B502B6B
:102622006A2BB4302300C3000230C4000030C7005C
:102632000830C6004514C5176A2BB4302300C30006
:102642000230C400C5176A2B200057082300B400CB
:10265200200056082300B30067302100A50025089A
:102662002300B000B501B601B2176A2B6730230010
:10267200C3000230C4000030C7000730C600C130BA
:102682002100A50025082300C5006A2B200052085E
:102692002100A50025082300D700C5176A2B510881
:1026A2002100A500A6012608003A0319592B6A2B1E
:1026B2002508003A0319122B013A03191E2B213A5D
:1026C2000319252B013A0319372B033A0319472B18
:1026D2006A2B08000830F0007008F2000030230076
:1026E20047020830031946020318782B792B902BE6
:1026F2004608F0007008F2006808031D812B822B47
:10270200872B0130F0007008E800902B6803031D4E
:102712008B2B8C2B902B0230F0007008E800720893
:10272200F000F1017008C6027108C73B3708013E8C
:10273200F0000030383DF100700886007108870013
:10274200720881005830F0007008E7004518AA2B83
:10275200AB2BDC2BC12B4308840044088500000806
:10276200F000670886008701700881000130C30706
:102772000030C43D0130F0007008E7070130F2027A
:102782007208031DC52BC62BAC2BE12B430884001A
:10279200440885000008F000670886008701700879
:1027A20081000130C3070030C43D0130F0007008E1
:1027B200E7070130F2027208031DE02BE12BC72B61
:1027C200080023006008031DE72BE82B5B2C013077
:1027D200F0007008E0005F08031DF02BF12B5B2C6A
:1027E2000130F0007008DF00023021004706031DAF
:1027F200FB2BFC2B0F2C23003708860038088700A0
:10280200413181013708860038088700483081004D
:10281200370886003808870081175B2C4703031DA1
:10282200132C142C5B2C2300E3010830F000210050
:10283200480A86008701700881005030F00000309D
:10284200F1004808023E860087017008C03F710807
:10285200C13F0430F00048088600870170088100FB
:1028620048088600870181170130F00070082300B4
:10287200E30021004508013EF0000030463DF10032
:102882007008860071088700083081005030F0001F
:102892000030F10045088600460887004231700882
:1028A200C03F7108C13F4508860046088700803056
:1028B20081005B2C08002300370886003808870057
:1028C2000030011B0130F50004303706B70000303C
:1028D2003806B800083021004906031D712C722CFD
:1028E200872C200052087F393D00960016080319F4
:1028F2007B2C7C2C822C1030F30073082100C90041
:10290200872C0430F30073082100C9004703031D1C
:102912008B2C8C2CCD2C5830F3000030F40023008B
:10292200370886003808870042317308C03F7408B0
:10293200C13F93316B239431023023006806031D9B
:10294200A32CA42CB02C370886003808870004304A
:10295200810037088600380887008117D72C750850
:10296200031DB42CB52CC12C37088600380887000B
:102972004830810037088600380887008117D72C35
:10298200370886003808870008308100370886003B
:10299200380887008117D72C2300B21FD12CD22CE4
:1029A200D52C35083608B2132100C70108002300D0
:1029B2006008031DDD2CDE2C552D01302100A50001
:1029C20025082300E0005F08031DE82CE92C552DA3
:1029D20001302100A50025082300DF00023021007C
:1029E2004706031DF52CF62C092D23003708860017
:1029F200380887004131810137088600380887008E
:102A02004830810037088600380887008117552D25
:102A12004703031D0D2D0E2D552D2300E301083014
:102A22002100A500480A8600870125088100503050
:102A3200A5000030A6004808023E8600870125084E
:102A4200C03F2608C13F0430A50048088600870120
:102A52002508810048088600870181170130A500FA
:102A620025082300E30021004508013EA5000030AF
:102A7200463DA6002508860026088700083081000A
:102A82005030A5000030A6004508860046088700A1
:102A920042312508C03F2608C13F45088600460846
:102AA200870080308100552D0800230037088600FA
:102AB200380887000030011B01302100AA000430D1
:102AC20023003706B70000303806B800083021006E
:102AD2004906031D6D2D6E2D832D200052087F396E
:102AE2003D00960016080319772D782D7E2D1030A3
:102AF2002100A8002808C900832D04302100A80065
:102B02002808C9004703031D872D882DCD2D583075
:102B1200A8000030A9002300370886003808870083
:102B2200423121002808C03F2908C13F8931FE21D6
:102B32009531023023006806031DA02DA12DAD2D75
:102B4200370886003808870004308100370886007D
:102B5200380887008117D72D21002A08031DB22DBE
:102B6200B32DC02D2300370886003808870048306F
:102B7200810037088600380887008117D72D230087
:102B82003708860038088700083081003708860039
:102B9200380887008117D72D2300B21FD12DD22DDF
:102BA200D52D35083608B2132100C70108002000D0
:102BB200500E890C0339003A0319E02DE12D342E11
:102BC2005F2E2300C51708302000ED006D0821009C
:102BD200C9005F2E9631EA2695315F2E8931712127
:102BE20095315F2EEB302300C3000130C400451441
:102BF20001302000ED006D082300C600C5175F2ECE
:102C02009131B32195315F2E8131BF2195315F2EF4
:102C12005408E93E2300C3000130C40045140130CA
:102C22002000ED006D082300C600C5175F2E2300AB
:102C3200C51720005208ED005408E93E8600013015
:102C420087006D0881005F2E0230E0000030E10055
:102C52000030E2000030E3000030E400E5009D3186
:102C62007C2595315F2E5108ED00EE016E08003A89
:102C720003193C2E5F2E6D08003A0319012E013A0A
:102C82000319052E023A0319052E063A0319E22DFD
:102C9200033A0319EB2D013A0319252E0F3A0319B2
:102CA200F32D013A0319EF2D033A0319092E013AC4
:102CB2000319182E073A03195F2E5F2E0800F80039
:102CC20070080319652E662E702E7835B73E860081
:102CD20001308700403FF900413FFA00792E7835F4
:102CE200BD3E860001308700403FF900413FFA00B7
:102CF20079087A04031D7E2E7F2E822EF001F101C7
:102D0200E92EFF307105F4007F307205F500790875
:102D120086007A08870042317408C03F7508C13FB7
:102D22007908013EF40000307A3DF500740886000F
:102D320075088700730881004030F4007908860026
:102D42007A08870074088105790886007A08870066
:102D52008115790886007A0887008117700803199F
:102D6200B32EB42ECD2E7835B73E860001308700C3
:102D7200403FF400413FF50004307406F600003095
:102D82007506F7007835B73E860001308700760871
:102D9200C03F7708C13FE52E7835BD3E8600013041
:102DA2008700403FF400413FF50004307406F6000E
:102DB20000307506F7007835BD3E86000130870089
:102DC2007608C03F7708C13F7A08F1007908F00021
:102DD2000800803020005006031DF02EF12E742FC3
:102DE200C030F00070082300C500602F5D30230062
:102DF200C3009830C4000030C7001230C600742FE0
:102E02005208031D052F062F352F5208F000F1013D
:102E1200F035F10D8530700784009830713D8500E2
:102E2200003F2300C300013FC4004408F1004308EF
:102E3200F00002307007840071080318710A8500DF
:102E42000008F2007208C6004408F1004308F000CE
:102E520003307007840071080318710A85000008A6
:102E6200F2007208C700742F2300C501742F0330CB
:102E7200520203183D2F3E2F5A2F5208F000F10143
:102E8200F035F10D7B30700784009830713D85007C
:102E9200003F2300C300013FC400430884004408EC
:102EA20085000008F000F1017008C6007108C70033
:102EB200742F2300C501742F2300C501742F200035
:102EC2005308F000F1017108003A0319692F5D2FD0
:102ED2007008013A0319F72E033A0319012F013A38
:102EE2000319382F5D2F08002100AD0025080319B2
:102EF2007B2F7C2F862F2D35B73E86000130870031
:102F0200403FAE00413FAF008F2F2D35BD3E8600C2
:102F120001308700403FAE00413FAF002E082F0432
:102F2200031D942F952F982FA501A601FF2FFF3087
:102F32002605A9007F302705AA002E0886002F0843
:102F4200870042312908C03F2A08C13F2E08013EAE
:102F5200A90000302F3DAA00290886002A08870010
:102F6200280881004030A9002E0886002F0887001B
:102F7200290881052E0886002F08870081152E0852
:102F820086002F088700811725080319C92FCA2F29
:102F9200E32F2D35B73E860001308700403FA90060
:102FA200413FAA0004302906AB0000302A06AC00DB
:102FB2002D35B73E8600013087002B08C03F2C0814
:102FC200C13FFB2F2D35BD3E860001308700403FBB
:102FD200A900413FAA0004302906AB0000302A06AE
:102FE200AC002D35BD3E8600013087002B08C03F66
:102FF2002C08C13F2F08A6002E08A500080009349E
:10300200023443340034023401340034C0343234E4
:1030120009340434003400340134023402340134FB
:10302200003405342434003410340134043424349C
:1030320002340234053424340634003401340534B5
:103042002434013400340134073405348134033428
:103052000A340034023409340434013400340234B2
:103062000A340034003400340734053402340234A4
:10307200403400340034073405348234023440349E
:10308200003400341A3403344134003475340034CB
:1030920073340034743400347534003469340034C9
:1030A2006E3400346F34003420340034553400342C
:1030B2004E3400344F3400341234013400340234BC
:1030C2000234003400340834D83404340A3400346E
:1030D2000034013401340234003401340C3403343A
:1030E200463400345234003455340034433400340E
:1030F20044340034813498346F34983443349834EF
:0C310200043403340934043400349834DD
:10355C002000110E890C01390800210026082500D5
:10356C00AF00210025082500AE0008002100260828
:10357C002500B300210025082500B2000800210019
:10358C0026082500B100210025082500B000080000
:10359C002100A5002000111ED42AD52AD02A2100F2
:1035AC00250823009A0008006400800101310130D5
:1035BC00FE020030FF3B7F087E04031DDB2A003433
:1035CC007C3021009900980127009B012200960174
:1035DC0021001A1FF22AF32AEE2A08002000911E5D
:1035EC00F82AF92AF42A2300D6019D1CFE2AFF2A68
:1035FC00012B1D121D16190808002100A501200021
:10360C00111E092B0A2B122B23009E1E0E2B0F2B87
:10361C00122B2100A501A50A210025080800210074
:10362C008E1122008E1102302100A6003830A50028
:10363C00AD30890B1F2BA50B1F2BA60B1F2B2100AD
:10364C008E1508009B313B239B319A31E6229B312E
:10365C00883100209B318D31CA259B319B318723CA
:10366C009B318731DA279B31080022008C018E01B7
:10367C00303021008C002F308E00073023008E005C
:10368C0010308C0024008C012100951722009D0124
:10369C00080001302300C8070030C93D0030CA3D86
:1036AC000030CB3D6508031D5C2B5D2B6A2B013074
:1036BC00F0007008DC075C08031D652B662B6A2B79
:1036CC00FF30F0007008DC0008002100A700121188
:1036DC0023005A08031D732B742B842B21002708FD
:1036EC002400E4000230E50021002508A60026088D
:1036FC002300D900D801D80ADA01DA0A2100121500
:10370C00080021004908031D8C2B8D2BA42B3D0098
:10371C008E019201163091009F3097007B30920001
:10372C00210012159A2B8E153D008E1D9E2B9F2B62
:10373C00992B01302100A5002508C90008003D0087
:10374C001215EF302000E60066083D0090058E143F
:10375C0001302000E60066082300E500DC0175302E
:10376C002000E0000030E1000030E2000030E30017
:10377C000030E400E5009D317C259B3108000130D0
:10378C002300C8070030C93D0030CA3D0030CB3D96
:10379C006508031DD22BD32BE42B01302100A5008F
:1037AC0025082300DC075C08031DDD2BDE2BE42B36
:1037BC00FF302100A50025082300DC0008003D0097
:1037CC001215EF302100B90039083D0090058E1418
:1037DC0001302100B90039082300E500DC01753007
:1037EC002100B3000030B4000030B5000030B6004A
:1037FC000030B700B800903101209B310800230045
:10380C00E50174302000E0000030E1000030E200FF
:10381C000030E3000030E400E5009D317C259C3154
:10382C003D008E101211202CFB302000E6006608A3
:10383C003D0090051019232C242C1A2C2300DC019C
:10384C0008002300E50174302100B3000030B400FF
:10385C000030B5000030B6000030B700B800903131
:10386C0001209C313D008E101211422CFB302100A6
:10387C00B90039083D0090051019452C462C3C2CFC
:10388C002300DC010800FC00771D4D2C4E2C532C22
:10389C00F0017C089E31D2269C31F71C562C572CFB
:1038AC005D2CF001F00A7C089E31D2269C317C08FC
:1038BC00983EF800F9010E30F93D7808FA007908C5
:1038CC00FB007A0886007B088700770881000800D7
:1038DC002100B1002C1D732C742C792CA5013108FE
:1038EC009F3116279C312100AC1C7D2C7E2C842C06
:1038FC00A501A50A31089F3116279C3121003108FA
:10390C00983EAD00AE010E30AE3D2D08AF002E0836
:10391C00B0002F088600300887002C0881000800B2
:10392C003D00181C9A2C9B2CBE2C210048088600AC
:10393C00870180300106031DA42CA52CBC2C230070
:10394C00370886003808870084300106031DAF2C29
:10395C00B02CBC2C0C30F0002100480886008701EC
:10396C007008810048088600870181173D001810F7
:10397C00DF30F000700890050800260020082100B8
:10398C00A5002508A600A701DD2C2708213E8600EE
:10399C00033087000108A5002708203E860003306D
:1039AC008700250881000130A5002508A707240001
:1039BC00660821002702031CE42CE52CCB2C2400E8
:1039CC0066080319EA2CEB2CED2C0130E6022100E1
:1039DC0026080800F5007108F7007008F600750855
:1039EC00F4007408F900112D76088600770887001A
:1039FC000108F4007408F8000130F6070030F73DB8
:103A0C007808F40079088600870174088100013079
:103A1C00F4007408F9070130F2020030F33B720A2B
:103A2C00031D1C2D730A031D1C2D1D2DFA2C0800C3
:103A3C002100AD002608AC002508AB002D08A9001C
:103A4C002908AE00402D2B0886002C0887000108A1
:103A5C00A9002908AA000130AB070030AC3D2A08A8
:103A6C00A9002E0886008701290881000130A900D1
:103A7C002908AE070130A7020030A83B270A031D16
:103A8C004B2D280A031D4B2D4C2D292D08003D00D4
:103A9C00181C512D522D752D2100480886008701C8
:103AAC0080300106031D5B2D5C2D732D2300370820
:103ABC0086003808870084300106031D662D672DAB
:103ACC00732D0C302100A5004808860087012508BD
:103ADC00810048088600870181173D001810DF30EF
:103AEC002100A50025083D0090050800852D9D317D
:103AFC00AE259D31AD2D923187229D31AD2D20000B
:103B0C006108003A03198E2D7F3A0319A82DAD2DAB
:103B1C006008013A03197D2D033A0319AD2D013AC2
:103B2C000319812D063A0319AD2D773A0319AD2DE2
:103B3C00013A0319AD2D073A0319AD2D013A0319BA
:103B4C00AD2DAD2D6008FF3A0319AD2DAD2D08003C
:103B5C0000302400EA000030E9004B30E80000306F
:103B6C00E700EB01EC010830FD007D08ED002300BF
:103B7C00DB011A30FD007D08F70001309C3149242F
:103B8C009D311E30FD007D08F70002309C31492428
:103B9C009D31F001C030F1002030F2004030FD00CA
:103BAC007D08F3000230963160269D3171082300A8
:103BBC00D5007008D400D201D301DA01080002301C
:103BCC0021004706031DEB2DEC2DF02D8D311E250C
:103BDC009D311E2EC70123006308031DF62DF72D02
:103BEC001D2E21004508013EF6000030463DF70031
:103BFC007608860077088700083081005030F60080
:103C0C000030F700450886004608870042317608E8
:103C1C00C03F7708C13F45088600460887000C3036
:103C2C008100450886004608870081171E2EE30197
:103C3C00080040302100B4003408B000203091312D
:103C4C004E219E312100B50035082400E000E10131
:103C5C004C2E6108203E86000230870001082100AE
:103C6C00B4002030240066072100B5002400610850
:103C7C0021003507B600360886000330870034086B
:103C8C0081000130B40034082400E10760086102AF
:103C9C00031C512E522E2F2E60082100B400340824
:103CAC002400E6070800023021004706031D5F2EA2
:103CBC00602E642E8E317D269E31922EC7012300FC
:103CCC006308031D6A2E6B2E912E21004508013EC0
:103CDC00AB000030463DAC002B0886002C0887005A
:103CEC00083081005030AB000030AC004508860035
:103CFC004608870042312B08C03F2C08C13F4508BD
:103D0C008600460887000C3081004508860046086E
:103D1C0087008117922EE301080000302400EA008E
:103D2C000030E9004B30E8000030E700EB01EC011B
:103D3C0008302100B20032082400ED002300DB0122
:103D4C001A302100B2003208AC0001309C316E24D4
:103D5C009E311E302100B2003208AC0002309C3182
:103D6C006E249E312100A501C030A6002030A70092
:103D7C004030B2003208A8000230973175279E31CE
:103D8C00210026082300D500210025082300D4009B
:103D9C00D201D301DA010800F5002030F1007108DE
:103DAC00F6007008F1000130F135890BDA2E750838
:103DBC00F2000130F235FF3E031DE02E7235710723
:103DCC00F3000130F335FF3E031DE82E7335F4008C
:103DDC007408F60776088600870181137008031DA6
:103DEC00F82EF92E032F7535BD3E86000130870065
:103DFC007608C03F0030C13F0C2F7535B73E8600AA
:103E0C00013087007608C03F0030C13F760886003D
:103E1C00870101137608043E86008701011708000C
:103E2C002100AA002030A6002608AB002508A60019
:103E3C000130A635890B1F2F2A08A7000130A735A2
:103E4C00FF3E031D252F27352607A8000130A83576
:103E5C00FF3E031D2D2F2835A9002908AB072B0881
:103E6C008600870181132508031D3D2F3E2F482F07
:103E7C002A35BD3E8600013087002B08C03F00303C
:103E8C00C13F512F2A35B73E8600013087002B08E1
:103E9C00C03F0030C13F2B088600870101132B085F
:103EAC00043E86008701011708002300E801E101A8
:103EBC00DE01DD01E3012100C7017F30C2002300D8
:103ECC003708860038088700210042088105043035
:103EDC0023003706B70000303806B8007F302100C9
:103EEC00C2002300370886003808870021004208EA
:103EFC008105043023003706B70000303806B800BF
:103F0C007F302100C2004508860046088700420821
:103F1C0081052300C501C601C701B201B301B4017B
:103F2C008831E5209F3103302100B3000030B4000C
:103F3C000030B5000030B6000030B700B80090314A
:103F4C0001209F318B31D4239F3108002300E801DD
:103F5C00E101DE01DD01E3012100C7017F3020001A
:103F6C00EF002300370886003808870020006F0810
:103F7C008105043023003706B70000303806B8003E
:103F8C007F302000EF0023003708860038088700B8
:103F9C0020006F088105043023003706B70000307D
:103FAC003806B8007F302000EF002100450886005D
:103FBC004608870020006F0881052300C501C60153
:103FCC00C701B201B301B4019531D8259F3103303B
:103FDC002000E0000030E1000030E2000030E3009F
:103FEC000030E400E5009D317C259F318B3133237B
:043FFC009F310800E9
:020000040001F9
:04000E00E43FCF3FBD
:00000001FF
