:020000040000FA
:04000000803119280A
:100008007E1480310B1F09280A2817282100121D89
:100018000E280F2817282000121D13281428172827
:100028008431762480317E10090080311B28D43039
:1000380084009A30850058308600023087000030EE
:10004800FF000B309A31F72280312100C501C6012B
:10005800C701C801C901CA01B03084000130850058
:100068003E30FE000030FF009A31EB228031203014
:100078008400023085003830FE000030FF009A31DD
:10008800EB228031A0308400023085004030FE0031
:100098000030FF009A31EB22803120308400033099
:1000A80085004030FE000030FF009A31EB2280319D
:1000B800A0308400033085004030FE000030FF008F
:1000C8009A31EB22803120308400043085004030A2
:1000D800FE000030FF009A31EB228031A03084000E
:1000E800043085004030FE000030FF009A31EB22DA
:1000F800803120308400053085004030FE0000301B
:10010800FF009A31EB2280317E1020009431782C48
:1001180020005203031D91289228AB2850081F394C
:10012800003A031D98289928AB282300C5170330E7
:1001380020005106031DA128A228A928013021006A
:10014800B90039082300E700AB282300E7012000A5
:100158005208031DB028B128F82950081F39023A5F
:10016800031DB728B828F82954080F39003A03198D
:10017800BE28BF28F82954080F392100B9000330D8
:1001880039020318C828C928F82920304906031D50
:10019800CE28CF28F8292300C5172000D41BD5283E
:1001A800D628EF2854080F390907BD3E86000130CC
:1001B8008700403F2100BE00413FBF002000540897
:1001C8000F39CC3E86000130870001082100B900B4
:1001D8003908BD00072954080F390907B73E8600BA
:1001E80001308700403F2100BE00413FBF00200092
:1001F80054080F39CF3E86000130870001082100DE
:10020800B9003908BD003D180A290B291629FB3009
:10021800B900FF30BA003E083905BE003F083A056C
:10022800BF001C2904303E04BE0000303F04BF005C
:100238002000D41B202921292E2954080F39090709
:10024800BD3E86000130870021003E08C03F3F08C0
:10025800C13F3A2954080F390907B73E86000130D3
:10026800870021003E08C03F3F08C13F03302000FF
:100278005106031D402941296A2921003E088600AC
:100288003F088700811F49294A295E292000D41B7D
:100298004E294F29572954080F39CC3E8600013082
:1002A800870081145E2954080F39CF3E860001303B
:1002B8008700811421003E0886003F088700011549
:1002C8003E0886003F0887008117F829043021007E
:1002D8003E06BE0000303F06BF003E0886003F08CD
:1002E8008700811F7829792996297F30B9003E082F
:1002F80086003F088700390881053E0886003F08C8
:10030800870001170530B3000030B4003F08B6007D
:100318003E08B5000230B7000030B8009D31CD2549
:1003280080319B293E0886003F088700011704306A
:1003380021003E06BE0000303F06BF00BD18A529BB
:10034800A629AE293E0886003F088700811FAD29EF
:10035800AE29DB292000D41BB229B329BB295408B4
:100368000F39CC3E8600013087008110C22954081D
:100378000F39CF3E86000130870081103B302100C5
:10038800B9003E0886003F08870039088105053016
:10039800B3000030B4003F08B6003E08B500023094
:1003A800B7000030B8009D31CD258031E3293B30BE
:1003B800B9003E0886003F088700390881052000FB
:1003C80054080F39983E2100B900BA010E30BA3DE1
:1003D8003908BB003A08BC00FE30B9003B0886006B
:1003E8003C08870039088105080020005203031DD6
:1003F800FE29FF29172A50081F39003A031D052A2C
:10040800062A172A2300C517033020005106031DAA
:100418000E2A0F2A152A0130E60066082300E70095
:10042800172A2300E70120005208031D1C2A1D2A51
:10043800532B50081F39023A031D232A242A532B11
:1004480054080F39003A03192A2A2B2A532B540827
:100458000F39E600033066020318332A342A532B77
:10046800203021004906031D3A2A3B2A532B23003A
:10047800C5172000D41B412A422A582A54080F398C
:100488000907BD3E860001308700403FEB00413F31
:10049800EC0054080F39CC3E860001308700010873
:1004A800E6006608EA006D2A54080F390907B73EC6
:1004B800860001308700403FEB00413FEC005408C4
:1004C8000F39CF3E8600013087000108E600660834
:1004D800EA006A18702A712A7C2AFB30E600FF308D
:1004E800E7006B086605EB006C086705EC00822ADC
:1004F80004306B04EB0000306C04EC00D41B852A3C
:10050800862A922A54080F390907BD3E8600013011
:1005180087006B08C03F6C08C13F9D2A54080F39FB
:100528000907B73E8600013087006B08C03F6C089A
:10053800C13F03305106031DA22AA32AC92A6B080A
:1005480086006C088700811FAA2AAB2ABE2AD41B02
:10055800AE2AAF2AB72A54080F39CC3E860001309C
:1005680087008114BE2A54080F39CF3E8600013017
:10057800870081146B0886006C08870001156B08DA
:1005880086006C0887008117532B04306B06EB003C
:1005980000306C06EC006B0886006C088700811F31
:1005A800D62AD72AF42A7F30E6006B0886006C0822
:1005B8008700660881056B0886006C0887000117AC
:1005C8000530E0000030E1006C08E3006B08E20051
:1005D8000230E4000030E5009D319B258131F92A85
:1005E8006B0886006C0887000117043020006B0632
:1005F800EB0000306C06EC00EA18032B042B0C2BE4
:100608006B0886006C088700811F0B2B0C2B372B7F
:10061800D41B0F2B102B182B54080F39CC3E8600F7
:100628000130870081101F2B54080F39CF3E8600F8
:100638000130870081103B30E6006B0886006C08AB
:100648008700660881050530E0000030E1006C088D
:10065800E3006B08E2000230E4000030E5009D3161
:100668009B2581313F2B3B30E6006B0886006C08E8
:10067800870066088105200054080F39983EE60077
:10068800E7010E30E73D6608E8006708E900FE303C
:10069800E600680886006908870066088105080082
:1006A80021004903031D592B5A2B682B3D008E1A34
:1006B8005E2B5F2B682B9001121412160230230058
:1006C800EE006E082100C9003D00101D6C2B6D2B3B
:1006D8007A2B121D702B712B7A2BFB302300EE0026
:1006E8006E083D0090059C311E2483313D008E1C10
:1006F8007E2B7F2B822B20001211752C101C852B32
:10070800862B9B2B121C892B8A2B9B2B87314B27E3
:1007180083312100121504302300EE006E082100F9
:10072800C900FE302300EE006E083D009005101E43
:100738009E2B9F2BA62B121EA22BA32BA62B9B31E5
:10074800DC2383313D00101FAA2BAB2BD82B121FA3
:10075800AE2BAF2BBF2B73302100B3000030B40099
:100768000030B5000030B6000130B7000030B800E6
:100778009D31CD258331BF302300EE006E083D004A
:1007880090059B31BC238331230063080319CD2BCB
:10079800CE2BD02B0130E3026308031DD42BD52BBD
:1007A800D82B9531E52583313D00901EDC2BDD2BC0
:1007B800E42B921EE02BE12BE42B9D313D25833168
:1007C8003D00901CE82BE92BFF2B921CEC2BED2B0A
:1007D800FF2BFF302100B3007F30B4000030B5009C
:1007E8000030B6000130B7000030B8009D31CD258B
:1007F80083313D0093010430210049020318052C80
:10080800062C092C20001211752C3D00921D0D2C70
:100818000E2C732C2400E3013D00901D142C152C84
:10082800732C0F082300EE006E082100CA004A0C42
:100838002300EE00EE0C6E0C0F39EF006F08E50098
:10084800F730EE006E083D00900521004A192D2C66
:100858002E2C3F2C23006508CC3E860001308700F3
:1008680001080139EE000130EE0601086E06FE3976
:100878006E0681004F2C23006508CF3E86000130AC
:10088800870001080139EE000130EE0601086E0606
:10089800FE396E0681006508031D532C542C582C14
:1008A8009031C5208331672C72302100B3000030AD
:1008B800B400CA30B5000030B6000030B700B80048
:1008C8009D31CD25833101302300EE006E082400D0
:1008D800E30704306302031C722C732C102C2000D5
:1008E8001211080021004903031D7B2C7C2C892C44
:1008F8003D008E1A802C812C892C9001121412161E
:1009080002302100A2002208C9003D00101D8D2CD4
:100918008E2C9B2C121D912C922C9B2CFB30210091
:10092800A20022083D0090059B31FC2384313D0044
:100938008E1C9F2CA02CA32C20001211952D101C6E
:10094800A62CA72CB92C121CAA2CAB2CB92C8D3197
:1009580028258431210012150430A2002208C9007C
:10096800FE30A20022083D009005101EBC2CBD2CB4
:10097800C42C121EC02CC12CC42C9B319C23843146
:100988003D00101FC82CC92CF62C121FCC2CCD2CC6
:10099800DD2C73302000E0000030E1000030E20080
:1009A8000030E3000130E4000030E5009D319B2574
:1009B8008431BF302100A20022083D0090059B3100
:1009C80045238431230063080319EB2CEC2CEE2C0F
:1009D8000130E3026308031DF22CF32CF62C94314A
:1009E800EF2484313D00901EFA2CFB2C022D921E20
:1009F800FE2CFF2C022D9C31B32484313D00901C29
:100A0800062D072D1D2D921C0A2D0B2D1D2DFF3097
:100A18002000E0007F30E1000030E2000030E30019
:100A28000130E4000030E5009D319B2584313D0014
:100A380093010430210049020318232D242D272D6A
:100A480020001211952D3D00921D2B2D2C2D932D3C
:100A58002100A4013D00901D322D332D932D0F0848
:100A68002100A2002208CA004A0CA200A20C220CF3
:100A78000F39A30023082300E500F7302100A20066
:100A880022083D00900521004A194B2D4C2D5E2D62
:100A980023006508CC3E8600013087000108013933
:100AA8002100A2000130A20601082206FE39220612
:100AB80081006F2D23006508CF3E86000130870036
:100AC800010801392100A2000130A206010822060E
:100AD800FE392206810023006508031D742D752D3B
:100AE800792D90316F208431882D72302000E000FC
:100AF8000030E100CA30E2000030E3000030E400DA
:100B0800E5009D319B25843101302100A200220897
:100B1800A40704302402031C922D932D2E2D2000AF
:100B2800121108002100121123005208530403195E
:100B38009E2D9F2DAA2D5208860053088700811FDD
:100B4800A62DA72DAA2D210012157F2E03306A0687
:100B5800031DAF2DB02DB12DEA016A08031DB52D77
:100B6800B62DB92D210012157F2E02306A06031DFD
:100B7800BE2DBF2DDA2D2100A501A50A0030A60043
:100B88000030A700A8010230883182208531210079
:100B980026082300D300210025082300D2000330B3
:100BA8002100B00030082300EA007D2E6A03031DEF
:100BB800DE2DDF2D7D2E41305B02031CE42DE52D5B
:100BC800EB2D40302100B0003008B200F02D5B085A
:100BD8002100B0003008B200320823005B02210077
:100BE800B00030082300DB0020302400B90080303A
:100BF800B80021003208B0003008B10023005A08BC
:100C0800031D072E082E482E252E24003A0886009C
:100C18003B08870001082100B0002400380886003E
:100C28003908870021003008810001302400B80706
:100C38000030B93D0130BA070030BB3D013021001A
:100C4800B10221003108031D2A2E2B2E092E4E2E0B
:100C580024003A0886003B08870001082100B000FC
:100C680024003808860039088700210030088100F0
:100C780001302400B8070030B93D0130BA07003010
:100C8800BB3D01302100B10221003108031D4D2E6A
:100C98004E2E2C2E23005B08031D532E542E662E39
:100CA800403021003206031D5A2E5B2E612E023081
:100CB800B00030082300EA00662E0330B000300888
:100CC8002300EA002100A501A50A8030A6002030F3
:100CD800A7003208B0003008A8000230883182200E
:100CE8008531210026082300D30021002508230090
:100CF800D20021001215080021002608B20025089C
:100D0800B10029082A04031D8A2E8B2E8C2E4A2F07
:100D18003108860032088700270881002908310732
:100D2800AB002A08323DAC002B08FF3EAD00FF3077
:100D38002C3DAE002D0886002E088700270881006C
:100D480000302A020330031929020318AC2EAD2EF5
:100D5800AE2E4A2F3108013EAB000030323DAC00C8
:100D68002B0886002C088700270881003108023EDE
:100D7800AB000030323DAC002B0886002C08870001
:100D88002708810029083107AB002A08323DAC004A
:100D98002B08FE3EAD00FF302C3DAE002D0886002E
:100DA8002E0887002708810029083107AB002A0888
:100DB800323DAC002B08FD3EAD00FF302C3DAE00AF
:100DC8002D0886002E0887002708810000302A0297
:100DD8000730031929020318F22EF32EF42E4A2F96
:100DE8003108033EAB000030323DAC002B088600D2
:100DF8002C0887002708810029083107AB002A083A
:100E0800323DAC002B08FC3EAD00FF302C3DAE005F
:100E18002D0886002E0887002708810000302A0246
:100E280009300319290203181A2F1B2F1C2F4A2FC8
:100E38003109AB003209AC00AB0A0319AC0A033024
:100E48002B05AF0000302C05B0002F08B107300883
:100E5800B23D2F08A9023008AA3BFC30A905FF3093
:100E6800AA05442F31088600320887002708810028
:100E78000130A9020030AA3B0130B1070030B23D71
:100E880029082A04031D492F4A2F362F080021005C
:100E980012113D009301900198010E302100A70026
:100EA8009930A600A8012608860027088700810136
:100EB8000130A6070030A73D0130A5002508A80786
:100EC80002302802031C692F6A2F572F16303D0065
:100ED80091009F3097007B3092002100A9012908DA
:100EE800A5000130A535FF3E031D762F2535203E90
:100EF800860087010030C03F0030C13FC23FC33F7A
:100F08000130A5002508A9070C302902031C8D2FE4
:100F18008E2F732F3D000E1796010E120E13F73009
:100F28002100A50025083D0090052300C501B20158
:100F3800B301B4013D009019A22FA32F932F0130C4
:100F48002100A50025082300E10001302100A500AB
:100F580025082300E000DF01DE01E6012100A901E8
:100F68002935B73E8600013087000030C03FC13FB9
:100F78002935BD3E8600013087000030C03FC13FA3
:100F88002908CF3E86000130870081012908CC3E20
:100F980086000130870081010130A5002508A907D6
:100FA80003302902031CD92FDA2FB42F283023004D
:100FB800B7000030B80016303D009800003020001F
:100FC800A3005030A2000830A10004302100A50081
:100FD80025082000A000A0172300ED010030CB0059
:100FE8000030CA000030C9000030C800DD0121000F
:040FF800C901080023
:10100000230037088600380887000030011B0130B4
:101010002100AA00043023003706B700003038064C
:10102000B800083021004906031D172818282D286C
:10103000200052087F393D00960016080319212828
:101040002228282810302100A8002808C9002D28AF
:1010500004302100A8002808C9004703031D3128D7
:10106000322877285830A8000030A900230037081C
:10107000860038088700423121002808C03F29082F
:10108000C13F8A31B1228831023023006906031D35
:101090004A284B285728370886003808870004302C
:1010A00081003708860038088700811781282100D1
:1010B0002A08031D5C285D286A282300370886005B
:1010C00038088700483081003708860038088700D4
:1010D00081178128230037088600380887000830E8
:1010E000810037088600380887008117812823008F
:1010F000B21F7B287C287F2835083608B2132100D0
:10110000C70108002100AD00250803198828892897
:1011100093282D35B73E860001308700403FAE0052
:10112000413FAF009C282D35BD3E86000130870031
:10113000403FAE00413FAF002E082F04031DA12801
:10114000A228A528A501A6010C29FF302605A90083
:101150007F302705AA002E0886002F08870042311D
:101160002908C03F2A08C13F2E08013EA9000030CF
:101170002F3DAA00290886002A0887002808810038
:101180004030A9002E0886002F0887002908810515
:101190002E0886002F08870081152E0886002F084C
:1011A0008700811725080319D628D728F0282D3560
:1011B000B73E860001308700403FA900413FAA00AA
:1011C00004302906AB0000302A06AC002D35B73EAE
:1011D0008600013087002B08C03F2C08C13F08293A
:1011E0002D35BD3E860001308700403FA900413FBC
:1011F000AA0004302906AB0000302A06AC002D35C9
:10120000BD3E8600013087002B08C03F2C08C13F3F
:101210002F08A6002E08A50008002300C5170E30D1
:101220002100BB009930BA00BC013A0886003B0897
:10123000870081010130BA070030BB3D0130B900A1
:101240003908BC0702303C02031C2729282915292C
:101250002030A5000030A6000030A700A8003030E4
:10126000A9000030AA008631802689313D000E1782
:101270002100BD013D08CF3E86000130870081017D
:101280003D08CC3E86000130870081010130B90065
:101290003908BD0703303D02031C4F2950293A2964
:1012A000EB30A5000130A6000030A700A8000230F6
:1012B000A9000030AA008631802689313D000E1336
:1012C00028302300B7000030B80020302100B900DA
:1012D0003908C8004808C500FF39031D0030C600A2
:1012E000200052082100B90039082300ED006D08E4
:1012F000031D7B297C29822910302100B90039087F
:10130000C900972901302100B3000030B400ED304E
:10131000B5000130B6000130B7000030B8009D3193
:10132000CD25893120302100B9003908C9000800D5
:101330002000500E890C0339003A0319A029A12975
:10134000F729232A2300C51708302100C0004008D0
:10135000C900232A8B3149238931232A89310D2160
:101360008931232AED302300C3000130C400451425
:1013700001302100C00040082300C600C517232A01
:101380009231B0228931232A80318C208931232A5D
:1013900020005408EB3E2300C3000130C400451474
:1013A00001302100C00040082300C600C517232AD1
:1013B0002300C517200052082100C0002000540857
:1013C000EB3E860001308700210040088100232A7F
:1013D0000230B3000030B4000030B5000030B60079
:1013E0000030B700B8009D31CD258931232A51083E
:1013F0002100C000C1014108003A0319002A232A34
:101400004008003A0319C029013A0319C429023AD5
:101410000319C429063A0319A229033A0319AA2970
:10142000013A0319E8290F3A0319B229013A0319BD
:10143000AE29033A0319C829013A0319D829073AF2
:101440000319232A232A08002300C5170E30200081
:10145000E8009930E700E90167088600680887001E
:1014600081010130E7070030E83D0130E600660801
:10147000E90702306902031C3E2A3F2A2C2A203049
:10148000F0000030F1000030F200F3003030F400E2
:101490000030F5008F3136278A313D000E172000CD
:1014A000EA016A08CF3E86000130870081016A08A0
:1014B000CC3E86000130870081010130E6006608DD
:1014C000EA0703306A02031C662A672A512AEB30B6
:1014D000F0000130F1000030F200F3000230F400BF
:1014E0000030F5008F3136278A313D000E13283049
:1014F0002300B7000030B80020302000E600660866
:101500002100C8004808C500FF39031D0030C6008F
:1015100020005208E60066082300ED006D08031D58
:10152000922A932A9A2A10302000E60066082100A9
:10153000C900B02A01302000E0000030E100ED30A9
:10154000E2000130E3000130E4000030E5009D31AD
:101550009B258A3120302000E60066082100C90062
:10156000080008302100A5002508A700003023004E
:1015700047020830031946020318BF2AC02ADD2A91
:1015800046082100A5002508A70023006908031DBF
:10159000CA2ACB2AD22A01302100A500250823001F
:1015A000E900DD2A6903031DD62AD72ADD2A023085
:1015B0002100A50025082300E90021002708A50037
:1015C000A60125082300C602210026082300C73BE8
:1015D0003708013E2100A50000302300383D2100DE
:1015E000A6002508860026088700270881005830B5
:1015F000A50025082300E8004518FF2A002B422BF0
:101600001E2B2300430884004408850000082100A5
:10161000A5002300680886008701210025088100B5
:1016200001302300C3070030C43D01302100A50074
:1016300025082300E80701302100A7022100270820
:10164000031D232B242B012B482B2300430884004C
:101650004408850000082100A500230068088600D2
:10166000870121002508810001302300C3070030D5
:10167000C43D01302100A50025082300E807013002
:101680002100A70221002708031D472B482B252BEB
:101690000800803020005006031D4F2B502BE52BF7
:1016A000C0302100A50025082300C500D02B9130B3
:1016B0002300C3009830C4000030C7001230C600B9
:1016C000E52B20005208031D662B672B9F2B520829
:1016D0002100A500A601A535A60DAD302507840083
:1016E0009830263D8500003F2300C300013FC40021
:1016F00044082100A600230043082100A500023071
:101700002507840026080318260A85000008A7007C
:1017100027082300C60044082100A6002300430830
:101720002100A50003302507840026080318260A97
:1017300085000008A70027082300C700E52B230029
:10174000C501E52B0330200052020318A82BA92B5A
:10175000CA2B52082100A500A601A535A60DA3306D
:10176000250784009830263D8500003F2300C300F4
:10177000013FC4004308840044088500000821009C
:10178000A500A60125082300C60021002608230085
:10179000C700E52B2300C501E52B2300C501E52B80
:1017A000200053082100A500A6012608003A0319CD
:1017B000DA2BCD2B2508013A0319572B033A0319CD
:1017C000612B013A0319A22BCD2B08003D000E120C
:1017D0002300C51BEC2BED2B352CB21FF02BF12B6E
:1017E000032C0230F50075082100C70023005E08B5
:1017F000031DFB2BFC2BFF2B91311B218B31230075
:10180000E001E101862C21004508013EF500003091
:10181000463DF6007508860076088700083081008E
:101820005030F5000030F600450886004608870075
:1018300042317508C03F7608C13F4508860046081A
:1018400087000C3081004508860046088700811714
:1018500023003708860038088700043081003708E5
:101860008600380887008117862C2000D01F392C6D
:101870003A2C542C0130F50075082100C7002300D4
:101880005F08031D442C452C482C91311B218B31C2
:101890002300E001E1016208031D4F2C502C862C2F
:1018A0009431EF248B31862C0230F500750821002D
:1018B000C7004508013EF5000030463DF6007508BA
:1018C000860076088700083081005030F50000302F
:1018D000F600450886004608870042317508C03F7B
:1018E0007608C13F4508860046088700043081001D
:1018F000450886004608870081172300E001E101C2
:101900006208031D842C852C862C502C08003D0079
:101910000E122300C51B8D2C8E2CD62CB21F912CA1
:10192000922CA42C02302100AA002A08C700230010
:101930005E08031D9C2C9D2CA02C91317C218C31A8
:101940002300E001E101272D21004508013EAA0006
:101950000030463DAB002A0886002B08870008307F
:1019600081005030AA000030AB00450886004608D0
:10197000870042312A08C03F2B08C13F4508860036
:10198000460887000C30810045088600460887001D
:10199000811723003708860038088700043081004B
:1019A00037088600380887008117272D2000D01FB0
:1019B000DA2CDB2CF52C01302100AA002A08C70004
:1019C00023005F08031DE52CE62CE92C91317C21D6
:1019D0008C312300E001E1016208031DF02CF12CA1
:1019E000272D9531E5258C31272D02302100AA00C5
:1019F0002A08C7004508013EAA000030463DAB005A
:101A00002A0886002B088700083081005030AA0081
:101A10000030AB00450886004608870042312A089E
:101A2000C03F2B08C13F45088600460887000430A8
:101A30008100450886004608870081172300E001E1
:101A4000E1016208031D252D262D272DF12C08000C
:101A5000210012113D009301900198010E30F20017
:101A60009930F100F3017108860072088700810146
:101A70000130F1070030F23D0130F0007008F3074B
:101A800002307302031C452D462D332D16303D00C8
:101A900091009F3097007B309200F4017408F000B1
:101AA0000130F035FF3E031D512D7035203E86007C
:101AB00087010030C03F0030C13FC23FC33F01300B
:101AC000F0007008F4070C307402031C682D692DB7
:101AD0004E2D3D000E1796010E120E13F730F0003A
:101AE000700890052300C501B201B301B4013D00A7
:101AF00090197B2D7C2D6E2D0130F0007008230095
:101B0000E1000130F0007008E000DF01DE01E601D5
:101B1000F4017435B73E8600013087000030C03FC5
:101B2000C13F7435BD3E8600013087000030C03FA4
:101B3000C13F7408CF3E86000130870081017408E0
:101B4000CC3E86000130870081010130F000700832
:101B5000F40703307402031CAE2DAF2D892D2830FD
:101B60002300B7000030B80016303D009800003068
:101B70002000A3005030A2000830A1000430F00083
:101B80007008A000A0172300ED010030CB0000304A
:101B9000CA000030C9000030C800DD012100C901C1
:101BA00008002100480886008701413FF5007508BC
:101BB000F200F301730823003402031DE12D7208C3
:101BC00033020318E42DE52DE92D3308F2007208E5
:101BD000F5007508F200F3017208B3027308B43B14
:101BE000F401062E7408583E860087010108F200B1
:101BF0003008860002308700720881000130F20050
:101C00007208B0070130F2007208F4077508740218
:101C1000031C0B2E0C2EF22D330834040319112E45
:101C2000122E4B2E21004508013EF2000030463DA9
:101C3000F30072088600730887000830810058306E
:101C4000F2000030F3004508860046088700423164
:101C50007208C03F7308C13F480886008701011B16
:101C6000322E332E3F2E4508860046088700483026
:101C70008100450886004608870081177C2E4508AC
:101C8000860046088700083081004508860046081F
:101C9000870081177C2E21004508013EF2000030AC
:101CA000463DF30072088600730887000830810003
:101CB0005030F2000030F3004508860046088700E7
:101CC00042317208C03F7308C13F4508860046088C
:101CD0008700043081004508860046088700811788
:101CE000230035083608B2136208031D782E792EBA
:101CF0007C2E9431EF248D310800210048088600A5
:101D00008701413FAA002A08A700A801280823004C
:101D10003402031D8F2E21002708230033020318ED
:101D2000922E932E982E33082100A7002708AA0090
:101D300021002A08A700A80127082300B3022100D8
:101D400028082300B43B2100A901BE2E2908583ED3
:101D5000860087010108A7002300300886000230B2
:101D600087002100270881000130A70027082300F1
:101D7000B00701302100A7002708A9072A08290277
:101D8000031CC32EC42EA62E2300330834040319CB
:101D9000CA2ECB2E042F21004508013EA70000309B
:101DA000463DA800270886002808870008308100E3
:101DB0005830A7000030A800450886004608870074
:101DC00042312708C03F2808C13F480886008701E4
:101DD000011BEB2EEC2EF82E4508860046088700E6
:101DE0004830810045088600460887008117352F56
:101DF00045088600460887000830810045088600AF
:101E0000460887008117352F21004508013EA700AD
:101E10000030463DA80027088600280887000830C3
:101E200081005030A7000030A80045088600460811
:101E3000870042312708C03F2808C13F4508860077
:101E40004608870004308100450886004608870060
:101E50008117230035083608B2136208031D312F9D
:101E6000322F352F9531E5258E3108007108FD00A0
:101E70007008FC0074087504031D3F2F402F412F8C
:101E8000FF2F7C0886007D08870072088100740897
:101E90007C07F60075087D3DF7007608FF3EF800E8
:101EA000FF30773DF90078088600790887007208CE
:101EB0008100003075020330031974020318612F8A
:101EC000622F632FFF2F7C08013EF60000307D3D1E
:101ED000F7007608860077088700720881007C0882
:101EE000023EF60000307D3DF70076088600770858
:101EF00087007208810074087C07F60075087D3D34
:101F0000F7007608FE3EF800FF30773DF9007808CC
:101F10008600790887007208810074087C07F60043
:101F200075087D3DF7007608FD3EF800FF30773DEF
:101F3000F90078088600790887007208810000306F
:101F400075020730031974020318A72FA82FA92FB1
:101F5000FF2F7C08033EF60000307D3DF700760839
:101F60008600770887007208810074087C07F600F5
:101F700075087D3DF7007608FC3EF800FF30773DA0
:101F8000F90078088600790887007208810000301F
:101F900075020930031974020318CF2FD02FD12FE7
:101FA000FF2F7C09F6007D09F700F60A0319F70AEE
:101FB00003307605FA0000307705FB007A08FC074D
:101FC0007B08FD3D7A08F4027B08F53BFC30F40504
:101FD000FF30F505F92F7C0886007D088700720820
:101FE00081000130F4020030F53B0130FC07003085
:101FF000FD3D74087504031DFE2FFF2FEB2F080015
:102004002000110E890C0139080022008C018E0178
:10201400103021008C0027308E000F3023008E00FA
:1020240010308C0024008C012100951722009D01A2
:1020340008002300E901E201DF01DE01E4012100DF
:10204400C7017F302000EF002300370886003808DE
:10205400870020006F088105043023003706B7008D
:1020640000303806B8007F302000EF002300370826
:1020740086003808870020006F088105043023009B
:102084003706B70000303806B8007F302000EF0074
:102094002100450886004608870020006F08810556
:1020A4002300C501C601C701B201B301B4019631D1
:1020B4006326903103302000E0000030E10000305E
:1020C400E2000030E3000030E400E5009D319B2590
:1020D40090318B31E623903108002D302100A0008F
:1020E40020082300E30021004A08FD39031D7B2852
:1020F4007C28B8284A363F39A0000130A035FF3E7D
:10210400031D80282035203EA1002108C80048086E
:10211400C500FF39031D0030C60004304506C50064
:1021240000304606C600480886008701010C890C69
:102134000F390D3A031D9F28A028B4284808023EF1
:1021440086008701403FF000413FF1000830F20073
:102154000030F30050309C31E024903190311B204A
:102164009031C4289E3136269031C428FD304A056A
:10217400A00004302006031DC028C128C4289531BE
:102184006925903108002D302100C3004308230045
:10219400E30021004A08FD39031DD128D2280E2965
:1021A4004A363F39C3000130C335FF3E031DD628EC
:1021B4004335203EC4004408C8004808C500FF3920
:1021C400031D0030C60004304506C5000030460635
:1021D400C600480886008701010C890C0F390D3AA6
:1021E400031DF528F6280A294808023E86008701BF
:1021F400403FA500413FA6000830A7000030A800DA
:1022040050309D310E2590319F31AF2790311A29DE
:102214009E31702690311A29FD304A05C3000430DE
:102224004306031D162917291A29883100209031E5
:1022340008002300DF01DE01023021004706031DF0
:10224400242925294A294508013EF3000030463D4A
:10225400F400730886007408870008308100583041
:10226400F3000030F4004508860046088700423138
:102274007308C03F7408C13F4508860046088700BC
:1022840048308100450886004608870081177B296D
:102294002300470820005702031D54292300460841
:1022A400200056020318572958295F29570823008C
:1022B400C700200056082300C60094310124913140
:1022C4005830F3000030F400230037088600380843
:1022D400870042317308C03F7408C13F3708860045
:1022E400380887004830810037088600380887009E
:1022F400811708002300DF01DE01023021004706B8
:10230400031D85298629AB294508013EA800003014
:10231400463DA90028088600290887000830810066
:102324005830A8000030A9004508860046088700F8
:1023340042312808C03F2908C13F450886004608A5
:1023440087004830810045088600460887008117C9
:10235400DF292300470820005702031DB529230065
:102364004608200056020318B829B929C02957087D
:102374002300C700200056082300C6008A31B1227A
:10238400913158302100A8000030A90023003708FB
:10239400860038088700423121002808C03F2908F8
:1023A400C13F230037088600380887004830810081
:1023B4003708860038088700811708002000D801F4
:1023C400D901242A2300C5176703031DEA29EB2931
:1023D400382A2000D814382A2300C517382A2300A5
:1023E400C5172000D41BF729F829042A54080F39EB
:1023F4000907BD3E860001308700403FF200413F9F
:10240400F3000F2A54080F390907B73E860001303C
:102414008700403FF200413FF300720886007308D2
:102424008700811F162A172A382A72088600730823
:102434008700011D1E2A1F2A382A0130F000700867
:10244400D800382A50081F39F000F1017108003A09
:1024540003192D2A382A7008003A0319E429013A8D
:102464000319EE29033A0319F129382A2300C51F59
:102474003C2A3D2A462A5830C3000030C400451483
:102484000230F0007008C60008002300DC01540884
:10249400550403194E2A4F2A572A54088600550812
:1024A4008700811B562A572AAE2A540886005508ED
:1024B400870041312100320801020318622A632A8D
:1024C4006E2A23005408860055088700413101080C
:1024D4002100B3003308B2002300DC01902A5C0819
:1024E400C03E860087012030873D01082100B300EB
:1024F40023005C082100B400B50134083007B6009D
:102504003508313DB70036088600370887003308A0
:1025140081000130B30033082300DC0721003208B6
:1025240023005C02031C972A982A712A2100A50122
:10253400C030A6002030A7004030B3003308A80004
:102544000230883182209231210026082300D500F0
:10255400210025082300D4005C0808002000D801CD
:10256400D901F72A2300C5176703031DBA2ABB2A1A
:102574000C2B2000D8140C2B2300C5170C2B230084
:10258400C5172000D41BC72AC82AD52A54080F39D6
:102594000907BD3E860001308700403F2100A700A7
:1025A400413FA800E12A54080F390907B73E8600C5
:1025B40001308700403F2100A700413FA8002708C1
:1025C400860028088700811FE82AE92A0C2B27089F
:1025D400860028088700011DF02AF12A0C2B0130FF
:1025E400A50025082000D8000C2B50081F39210015
:1025F400A500A6012608003A0319012B0C2B250877
:10260400003A0319B42A013A0319BE2A033A0319FA
:10261400C12A0C2B2300C51F102B112B1C2B583047
:10262400C3000030C400451402302100A500250871
:102634002300C6000800200050081F39013A03197E
:10264400242B252B262B8A2B500E890C0339013A77
:1026540003192D2B2E2B2F2B8A2B54080319332BC4
:10266400342B712B54030319382B392B712B8A2BE0
:1026740049302300C3000230C4000030C7000830D2
:10268400C6004514C5178A2B49302300C300023005
:10269400C400C5178A2B57082300B400200056082D
:1026A4002300B3005130F0007008B000B501B6014A
:1026B400B2178A2B51302300C3000230C40000300B
:1026C400C7000730C600C130F0007008C5008A2B6F
:1026D4005208F00070082300D900C5178A2B51084E
:1026E400F000F1017108003A0319792B8A2B700864
:1026F400003A03193A2B013A0319462B213A0319DC
:102704004D2B013A03195C2B033A03196A2B8A2BCC
:102714000800200050081F39013A0319922B932B0B
:10272400942B002C500E890C0339013A03199B2B6E
:102734009C2B9D2B002C54080319A12BA22BE62BB8
:1027440054030319A62BA72BE62B002C4930230096
:10275400C3000230C4000030C7000830C60045146E
:10276400C517002C49302300C3000230C400C5172C
:10277400002C200057082300B40020005608230032
:10278400B30051302100A50025082300B000B50195
:10279400B601B217002C51302300C3000230C4002C
:1027A4000030C7000730C600C1302100A50025084D
:1027B4002300C500002C200052082100A500250894
:1027C4002300D900C517002C51082100A500A6013B
:1027D4002608003A0319EF2B002C2508003A0319A8
:1027E400A82B013A0319B42B213A0319BB2B013A44
:1027F4000319CD2B033A0319DD2B002C08000830F4
:10280400F0007008F200003023004702083003197A
:10281400460203180E2C0F2C262C4608F0007008D4
:10282400F2006908031D172C182C1D2C0130F00030
:102834007008E900262C6903031D212C222C262C68
:102844000230F0007008E9007208F000F10170082D
:10285400C6027108C73B3708013EF0000030383D1E
:10286400F1007008860071088700720881005830F2
:10287400F0007008E8004518402C412C722C572CAD
:1028840043088400440885000008F00068088600B6
:102894008701700881000130C3070030C43D013056
:1028A400F0007008E8070130F2027208031D5B2C87
:1028B4005C2C422C772C43088400440885000008D3
:1028C400F000680886008701700881000130C307A2
:1028D4000030C43D0130F0007008E8070130F20216
:1028E4007208031D762C772C5D2C08009B31322353
:1028F40094319E31E726943183315423943123005B
:102904006A08031D862C872CDA2C9B3120239431F2
:10291400003A03198E2C8F2CC02C20302100B000DB
:102924000430B10040302400E40064082100B20007
:102934009231472294312400E5006508E600E7015E
:10294400BA2C9B3120239431003A0319AA2CAB2CC6
:10295400A32C24006708203E860004308700010869
:102964009A31DF22943101302400E4006408E7073F
:1029740066086702031CBF2CC02CA32C90310220D4
:102984009431003A0319C72CC82CDA2C9B3111233B
:1029940094312400E40064082A00A00020302100BF
:1029A400A5000530A600A701A70A9B316123943135
:1029B4009E31AA2694318531962594310030210028
:1029C400A8000030A7000030A6000530A5009D3106
:1029D4006C2594317E2C8031192823006108031D55
:1029E400F42CF52C682D0130F0007008E10060082B
:1029F400031DFD2CFE2C682D0130F0007008E00052
:102A0400023021004706031D082D092D1C2D23002B
:102A1400370886003808870041318101370886006D
:102A24003808870048308100370886003808870056
:102A34008117682D4703031D202D212D682D2300A8
:102A4400E4010830F0002100480A8600870170087C
:102A540081005030F0000030F1004808023E86004A
:102A640087017008C03F7108C13F0430F000480876
:102A74008600870170088100480886008701811755
:102A84000130F00070082300E40021004508013EF5
:102A9400F0000030463DF1007008860071088700A0
:102AA400083081005030F0000030F1004508860005
:102AB4004608870042317008C03F7108C13F45088D
:102AC40086004608870080308100682D08002300B6
:102AD40037088600380887000030011B0130F500F4
:102AE40004303706B70000303806B800083021003B
:102AF4004906031D7E2D7F2D942D200052087F3919
:102B04003D00960016080319882D892D8F2D10304D
:102B1400F30073082100C900942D0430F3007308F6
:102B24002100C9004703031D982D992DDA2D583033
:102B3400F3000030F40023003708860038088700CB
:102B440042317308C03F7408C13F94310124953168
:102B5400023023006906031DB02DB12DBD2D3708A9
:102B6400860038088700043081003708860038085A
:102B740087008117E42D7508031DC12DC22DCE2DAC
:102B840037088600380887004830810037088600F7
:102B9400380887008117E42D370886003808870035
:102BA4000830810037088600380887008117E42D33
:102BB4002300B21FDE2DDF2DE22D35083608B213B7
:102BC4002100C701080023006108031DEA2DEB2D35
:102BD400622E01302100A50025082300E1006008D1
:102BE400031DF52DF62D622E01302100A5002508C8
:102BF4002300E000023021004706031D022E032EAD
:102C0400162E2300370886003808870041318101D9
:102C14003708860038088700483081003708860066
:102C2400380887008117622E4703031D1A2E1B2EB6
:102C3400622E2300E40108302100A500480A860022
:102C44008701250881005030A5000030A6004808FF
:102C5400023E860087012508C03F2608C13F043094
:102C6400A5004808860087012508810048088600D9
:102C7400870181170130A50025082300E400210005
:102C84004508013EA5000030463DA6002508860003
:102C940026088700083081005030A5000030A600C7
:102CA400450886004608870042312508C03F2608AB
:102CB400C13F450886004608870080308100622EA7
:102CC40008002000500E890C0339003A03196B2EBA
:102CD4006C2EBF2EEA2E2300C51708302000ED000D
:102CE4006D082100C900EA2E973175279631EA2E26
:102CF4008A3124229631EA2EED302300C3000130BC
:102D0400C400451401302000ED006D082300C60006
:102D1400C517EA2E9131E0219631EA2E8131F9214D
:102D24009631EA2E5408EB3E2300C3000130C40060
:102D3400451401302000ED006D082300C600C517BE
:102D4400EA2E2300C51720005208ED005408EB3E7C
:102D54008600013087006D088100EA2E0230E00011
:102D64000030E1000030E2000030E3000030E40015
:102D7400E5009D319B259631EA2E5108ED00EE01C8
:102D84006E08003A0319C72EEA2E6D08003A03199B
:102D94008C2E013A0319902E023A0319902E063A0A
:102DA40003196D2E033A0319762E013A0319B02E36
:102DB4000F3A03197E2E013A03197A2E033A0319A6
:102DC400942E013A0319A32E073A0319EA2EEA2E88
:102DD4000800F80070080319F02EF12EFB2E783548
:102DE400B73E860001308700403FF900413FFA00BA
:102DF400042F7835BD3E860001308700403FF9003E
:102E0400413FFA0079087A04031D092F0A2F0D2F78
:102E1400F001F101742FFF307105F4007F30720569
:102E2400F500790886007A08870042317408C03FAB
:102E34007508C13F7908013EF40000307A3DF50081
:102E44007408860075088700730881004030F40018
:102E5400790886007A088700740881057908860055
:102E64007A0887008115790886007A088700811717
:102E7400700803193E2F3F2F582F7835B73E860030
:102E840001308700403FF400413FF50004307406F0
:102E9400F60000307506F7007835B73E860001303D
:102EA40087007608C03F7708C13F702F7835BD3E54
:102EB400860001308700403FF400413FF5000430B4
:102EC4007406F60000307506F7007835BD3E8600BE
:102ED400013087007608C03F7708C13F7A08F100C7
:102EE4007908F0000800803020005006031D7B2F75
:102EF4007C2FFF2FC030F00070082300C500EB2F9B
:102F040091302300C3009830C4000030C700123051
:102F1400C600FF2F5208031D902F912FC02F520877
:102F2400F000F101F035F10DAD30700784009830F8
:102F3400713D8500003F2300C300013FC4004408E5
:102F4400F1004308F0000230700784007108031890
:102F5400710A85000008F2007208C6004408F100F6
:102F64004308F00003307007840071080318710AE5
:102F740085000008F2007208C700FF2F2300C50176
:102F8400FF2F033052020318C82FC92FE52F520810
:102F9400F000F101F035F10DA33070078400983092
:102FA400713D8500003F2300C300013FC400430876
:102FB4008400440885000008F000F1017008C60090
:102FC4007108C700FF2F2300C501FF2F2300C5018F
:102FD400FF2F20005308F000F1017108003A031993
:102FE400F42FE82F7008013A0319822F033A0319CA
:102FF4008C2F013A0319C32FE82F08000934023437
:1030040043340034023401340034C03432340934DB
:103014000434003400340134023402340134003402
:103024000534243400341034013404342434023498
:103034000234053424340634003401340534243491
:1030440001340034013407340534813403340A3440
:1030540000340234093404340134003402340A34B0
:10306400003400340034073405340234023440346C
:1030740000340034073405348234023440340034DC
:103084000034343403344D3400346934003463344C
:103094000034723400346F340034633400346834E0
:1030A400003469340034703400342034003454342F
:1030B40000346534003463340034683400346E34CE
:1030C40000346F3400346C3400346F3400346734AB
:1030D40000347934003420340034493400346E34FC
:1030E4000034633400342E3400341A34033450343E
:1030F4000034723400346F34003464340034753472
:1031040000346334003474340034203400344E34D6
:103114000034613400346D340034653400341234C6
:103124000134003402340234003400340834D83416
:1031340004340A34003400340134013402340034D9
:103144000134A934983443349834773498340434AB
:0A31540003340934043400349834C5
:10356A001630210097000800210026082400B30025
:10357A00210025082400B2000800210026082400A2
:10358A00B700210025082400B600080021002608FB
:10359A002400B500210025082400B40008003034B6
:1035AA0031343234333434343534363437343834CD
:1035BA00393400342100A5002000111EE52AE62A2C
:1035CA00E12A2100250823009A00080064008001EE
:1035DA0001310130FE020030FF3B7F087E04031DEB
:1035EA00EC2A0034FE0012001E000130FE020030F8
:1035FA00FF3B7F087E04031DF82A00347C3021003B
:10360A009900980127009B012200960121001A1FA8
:10361A000F2B102B0B2B08002000911E152B162B9D
:10362A00112B2300D8019D1C1B2B1C2B1E2B1D129A
:10363A001D16190808002100A5012000111E262BBD
:10364A00272B2F2B23009E1E2B2B2C2B2F2B2100BD
:10365A00A501A50A210025080800903107209B3101
:10366A009B3103239B319A31B5229B3187314B27FA
:10367A009B319B317E239B319C3165249B31080011
:10368A0001302300C8070030C93D0030CA3D003070
:10369A00CB3D6608031D522B532B602B0130F000E3
:1036AA007008DD075D08031D5B2B5C2B602BFF3068
:1036BA00F0007008DD0008002100121123006A08DA
:1036CA00031D682B692B7B2B210026082400BB00D5
:1036DA00210025082400BA0021002708A80028088C
:1036EA002300DB00DA01DA0AEA01EA0A21001215EC
:1036FA00080021004908031D832B842B9B2B3D00C6
:10370A008E019201163091009F3097007B30920013
:10371A0021001215912B8E153D008E1D952B962B8F
:10372A00902B01302100A5002508C90008003D00A2
:10373A001215EF302000E60066083D0090058E1451
:10374A0001302000E60066082300E600DD0175303E
:10375A002000E0000030E1000030E2000030E30029
:10376A000030E400E5009D319B259B3108000130C3
:10377A002300C8070030C93D0030CA3D0030CB3DA8
:10378A006608031DC92BCA2BDB2B01302100A500BB
:10379A0025082300DD075D08031DD42BD52BDB2B61
:1037AA00FF302100A50025082300DD0008003D00A8
:1037BA001215EF302100B90039083D0090058E142A
:1037CA0001302100B90039082300E600DD01753017
:1037DA002100B3000030B4000030B5000030B6005C
:1037EA000030B700B8009D31CD259B310800230079
:1037FA00E60174302000E0000030E1000030E20011
:10380A000030E3000030E400E5009D319B259B3148
:10381A003D008E101211172CFB302000E6006608BE
:10382A003D00900510191A2C1B2C112C2300DD01C8
:10383A0008002300E60174302100B3000030B40010
:10384A000030B5000030B6000030B700B8009D3136
:10385A00CD259C313D008E101211392CFB302100F0
:10386A00B90039083D00900510193C2C3D2C332C29
:10387A002300DD010800FC00771D442C452C4A2C4E
:10388A00F0017C089F3126279C31F71C4D2C4E2CC9
:10389A00542CF001F00A7C089F3126279C317C08C1
:1038AA00983EF800F9010E30F93D7808FA007908D7
:1038BA00FB007A0886007B088700770881000800E9
:1038CA00083023009F0090309D0024309E00E13094
:1038DA009B0004309C0000302100A5000030A600A7
:1038EA009A31C2229C3100302100A5000030A60086
:1038FA009A31CB229C3100302100A5000030A6006D
:10390A009A31B9229C312300D80108002100B10064
:10391A002C1D902C912C962CA50131089F316A27D9
:10392A009C312100AC1C9A2C9B2CA12CA501A50A28
:10393A0031089F316A279C3121003108983EAD0039
:10394A00AE010E30AE3D2D08AF002E08B0002F0894
:10395A008600300887002C08810008003D00181CEA
:10396A00B72CB82CDB2C2100480886008701803050
:10397A000106031DC12CC22CD92C2300370886004E
:10398A003808870084300106031DCC2CCD2CD92C95
:10399A000C30F00021004808860087017008810079
:1039AA0048088600870181173D001810DF30F000B3
:1039BA00700890050800F5007108F7007008F60015
:1039CA007508F4007408F900012D76088600770856
:1039DA0087000108F4007408F8000130F607003087
:1039EA00F73D7808F4007908860087017408810099
:1039FA000130F4007408F9070130F2020030F33B99
:103A0A00720A031D0C2D730A031D0C2D0D2DEA2CB1
:103A1A0008002100AD002608AC002508AB002D08DF
:103A2A00A9002908AE00302D2B0886002C08870033
:103A3A000108A9002908AA000130AB070030AC3DF3
:103A4A002A08A9002E08860087012908810001306A
:103A5A00A9002908AE070130A7020030A83B270AAF
:103A6A00031D3B2D280A031D3B2D3C2D192D080053
:103A7A003D00181C412D422D652D21004808860065
:103A8A00870180300106031D4B2D4C2D632D230029
:103A9A00370886003808870084300106031D562D32
:103AAA00572D632D0C302100A50048088600870198
:103ABA002508810048088600870181173D001810F3
:103ACA00DF302100A50025083D00900508000030E0
:103ADA002100AD000030AC000030AB000030AA007D
:103AEA00882D10302100A9009430890B7A2DA90B5A
:103AFA007A2D000001302100AA070030AB3D0030CA
:103B0A00AC3D0030AD3D28082D02031D962D270837
:103B1A002C02031D962D26082B02031D962D25081F
:103B2A002A02031C992D9A2D762D0800A42D9D3169
:103B3A00FF259D31CC2D93311D239D31CC2D2000A5
:103B4A006108003A0319AD2D7F3A0319C72DCC2D10
:103B5A006008013A03199C2D033A0319CC2D013A46
:103B6A000319A02D063A0319CC2D773A0319CC2D47
:103B7A00013A0319CC2D073A0319CC2D013A03193E
:103B8A00CC2DCC2D6008FF3A0319CC2DCC2D080082
:103B9A00D62D9E31E7269D31FE2D93318B239D3103
:103BAA00FE2D21003408003A0319DF2D7F3A03194C
:103BBA00F92DFE2D3308013A0319CE2D033A0319C4
:103BCA00FE2D013A0319D22D063A0319FE2D773A32
:103BDA000319FE2D013A0319FE2D073A0319FE2D8A
:103BEA00013A0319FE2DFE2D3308FF3A0319FE2D63
:103BFA00FE2D080000302400D4000030D3004B30E2
:103C0A00D2000030D100D501D6010830FD007D0870
:103C1A00D7002300DC011A30FD007D08F7000130CF
:103C2A009C3140249D311E30FD007D08F700023092
:103C3A009C3140249D31F001C030F1002030F20067
:103C4A004030FD007D08F30002309631EB269D31AD
:103C5A0071082300D5007008D400D201D301EA010B
:103C6A000800023021004706031D3C2E3D2E412E3E
:103C7A008D31D1259E316F2EC70123006408031DA3
:103C8A00472E482E6E2E21004508013EF6000030D0
:103C9A00463DF700760886007708870008308100DD
:103CAA005030F6000030F7004508860046088700C5
:103CBA0042317608C03F7708C13F4508860046086A
:103CCA0087000C3081004508860046088700811766
:103CDA006F2EE4010800023021004706031D762EEC
:103CEA00772E7B2E8E317D269E31A92EC701230089
:103CFA006408031D812E822EA82E21004508013E4C
:103D0A00AB000030463DAC002B0886002C0887002B
:103D1A00083081005030AB000030AC004508860006
:103D2A004608870042312B08C03F2C08C13F45088E
:103D3A008600460887000C30810045088600460840
:103D4A0087008117A92EE4010800A0302100B000E5
:103D5A000430B1004030B8003808B200923147222E
:103D6A009E312100B90039082300D6002100BB0189
:103D7A00D72E3B08A03E8600043087000108B80011
:103D8A00A030230057072100B9003B083907BA00C1
:103D9A003A08860002308700380881000130B800EE
:103DAA003808BB072300560821003B02031CDE2EFD
:103DBA00DF2EBE2E230056082100B8003808230043
:103DCA00D707080000302400D4000030D3004B305D
:103DDA00D2000030D100D501D60108302100B2004E
:103DEA0032082400D7002300DC011A302100B20077
:103DFA003208AC0001309C318B249E311E302100E8
:103E0A00B2003208AC0002309C318B249E31210072
:103E1A00A501C030A6002030A7004030B200320809
:103E2A00A8000230883182209E3121002608230012
:103E3A00D500210025082300D400D201D301EA01CC
:103E4A000800F5002030F1007108F6007008F10052
:103E5A000130F135890B2E2F7508F2000130F23549
:103E6A00FF3E031D342F72357107F3000130F3351D
:103E7A00FF3E031D3C2F7335F4007408F6077608DD
:103E8A008600870181137008031D4C2F4D2F572F71
:103E9A007535BD3E8600013087007608C03F003088
:103EAA00C13F602F7535B73E86000130870076081E
:103EBA00C03F0030C13F76088600870101137608AB
:103ECA00043E86008701011708002100AA0020305D
:103EDA00A6002608AB002508A6000130A635890BE6
:103EEA00732F2A08A7000130A735FF3E031D792F3B
:103EFA0027352607A8000130A835FF3E031D812F6C
:103F0A002835A9002908AB072B08860087018113E9
:103F1A002508031D912F922F9C2F2A35BD3E86001E
:103F2A00013087002B08C03F0030C13FA52F2A353A
:103F3A00B73E8600013087002B08C03F0030C13FE2
:103F4A002B088600870101132B08043E860087018F
:103F5A00011708002300E901E201DF01DE01E401A3
:103F6A002100C7017F30C2002300370886003808C5
:103F7A008700210042088105043023003706B70074
:103F8A0000303806B8007F302100C200230037080D
:103F9A008600380887002100420881050430230082
:103FAA003706B70000303806B8007F302100C2005B
:103FBA004508860046088700420881052300C50196
:103FCA00C601C701B201B301B401893198219F31F9
:103FDA0003302100B3000030B4000030B5000030D7
:103FEA00B6000030B700B8009D31CD259F318C3125
:063FFA0087249F3108003E
:020000040001F9
:04000E00E43FCF3FBD
:00000001FF
